{"abi":[{"inputs":[{"internalType":"uint256","name":"minimumAmount","type":"uint256"},{"internalType":"address","name":"creator","type":"address"}],"stateMutability":"nonpayable","type":"constructor"},{"anonymous":false,"inputs":[{"indexed":false,"internalType":"string","name":"erroText","type":"string"}],"name":"authorizationErrot","type":"event"},{"anonymous":false,"inputs":[{"indexed":false,"internalType":"string","name":"errorText","type":"string"}],"name":"minimumContributionError","type":"event"},{"anonymous":false,"inputs":[{"indexed":false,"internalType":"string","name":"messageText","type":"string"}],"name":"requestCreated","type":"event"},{"inputs":[{"internalType":"uint256","name":"_index","type":"uint256"}],"name":"approveRequest","outputs":[],"stateMutability":"nonpayable","type":"function"},{"inputs":[{"internalType":"address","name":"","type":"address"}],"name":"approvers","outputs":[{"internalType":"bool","name":"","type":"bool"}],"stateMutability":"view","type":"function"},{"inputs":[],"name":"approversCount","outputs":[{"internalType":"uint256","name":"","type":"uint256"}],"stateMutability":"view","type":"function"},{"inputs":[],"name":"contribute","outputs":[],"stateMutability":"payable","type":"function"},{"inputs":[{"internalType":"string","name":"_description","type":"string"},{"internalType":"uint256","name":"_value","type":"uint256"},{"internalType":"address","name":"_recipient","type":"address"},{"internalType":"bool","name":"_complete","type":"bool"}],"name":"createRequest","outputs":[],"stateMutability":"nonpayable","type":"function"},{"inputs":[{"internalType":"uint256","name":"_index","type":"uint256"}],"name":"finalizeRequest","outputs":[],"stateMutability":"nonpayable","type":"function"},{"inputs":[],"name":"manager","outputs":[{"internalType":"address","name":"","type":"address"}],"stateMutability":"view","type":"function"},{"inputs":[],"name":"minimumContribution","outputs":[{"internalType":"uint256","name":"","type":"uint256"}],"stateMutability":"view","type":"function"},{"inputs":[],"name":"numberOfRequests","outputs":[{"internalType":"uint256","name":"","type":"uint256"}],"stateMutability":"view","type":"function"},{"inputs":[{"internalType":"uint256","name":"","type":"uint256"}],"name":"requestList","outputs":[{"internalType":"string","name":"description","type":"string"},{"internalType":"uint256","name":"value","type":"uint256"},{"internalType":"address","name":"recipient","type":"address"},{"internalType":"bool","name":"complete","type":"bool"},{"internalType":"uint256","name":"approvalCount","type":"uint256"}],"stateMutability":"view","type":"function"}],"devdoc":{"kind":"dev","methods":{},"version":1},"evm":{"assembly":"    /* \"campaign.sol\":1552:3201  contract Campaign is Utility{... */\n  mstore(0x40, 0x80)\n    /* \"campaign.sol\":1593:1723  constructor(uint minimumAmount, address creator){... */\n  callvalue\n  dup1\n  iszero\n  tag_1\n  jumpi\n  0x00\n  dup1\n  revert\ntag_1:\n  pop\n  mload(0x40)\n  sub(codesize, bytecodeSize)\n  dup1\n  bytecodeSize\n  dup4\n  codecopy\n  dup2\n  dup2\n  add\n  0x40\n  mstore\n  dup2\n  add\n  swap1\n  tag_2\n  swap2\n  swap1\n  tag_3\n  jump\t// in\ntag_2:\n    /* \"campaign.sol\":1662:1669  creator */\n  dup1\n    /* \"campaign.sol\":1652:1659  manager */\n  0x00\n  dup1\n    /* \"campaign.sol\":1652:1669  manager = creator */\n  0x0100\n  exp\n  dup2\n  sload\n  dup2\n  0xffffffffffffffffffffffffffffffffffffffff\n  mul\n  not\n  and\n  swap1\n  dup4\n  0xffffffffffffffffffffffffffffffffffffffff\n  and\n  mul\n  or\n  swap1\n  sstore\n  pop\n    /* \"campaign.sol\":1702:1715  minimumAmount */\n  dup2\n    /* \"campaign.sol\":1680:1699  minimumContribution */\n  0x01\n    /* \"campaign.sol\":1680:1715  minimumContribution = minimumAmount */\n  dup2\n  swap1\n  sstore\n  pop\n    /* \"campaign.sol\":1593:1723  constructor(uint minimumAmount, address creator){... */\n  pop\n  pop\n    /* \"campaign.sol\":1552:3201  contract Campaign is Utility{... */\n  jump(tag_6)\n    /* \"#utility.yul\":88:205   */\ntag_8:\n    /* \"#utility.yul\":197:198   */\n  0x00\n    /* \"#utility.yul\":194:195   */\n  dup1\n    /* \"#utility.yul\":187:199   */\n  revert\n    /* \"#utility.yul\":334:411   */\ntag_10:\n    /* \"#utility.yul\":371:378   */\n  0x00\n    /* \"#utility.yul\":400:405   */\n  dup2\n    /* \"#utility.yul\":389:405   */\n  swap1\n  pop\n    /* \"#utility.yul\":334:411   */\n  swap2\n  swap1\n  pop\n  jump\t// out\n    /* \"#utility.yul\":417:539   */\ntag_11:\n    /* \"#utility.yul\":490:514   */\n  tag_23\n    /* \"#utility.yul\":508:513   */\n  dup2\n    /* \"#utility.yul\":490:514   */\n  tag_10\n  jump\t// in\ntag_23:\n    /* \"#utility.yul\":483:488   */\n  dup2\n    /* \"#utility.yul\":480:515   */\n  eq\n    /* \"#utility.yul\":470:533   */\n  tag_24\n  jumpi\n    /* \"#utility.yul\":529:530   */\n  0x00\n    /* \"#utility.yul\":526:527   */\n  dup1\n    /* \"#utility.yul\":519:531   */\n  revert\n    /* \"#utility.yul\":470:533   */\ntag_24:\n    /* \"#utility.yul\":417:539   */\n  pop\n  jump\t// out\n    /* \"#utility.yul\":545:688   */\ntag_12:\n    /* \"#utility.yul\":602:607   */\n  0x00\n    /* \"#utility.yul\":633:639   */\n  dup2\n    /* \"#utility.yul\":627:640   */\n  mload\n    /* \"#utility.yul\":618:640   */\n  swap1\n  pop\n    /* \"#utility.yul\":649:682   */\n  tag_26\n    /* \"#utility.yul\":676:681   */\n  dup2\n    /* \"#utility.yul\":649:682   */\n  tag_11\n  jump\t// in\ntag_26:\n    /* \"#utility.yul\":545:688   */\n  swap3\n  swap2\n  pop\n  pop\n  jump\t// out\n    /* \"#utility.yul\":694:820   */\ntag_13:\n    /* \"#utility.yul\":731:738   */\n  0x00\n    /* \"#utility.yul\":771:813   */\n  0xffffffffffffffffffffffffffffffffffffffff\n    /* \"#utility.yul\":764:769   */\n  dup3\n    /* \"#utility.yul\":760:814   */\n  and\n    /* \"#utility.yul\":749:814   */\n  swap1\n  pop\n    /* \"#utility.yul\":694:820   */\n  swap2\n  swap1\n  pop\n  jump\t// out\n    /* \"#utility.yul\":826:922   */\ntag_14:\n    /* \"#utility.yul\":863:870   */\n  0x00\n    /* \"#utility.yul\":892:916   */\n  tag_29\n    /* \"#utility.yul\":910:915   */\n  dup3\n    /* \"#utility.yul\":892:916   */\n  tag_13\n  jump\t// in\ntag_29:\n    /* \"#utility.yul\":881:916   */\n  swap1\n  pop\n    /* \"#utility.yul\":826:922   */\n  swap2\n  swap1\n  pop\n  jump\t// out\n    /* \"#utility.yul\":928:1050   */\ntag_15:\n    /* \"#utility.yul\":1001:1025   */\n  tag_31\n    /* \"#utility.yul\":1019:1024   */\n  dup2\n    /* \"#utility.yul\":1001:1025   */\n  tag_14\n  jump\t// in\ntag_31:\n    /* \"#utility.yul\":994:999   */\n  dup2\n    /* \"#utility.yul\":991:1026   */\n  eq\n    /* \"#utility.yul\":981:1044   */\n  tag_32\n  jumpi\n    /* \"#utility.yul\":1040:1041   */\n  0x00\n    /* \"#utility.yul\":1037:1038   */\n  dup1\n    /* \"#utility.yul\":1030:1042   */\n  revert\n    /* \"#utility.yul\":981:1044   */\ntag_32:\n    /* \"#utility.yul\":928:1050   */\n  pop\n  jump\t// out\n    /* \"#utility.yul\":1056:1199   */\ntag_16:\n    /* \"#utility.yul\":1113:1118   */\n  0x00\n    /* \"#utility.yul\":1144:1150   */\n  dup2\n    /* \"#utility.yul\":1138:1151   */\n  mload\n    /* \"#utility.yul\":1129:1151   */\n  swap1\n  pop\n    /* \"#utility.yul\":1160:1193   */\n  tag_34\n    /* \"#utility.yul\":1187:1192   */\n  dup2\n    /* \"#utility.yul\":1160:1193   */\n  tag_15\n  jump\t// in\ntag_34:\n    /* \"#utility.yul\":1056:1199   */\n  swap3\n  swap2\n  pop\n  pop\n  jump\t// out\n    /* \"#utility.yul\":1205:1712   */\ntag_3:\n    /* \"#utility.yul\":1284:1290   */\n  0x00\n    /* \"#utility.yul\":1292:1298   */\n  dup1\n    /* \"#utility.yul\":1341:1343   */\n  0x40\n    /* \"#utility.yul\":1329:1338   */\n  dup4\n    /* \"#utility.yul\":1320:1327   */\n  dup6\n    /* \"#utility.yul\":1316:1339   */\n  sub\n    /* \"#utility.yul\":1312:1344   */\n  slt\n    /* \"#utility.yul\":1309:1428   */\n  iszero\n  tag_36\n  jumpi\n    /* \"#utility.yul\":1347:1426   */\n  tag_37\n  tag_8\n  jump\t// in\ntag_37:\n    /* \"#utility.yul\":1309:1428   */\ntag_36:\n    /* \"#utility.yul\":1467:1468   */\n  0x00\n    /* \"#utility.yul\":1492:1556   */\n  tag_38\n    /* \"#utility.yul\":1548:1555   */\n  dup6\n    /* \"#utility.yul\":1539:1545   */\n  dup3\n    /* \"#utility.yul\":1528:1537   */\n  dup7\n    /* \"#utility.yul\":1524:1546   */\n  add\n    /* \"#utility.yul\":1492:1556   */\n  tag_12\n  jump\t// in\ntag_38:\n    /* \"#utility.yul\":1482:1556   */\n  swap3\n  pop\n    /* \"#utility.yul\":1438:1566   */\n  pop\n    /* \"#utility.yul\":1605:1607   */\n  0x20\n    /* \"#utility.yul\":1631:1695   */\n  tag_39\n    /* \"#utility.yul\":1687:1694   */\n  dup6\n    /* \"#utility.yul\":1678:1684   */\n  dup3\n    /* \"#utility.yul\":1667:1676   */\n  dup7\n    /* \"#utility.yul\":1663:1685   */\n  add\n    /* \"#utility.yul\":1631:1695   */\n  tag_16\n  jump\t// in\ntag_39:\n    /* \"#utility.yul\":1621:1695   */\n  swap2\n  pop\n    /* \"#utility.yul\":1576:1705   */\n  pop\n    /* \"#utility.yul\":1205:1712   */\n  swap3\n  pop\n  swap3\n  swap1\n  pop\n  jump\t// out\n    /* \"campaign.sol\":1552:3201  contract Campaign is Utility{... */\ntag_6:\n  dataSize(sub_0)\n  dup1\n  dataOffset(sub_0)\n  0x00\n  codecopy\n  0x00\n  return\nstop\n\nsub_0: assembly {\n        /* \"campaign.sol\":1552:3201  contract Campaign is Utility{... */\n      mstore(0x40, 0x80)\n      jumpi(tag_1, lt(calldatasize, 0x04))\n      shr(0xe0, calldataload(0x00))\n      dup1\n      0x82fde093\n      gt\n      tag_12\n      jumpi\n      dup1\n      0x82fde093\n      eq\n      tag_7\n      jumpi\n      dup1\n      0x937e09b1\n      eq\n      tag_8\n      jumpi\n      dup1\n      0xcf569977\n      eq\n      tag_9\n      jumpi\n      dup1\n      0xd7bb99ba\n      eq\n      tag_10\n      jumpi\n      dup1\n      0xd7d1bbdb\n      eq\n      tag_11\n      jumpi\n      jump(tag_1)\n    tag_12:\n      dup1\n      0x02e9d43b\n      eq\n      tag_2\n      jumpi\n      dup1\n      0x03441006\n      eq\n      tag_3\n      jumpi\n      dup1\n      0x0a144391\n      eq\n      tag_4\n      jumpi\n      dup1\n      0x156964cb\n      eq\n      tag_5\n      jumpi\n      dup1\n      0x481c6a75\n      eq\n      tag_6\n      jumpi\n    tag_1:\n      0x00\n      dup1\n      revert\n        /* \"campaign.sol\":666:707  mapping(uint=>Request) public requestList */\n    tag_2:\n      callvalue\n      dup1\n      iszero\n      tag_13\n      jumpi\n      0x00\n      dup1\n      revert\n    tag_13:\n      pop\n      tag_14\n      0x04\n      dup1\n      calldatasize\n      sub\n      dup2\n      add\n      swap1\n      tag_15\n      swap2\n      swap1\n      tag_16\n      jump\t// in\n    tag_15:\n      tag_17\n      jump\t// in\n    tag_14:\n      mload(0x40)\n      tag_18\n      swap6\n      swap5\n      swap4\n      swap3\n      swap2\n      swap1\n      tag_19\n      jump\t// in\n    tag_18:\n      mload(0x40)\n      dup1\n      swap2\n      sub\n      swap1\n      return\n        /* \"campaign.sol\":2880:3196  function finalizeRequest(uint _index) onlyManager public{... */\n    tag_3:\n      callvalue\n      dup1\n      iszero\n      tag_20\n      jumpi\n      0x00\n      dup1\n      revert\n    tag_20:\n      pop\n      tag_21\n      0x04\n      dup1\n      calldatasize\n      sub\n      dup2\n      add\n      swap1\n      tag_22\n      swap2\n      swap1\n      tag_16\n      jump\t// in\n    tag_22:\n      tag_23\n      jump\t// in\n    tag_21:\n      stop\n        /* \"campaign.sol\":156:195  mapping(address=>bool) public approvers */\n    tag_4:\n      callvalue\n      dup1\n      iszero\n      tag_24\n      jumpi\n      0x00\n      dup1\n      revert\n    tag_24:\n      pop\n      tag_25\n      0x04\n      dup1\n      calldatasize\n      sub\n      dup2\n      add\n      swap1\n      tag_26\n      swap2\n      swap1\n      tag_27\n      jump\t// in\n    tag_26:\n      tag_28\n      jump\t// in\n    tag_25:\n      mload(0x40)\n      tag_29\n      swap2\n      swap1\n      tag_30\n      jump\t// in\n    tag_29:\n      mload(0x40)\n      dup1\n      swap2\n      sub\n      swap1\n      return\n        /* \"campaign.sol\":1918:2579  function createRequest(string memory _description, uint _value, address _recipient, bool _complete ) onlyManager public{... */\n    tag_5:\n      callvalue\n      dup1\n      iszero\n      tag_31\n      jumpi\n      0x00\n      dup1\n      revert\n    tag_31:\n      pop\n      tag_32\n      0x04\n      dup1\n      calldatasize\n      sub\n      dup2\n      add\n      swap1\n      tag_33\n      swap2\n      swap1\n      tag_34\n      jump\t// in\n    tag_33:\n      tag_35\n      jump\t// in\n    tag_32:\n      stop\n        /* \"campaign.sol\":89:111  address public manager */\n    tag_6:\n      callvalue\n      dup1\n      iszero\n      tag_36\n      jumpi\n      0x00\n      dup1\n      revert\n    tag_36:\n      pop\n      tag_37\n      tag_38\n      jump\t// in\n    tag_37:\n      mload(0x40)\n      tag_39\n      swap2\n      swap1\n      tag_40\n      jump\t// in\n    tag_39:\n      mload(0x40)\n      dup1\n      swap2\n      sub\n      swap1\n      return\n        /* \"campaign.sol\":202:228  uint public approversCount */\n    tag_7:\n      callvalue\n      dup1\n      iszero\n      tag_41\n      jumpi\n      0x00\n      dup1\n      revert\n    tag_41:\n      pop\n      tag_42\n      tag_43\n      jump\t// in\n    tag_42:\n      mload(0x40)\n      tag_44\n      swap2\n      swap1\n      tag_45\n      jump\t// in\n    tag_44:\n      mload(0x40)\n      dup1\n      swap2\n      sub\n      swap1\n      return\n        /* \"campaign.sol\":118:149  uint public minimumContribution */\n    tag_8:\n      callvalue\n      dup1\n      iszero\n      tag_46\n      jumpi\n      0x00\n      dup1\n      revert\n    tag_46:\n      pop\n      tag_47\n      tag_48\n      jump\t// in\n    tag_47:\n      mload(0x40)\n      tag_49\n      swap2\n      swap1\n      tag_45\n      jump\t// in\n    tag_49:\n      mload(0x40)\n      dup1\n      swap2\n      sub\n      swap1\n      return\n        /* \"campaign.sol\":594:622  uint public numberOfRequests */\n    tag_9:\n      callvalue\n      dup1\n      iszero\n      tag_50\n      jumpi\n      0x00\n      dup1\n      revert\n    tag_50:\n      pop\n      tag_51\n      tag_52\n      jump\t// in\n    tag_51:\n      mload(0x40)\n      tag_53\n      swap2\n      swap1\n      tag_45\n      jump\t// in\n    tag_53:\n      mload(0x40)\n      dup1\n      swap2\n      sub\n      swap1\n      return\n        /* \"campaign.sol\":1735:1906  function contribute() isMinimumSatisfied public payable{... */\n    tag_10:\n      tag_54\n      tag_55\n      jump\t// in\n    tag_54:\n      stop\n        /* \"campaign.sol\":2587:2872  function approveRequest(uint _index) public{... */\n    tag_11:\n      callvalue\n      dup1\n      iszero\n      tag_56\n      jumpi\n      0x00\n      dup1\n      revert\n    tag_56:\n      pop\n      tag_57\n      0x04\n      dup1\n      calldatasize\n      sub\n      dup2\n      add\n      swap1\n      tag_58\n      swap2\n      swap1\n      tag_16\n      jump\t// in\n    tag_58:\n      tag_59\n      jump\t// in\n    tag_57:\n      stop\n        /* \"campaign.sol\":666:707  mapping(uint=>Request) public requestList */\n    tag_17:\n      mstore(0x20, 0x05)\n      dup1\n      0x00\n      mstore\n      keccak256(0x00, 0x40)\n      0x00\n      swap2\n      pop\n      swap1\n      pop\n      dup1\n      0x00\n      add\n      dup1\n      sload\n      tag_60\n      swap1\n      tag_61\n      jump\t// in\n    tag_60:\n      dup1\n      0x1f\n      add\n      0x20\n      dup1\n      swap2\n      div\n      mul\n      0x20\n      add\n      mload(0x40)\n      swap1\n      dup2\n      add\n      0x40\n      mstore\n      dup1\n      swap3\n      swap2\n      swap1\n      dup2\n      dup2\n      mstore\n      0x20\n      add\n      dup3\n      dup1\n      sload\n      tag_62\n      swap1\n      tag_61\n      jump\t// in\n    tag_62:\n      dup1\n      iszero\n      tag_63\n      jumpi\n      dup1\n      0x1f\n      lt\n      tag_64\n      jumpi\n      0x0100\n      dup1\n      dup4\n      sload\n      div\n      mul\n      dup4\n      mstore\n      swap2\n      0x20\n      add\n      swap2\n      jump(tag_63)\n    tag_64:\n      dup3\n      add\n      swap2\n      swap1\n      0x00\n      mstore\n      keccak256(0x00, 0x20)\n      swap1\n    tag_65:\n      dup2\n      sload\n      dup2\n      mstore\n      swap1\n      0x01\n      add\n      swap1\n      0x20\n      add\n      dup1\n      dup4\n      gt\n      tag_65\n      jumpi\n      dup3\n      swap1\n      sub\n      0x1f\n      and\n      dup3\n      add\n      swap2\n    tag_63:\n      pop\n      pop\n      pop\n      pop\n      pop\n      swap1\n      dup1\n      0x01\n      add\n      sload\n      swap1\n      dup1\n      0x02\n      add\n      0x00\n      swap1\n      sload\n      swap1\n      0x0100\n      exp\n      swap1\n      div\n      0xffffffffffffffffffffffffffffffffffffffff\n      and\n      swap1\n      dup1\n      0x02\n      add\n      0x14\n      swap1\n      sload\n      swap1\n      0x0100\n      exp\n      swap1\n      div\n      0xff\n      and\n      swap1\n      dup1\n      0x03\n      add\n      sload\n      swap1\n      pop\n      dup6\n      jump\t// out\n        /* \"campaign.sol\":2880:3196  function finalizeRequest(uint _index) onlyManager public{... */\n    tag_23:\n        /* \"campaign.sol\":1012:1019  manager */\n      0x00\n      dup1\n      sload\n      swap1\n      0x0100\n      exp\n      swap1\n      div\n      0xffffffffffffffffffffffffffffffffffffffff\n      and\n        /* \"campaign.sol\":998:1019  msg.sender != manager */\n      0xffffffffffffffffffffffffffffffffffffffff\n      and\n        /* \"campaign.sol\":998:1008  msg.sender */\n      caller\n        /* \"campaign.sol\":998:1019  msg.sender != manager */\n      0xffffffffffffffffffffffffffffffffffffffff\n      and\n      eq\n        /* \"campaign.sol\":995:1152  if(msg.sender != manager){... */\n      tag_67\n      jumpi\n        /* \"campaign.sol\":1040:1108  authorizationErrot(\"You are not authoized to execute this function\") */\n      0xefc58067a22b5fc63c92f0d342a3ee86c200480e4a6601e495b7850cc5035dae\n      mload(0x40)\n      tag_68\n      swap1\n      tag_69\n      jump\t// in\n    tag_68:\n      mload(0x40)\n      dup1\n      swap2\n      sub\n      swap1\n      log1\n        /* \"campaign.sol\":995:1152  if(msg.sender != manager){... */\n      jump(tag_70)\n    tag_67:\n        /* \"campaign.sol\":2947:2970  Request storage request */\n      0x00\n        /* \"campaign.sol\":2973:2984  requestList */\n      0x05\n        /* \"campaign.sol\":2973:2992  requestList[_index] */\n      0x00\n        /* \"campaign.sol\":2985:2991  _index */\n      dup4\n        /* \"campaign.sol\":2973:2992  requestList[_index] */\n      dup2\n      mstore\n      0x20\n      add\n      swap1\n      dup2\n      mstore\n      0x20\n      add\n      0x00\n      keccak256\n        /* \"campaign.sol\":2947:2992  Request storage request = requestList[_index] */\n      swap1\n      pop\n        /* \"campaign.sol\":3012:3019  request */\n      dup1\n        /* \"campaign.sol\":3012:3028  request.complete */\n      0x02\n      add\n      0x14\n      swap1\n      sload\n      swap1\n      0x0100\n      exp\n      swap1\n      div\n      0xff\n      and\n        /* \"campaign.sol\":3011:3028  !request.complete */\n      iszero\n        /* \"campaign.sol\":3003:3029  require(!request.complete) */\n      tag_72\n      jumpi\n      0x00\n      dup1\n      revert\n    tag_72:\n        /* \"campaign.sol\":3087:3088  2 */\n      0x02\n        /* \"campaign.sol\":3072:3086  approversCount */\n      sload(0x03)\n        /* \"campaign.sol\":3072:3088  approversCount/2 */\n      tag_73\n      swap2\n      swap1\n      tag_74\n      jump\t// in\n    tag_73:\n        /* \"campaign.sol\":3049:3056  request */\n      dup2\n        /* \"campaign.sol\":3049:3070  request.approvalCount */\n      0x03\n      add\n      sload\n        /* \"campaign.sol\":3049:3088  request.approvalCount> approversCount/2 */\n      gt\n        /* \"campaign.sol\":3040:3089  require (request.approvalCount> approversCount/2) */\n      tag_75\n      jumpi\n      0x00\n      dup1\n      revert\n    tag_75:\n        /* \"campaign.sol\":3110:3117  request */\n      dup1\n        /* \"campaign.sol\":3110:3127  request.recipient */\n      0x02\n      add\n      0x00\n      swap1\n      sload\n      swap1\n      0x0100\n      exp\n      swap1\n      div\n      0xffffffffffffffffffffffffffffffffffffffff\n      and\n        /* \"campaign.sol\":3102:3137  payable(request.recipient).transfer */\n      0xffffffffffffffffffffffffffffffffffffffff\n      and\n        /* \"campaign.sol\":3102:3152  payable(request.recipient).transfer(request.value) */\n      0x08fc\n        /* \"campaign.sol\":3138:3145  request */\n      dup3\n        /* \"campaign.sol\":3138:3151  request.value */\n      0x01\n      add\n      sload\n        /* \"campaign.sol\":3102:3152  payable(request.recipient).transfer(request.value) */\n      swap1\n      dup2\n      iszero\n      mul\n      swap1\n      mload(0x40)\n      0x00\n      mload(0x40)\n      dup1\n      dup4\n      sub\n      dup2\n      dup6\n      dup9\n      dup9\n      call\n      swap4\n      pop\n      pop\n      pop\n      pop\n      iszero\n      dup1\n      iszero\n      tag_77\n      jumpi\n      returndatasize\n      0x00\n      dup1\n      returndatacopy\n      revert(0x00, returndatasize)\n    tag_77:\n      pop\n        /* \"campaign.sol\":3184:3188  true */\n      0x01\n        /* \"campaign.sol\":3165:3172  request */\n      dup2\n        /* \"campaign.sol\":3165:3181  request.complete */\n      0x02\n      add\n      0x14\n        /* \"campaign.sol\":3165:3188  request.complete = true */\n      0x0100\n      exp\n      dup2\n      sload\n      dup2\n      0xff\n      mul\n      not\n      and\n      swap1\n      dup4\n      iszero\n      iszero\n      mul\n      or\n      swap1\n      sstore\n      pop\n        /* \"campaign.sol\":2936:3196  {... */\n      pop\n        /* \"campaign.sol\":995:1152  if(msg.sender != manager){... */\n    tag_70:\n        /* \"campaign.sol\":2880:3196  function finalizeRequest(uint _index) onlyManager public{... */\n      pop\n      jump\t// out\n        /* \"campaign.sol\":156:195  mapping(address=>bool) public approvers */\n    tag_28:\n      mstore(0x20, 0x02)\n      dup1\n      0x00\n      mstore\n      keccak256(0x00, 0x40)\n      0x00\n      swap2\n      pop\n      sload\n      swap1\n      0x0100\n      exp\n      swap1\n      div\n      0xff\n      and\n      dup2\n      jump\t// out\n        /* \"campaign.sol\":1918:2579  function createRequest(string memory _description, uint _value, address _recipient, bool _complete ) onlyManager public{... */\n    tag_35:\n        /* \"campaign.sol\":1012:1019  manager */\n      0x00\n      dup1\n      sload\n      swap1\n      0x0100\n      exp\n      swap1\n      div\n      0xffffffffffffffffffffffffffffffffffffffff\n      and\n        /* \"campaign.sol\":998:1019  msg.sender != manager */\n      0xffffffffffffffffffffffffffffffffffffffff\n      and\n        /* \"campaign.sol\":998:1008  msg.sender */\n      caller\n        /* \"campaign.sol\":998:1019  msg.sender != manager */\n      0xffffffffffffffffffffffffffffffffffffffff\n      and\n      eq\n        /* \"campaign.sol\":995:1152  if(msg.sender != manager){... */\n      tag_79\n      jumpi\n        /* \"campaign.sol\":1040:1108  authorizationErrot(\"You are not authoized to execute this function\") */\n      0xefc58067a22b5fc63c92f0d342a3ee86c200480e4a6601e495b7850cc5035dae\n      mload(0x40)\n      tag_80\n      swap1\n      tag_69\n      jump\t// in\n    tag_80:\n      mload(0x40)\n      dup1\n      swap2\n      sub\n      swap1\n      log1\n        /* \"campaign.sol\":995:1152  if(msg.sender != manager){... */\n      jump(tag_81)\n    tag_79:\n        /* \"campaign.sol\":2048:2074  Request storage theRequest */\n      0x00\n        /* \"campaign.sol\":2077:2088  requestList */\n      0x05\n        /* \"campaign.sol\":2077:2106  requestList[numberOfRequests] */\n      0x00\n        /* \"campaign.sol\":2089:2105  numberOfRequests */\n      sload(0x04)\n        /* \"campaign.sol\":2077:2106  requestList[numberOfRequests] */\n      dup2\n      mstore\n      0x20\n      add\n      swap1\n      dup2\n      mstore\n      0x20\n      add\n      0x00\n      keccak256\n        /* \"campaign.sol\":2048:2106  Request storage theRequest = requestList[numberOfRequests] */\n      swap1\n      pop\n        /* \"campaign.sol\":2202:2214  _description */\n      dup5\n        /* \"campaign.sol\":2177:2187  theRequest */\n      dup2\n        /* \"campaign.sol\":2177:2199  theRequest.description */\n      0x00\n      add\n        /* \"campaign.sol\":2177:2214  theRequest.description = _description */\n      swap1\n      dup1\n      mload\n      swap1\n      0x20\n      add\n      swap1\n      tag_83\n      swap3\n      swap2\n      swap1\n      tag_84\n      jump\t// in\n    tag_83:\n      pop\n        /* \"campaign.sol\":2244:2250  _value */\n      dup4\n        /* \"campaign.sol\":2225:2235  theRequest */\n      dup2\n        /* \"campaign.sol\":2225:2241  theRequest.value */\n      0x01\n      add\n        /* \"campaign.sol\":2225:2250  theRequest.value = _value */\n      dup2\n      swap1\n      sstore\n      pop\n        /* \"campaign.sol\":2283:2292  _complete */\n      dup2\n        /* \"campaign.sol\":2261:2271  theRequest */\n      dup2\n        /* \"campaign.sol\":2261:2280  theRequest.complete */\n      0x02\n      add\n      0x14\n        /* \"campaign.sol\":2261:2292  theRequest.complete = _complete */\n      0x0100\n      exp\n      dup2\n      sload\n      dup2\n      0xff\n      mul\n      not\n      and\n      swap1\n      dup4\n      iszero\n      iszero\n      mul\n      or\n      swap1\n      sstore\n      pop\n        /* \"campaign.sol\":2325:2335  _recipient */\n      dup3\n        /* \"campaign.sol\":2303:2313  theRequest */\n      dup2\n        /* \"campaign.sol\":2303:2323  theRequest.recipient */\n      0x02\n      add\n      0x00\n        /* \"campaign.sol\":2303:2335  theRequest.recipient= _recipient */\n      0x0100\n      exp\n      dup2\n      sload\n      dup2\n      0xffffffffffffffffffffffffffffffffffffffff\n      mul\n      not\n      and\n      swap1\n      dup4\n      0xffffffffffffffffffffffffffffffffffffffff\n      and\n      mul\n      or\n      swap1\n      sstore\n      pop\n        /* \"campaign.sol\":2371:2372  0 */\n      0x00\n        /* \"campaign.sol\":2346:2356  theRequest */\n      dup2\n        /* \"campaign.sol\":2346:2370  theRequest.approvalCount */\n      0x03\n      add\n        /* \"campaign.sol\":2346:2372  theRequest.approvalCount=0 */\n      dup2\n      swap1\n      sstore\n      pop\n        /* \"campaign.sol\":2393:2409  numberOfRequests */\n      0x04\n      0x00\n        /* \"campaign.sol\":2393:2411  numberOfRequests++ */\n      dup2\n      sload\n      dup1\n      swap3\n      swap2\n      swap1\n      tag_85\n      swap1\n      tag_86\n      jump\t// in\n    tag_85:\n      swap2\n      swap1\n      pop\n      sstore\n      pop\n        /* \"campaign.sol\":2525:2571  requestCreated(\"New Request has been created\") */\n      0xacfc64a01d363381b525be237b18171ca85cf20c6f60cd29f0e89872747a3890\n      mload(0x40)\n      tag_87\n      swap1\n      tag_88\n      jump\t// in\n    tag_87:\n      mload(0x40)\n      dup1\n      swap2\n      sub\n      swap1\n      log1\n        /* \"campaign.sol\":2037:2579  {... */\n      pop\n        /* \"campaign.sol\":995:1152  if(msg.sender != manager){... */\n    tag_81:\n        /* \"campaign.sol\":1918:2579  function createRequest(string memory _description, uint _value, address _recipient, bool _complete ) onlyManager public{... */\n      pop\n      pop\n      pop\n      pop\n      jump\t// out\n        /* \"campaign.sol\":89:111  address public manager */\n    tag_38:\n      0x00\n      dup1\n      sload\n      swap1\n      0x0100\n      exp\n      swap1\n      div\n      0xffffffffffffffffffffffffffffffffffffffff\n      and\n      dup2\n      jump\t// out\n        /* \"campaign.sol\":202:228  uint public approversCount */\n    tag_43:\n      sload(0x03)\n      dup2\n      jump\t// out\n        /* \"campaign.sol\":118:149  uint public minimumContribution */\n    tag_48:\n      sload(0x01)\n      dup2\n      jump\t// out\n        /* \"campaign.sol\":594:622  uint public numberOfRequests */\n    tag_52:\n      sload(0x04)\n      dup2\n      jump\t// out\n        /* \"campaign.sol\":1735:1906  function contribute() isMinimumSatisfied public payable{... */\n    tag_55:\n        /* \"campaign.sol\":775:794  minimumContribution */\n      sload(0x01)\n        /* \"campaign.sol\":763:772  msg.value */\n      callvalue\n        /* \"campaign.sol\":763:794  msg.value < minimumContribution */\n      lt\n        /* \"campaign.sol\":760:943  if(msg.value < minimumContribution){... */\n      iszero\n      tag_90\n      jumpi\n        /* \"campaign.sol\":815:899  minimumContributionError(\"You are not contributing the minimum amount required...!\") */\n      0x14658362240bcbb2e554554a7365f37e8d4bbb376e8680a24fe02aeede504a95\n      mload(0x40)\n      tag_91\n      swap1\n      tag_92\n      jump\t// in\n    tag_91:\n      mload(0x40)\n      dup1\n      swap2\n      sub\n      swap1\n      log1\n        /* \"campaign.sol\":760:943  if(msg.value < minimumContribution){... */\n      jump(tag_93)\n    tag_90:\n        /* \"campaign.sol\":1825:1829  true */\n      0x01\n        /* \"campaign.sol\":1801:1810  approvers */\n      0x02\n        /* \"campaign.sol\":1801:1822  approvers[msg.sender] */\n      0x00\n        /* \"campaign.sol\":1811:1821  msg.sender */\n      caller\n        /* \"campaign.sol\":1801:1822  approvers[msg.sender] */\n      0xffffffffffffffffffffffffffffffffffffffff\n      and\n      0xffffffffffffffffffffffffffffffffffffffff\n      and\n      dup2\n      mstore\n      0x20\n      add\n      swap1\n      dup2\n      mstore\n      0x20\n      add\n      0x00\n      keccak256\n      0x00\n        /* \"campaign.sol\":1801:1829  approvers[msg.sender] = true */\n      0x0100\n      exp\n      dup2\n      sload\n      dup2\n      0xff\n      mul\n      not\n      and\n      swap1\n      dup4\n      iszero\n      iszero\n      mul\n      or\n      swap1\n      sstore\n      pop\n        /* \"campaign.sol\":1840:1854  approversCount */\n      0x03\n      0x00\n        /* \"campaign.sol\":1840:1856  approversCount++ */\n      dup2\n      sload\n      dup1\n      swap3\n      swap2\n      swap1\n      tag_95\n      swap1\n      tag_86\n      jump\t// in\n    tag_95:\n      swap2\n      swap1\n      pop\n      sstore\n      pop\n        /* \"campaign.sol\":760:943  if(msg.value < minimumContribution){... */\n    tag_93:\n        /* \"campaign.sol\":1735:1906  function contribute() isMinimumSatisfied public payable{... */\n      jump\t// out\n        /* \"campaign.sol\":2587:2872  function approveRequest(uint _index) public{... */\n    tag_59:\n        /* \"campaign.sol\":2643:2666  Request storage request */\n      0x00\n        /* \"campaign.sol\":2669:2680  requestList */\n      0x05\n        /* \"campaign.sol\":2669:2688  requestList[_index] */\n      0x00\n        /* \"campaign.sol\":2681:2687  _index */\n      dup4\n        /* \"campaign.sol\":2669:2688  requestList[_index] */\n      dup2\n      mstore\n      0x20\n      add\n      swap1\n      dup2\n      mstore\n      0x20\n      add\n      0x00\n      keccak256\n        /* \"campaign.sol\":2643:2688  Request storage request = requestList[_index] */\n      swap1\n      pop\n        /* \"campaign.sol\":2709:2718  approvers */\n      0x02\n        /* \"campaign.sol\":2709:2730  approvers[msg.sender] */\n      0x00\n        /* \"campaign.sol\":2719:2729  msg.sender */\n      caller\n        /* \"campaign.sol\":2709:2730  approvers[msg.sender] */\n      0xffffffffffffffffffffffffffffffffffffffff\n      and\n      0xffffffffffffffffffffffffffffffffffffffff\n      and\n      dup2\n      mstore\n      0x20\n      add\n      swap1\n      dup2\n      mstore\n      0x20\n      add\n      0x00\n      keccak256\n      0x00\n      swap1\n      sload\n      swap1\n      0x0100\n      exp\n      swap1\n      div\n      0xff\n      and\n        /* \"campaign.sol\":2701:2731  require(approvers[msg.sender]) */\n      tag_97\n      jumpi\n      0x00\n      dup1\n      revert\n    tag_97:\n        /* \"campaign.sol\":2751:2758  request */\n      dup1\n        /* \"campaign.sol\":2751:2768  request.approvals */\n      0x04\n      add\n        /* \"campaign.sol\":2751:2780  request.approvals[msg.sender] */\n      0x00\n        /* \"campaign.sol\":2769:2779  msg.sender */\n      caller\n        /* \"campaign.sol\":2751:2780  request.approvals[msg.sender] */\n      0xffffffffffffffffffffffffffffffffffffffff\n      and\n      0xffffffffffffffffffffffffffffffffffffffff\n      and\n      dup2\n      mstore\n      0x20\n      add\n      swap1\n      dup2\n      mstore\n      0x20\n      add\n      0x00\n      keccak256\n      0x00\n      swap1\n      sload\n      swap1\n      0x0100\n      exp\n      swap1\n      div\n      0xff\n      and\n        /* \"campaign.sol\":2750:2780  !request.approvals[msg.sender] */\n      iszero\n        /* \"campaign.sol\":2742:2781  require(!request.approvals[msg.sender]) */\n      tag_98\n      jumpi\n      0x00\n      dup1\n      revert\n    tag_98:\n        /* \"campaign.sol\":2826:2830  true */\n      0x01\n        /* \"campaign.sol\":2794:2801  request */\n      dup2\n        /* \"campaign.sol\":2794:2811  request.approvals */\n      0x04\n      add\n        /* \"campaign.sol\":2794:2823  request.approvals[msg.sender] */\n      0x00\n        /* \"campaign.sol\":2812:2822  msg.sender */\n      caller\n        /* \"campaign.sol\":2794:2823  request.approvals[msg.sender] */\n      0xffffffffffffffffffffffffffffffffffffffff\n      and\n      0xffffffffffffffffffffffffffffffffffffffff\n      and\n      dup2\n      mstore\n      0x20\n      add\n      swap1\n      dup2\n      mstore\n      0x20\n      add\n      0x00\n      keccak256\n      0x00\n        /* \"campaign.sol\":2794:2830  request.approvals[msg.sender] = true */\n      0x0100\n      exp\n      dup2\n      sload\n      dup2\n      0xff\n      mul\n      not\n      and\n      swap1\n      dup4\n      iszero\n      iszero\n      mul\n      or\n      swap1\n      sstore\n      pop\n        /* \"campaign.sol\":2841:2848  request */\n      dup1\n        /* \"campaign.sol\":2841:2862  request.approvalCount */\n      0x03\n      add\n      0x00\n        /* \"campaign.sol\":2841:2864  request.approvalCount++ */\n      dup2\n      sload\n      dup1\n      swap3\n      swap2\n      swap1\n      tag_99\n      swap1\n      tag_86\n      jump\t// in\n    tag_99:\n      swap2\n      swap1\n      pop\n      sstore\n      pop\n        /* \"campaign.sol\":2630:2872  {... */\n      pop\n        /* \"campaign.sol\":2587:2872  function approveRequest(uint _index) public{... */\n      pop\n      jump\t// out\n    tag_84:\n      dup3\n      dup1\n      sload\n      tag_100\n      swap1\n      tag_61\n      jump\t// in\n    tag_100:\n      swap1\n      0x00\n      mstore\n      keccak256(0x00, 0x20)\n      swap1\n      0x1f\n      add\n      0x20\n      swap1\n      div\n      dup2\n      add\n      swap3\n      dup3\n      tag_102\n      jumpi\n      0x00\n      dup6\n      sstore\n      jump(tag_101)\n    tag_102:\n      dup3\n      0x1f\n      lt\n      tag_103\n      jumpi\n      dup1\n      mload\n      not(0xff)\n      and\n      dup4\n      dup1\n      add\n      or\n      dup6\n      sstore\n      jump(tag_101)\n    tag_103:\n      dup3\n      dup1\n      add\n      0x01\n      add\n      dup6\n      sstore\n      dup3\n      iszero\n      tag_101\n      jumpi\n      swap2\n      dup3\n      add\n    tag_104:\n      dup3\n      dup2\n      gt\n      iszero\n      tag_105\n      jumpi\n      dup3\n      mload\n      dup3\n      sstore\n      swap2\n      0x20\n      add\n      swap2\n      swap1\n      0x01\n      add\n      swap1\n      jump(tag_104)\n    tag_105:\n    tag_101:\n      pop\n      swap1\n      pop\n      tag_106\n      swap2\n      swap1\n      tag_107\n      jump\t// in\n    tag_106:\n      pop\n      swap1\n      jump\t// out\n    tag_107:\n    tag_108:\n      dup1\n      dup3\n      gt\n      iszero\n      tag_109\n      jumpi\n      0x00\n      dup2\n      0x00\n      swap1\n      sstore\n      pop\n      0x01\n      add\n      jump(tag_108)\n    tag_109:\n      pop\n      swap1\n      jump\t// out\n        /* \"#utility.yul\":7:82   */\n    tag_110:\n        /* \"#utility.yul\":40:46   */\n      0x00\n        /* \"#utility.yul\":73:75   */\n      0x40\n        /* \"#utility.yul\":67:76   */\n      mload\n        /* \"#utility.yul\":57:76   */\n      swap1\n      pop\n        /* \"#utility.yul\":7:82   */\n      swap1\n      jump\t// out\n        /* \"#utility.yul\":88:205   */\n    tag_111:\n        /* \"#utility.yul\":197:198   */\n      0x00\n        /* \"#utility.yul\":194:195   */\n      dup1\n        /* \"#utility.yul\":187:199   */\n      revert\n        /* \"#utility.yul\":211:328   */\n    tag_112:\n        /* \"#utility.yul\":320:321   */\n      0x00\n        /* \"#utility.yul\":317:318   */\n      dup1\n        /* \"#utility.yul\":310:322   */\n      revert\n        /* \"#utility.yul\":334:411   */\n    tag_113:\n        /* \"#utility.yul\":371:378   */\n      0x00\n        /* \"#utility.yul\":400:405   */\n      dup2\n        /* \"#utility.yul\":389:405   */\n      swap1\n      pop\n        /* \"#utility.yul\":334:411   */\n      swap2\n      swap1\n      pop\n      jump\t// out\n        /* \"#utility.yul\":417:539   */\n    tag_114:\n        /* \"#utility.yul\":490:514   */\n      tag_155\n        /* \"#utility.yul\":508:513   */\n      dup2\n        /* \"#utility.yul\":490:514   */\n      tag_113\n      jump\t// in\n    tag_155:\n        /* \"#utility.yul\":483:488   */\n      dup2\n        /* \"#utility.yul\":480:515   */\n      eq\n        /* \"#utility.yul\":470:533   */\n      tag_156\n      jumpi\n        /* \"#utility.yul\":529:530   */\n      0x00\n        /* \"#utility.yul\":526:527   */\n      dup1\n        /* \"#utility.yul\":519:531   */\n      revert\n        /* \"#utility.yul\":470:533   */\n    tag_156:\n        /* \"#utility.yul\":417:539   */\n      pop\n      jump\t// out\n        /* \"#utility.yul\":545:684   */\n    tag_115:\n        /* \"#utility.yul\":591:596   */\n      0x00\n        /* \"#utility.yul\":629:635   */\n      dup2\n        /* \"#utility.yul\":616:636   */\n      calldataload\n        /* \"#utility.yul\":607:636   */\n      swap1\n      pop\n        /* \"#utility.yul\":645:678   */\n      tag_158\n        /* \"#utility.yul\":672:677   */\n      dup2\n        /* \"#utility.yul\":645:678   */\n      tag_114\n      jump\t// in\n    tag_158:\n        /* \"#utility.yul\":545:684   */\n      swap3\n      swap2\n      pop\n      pop\n      jump\t// out\n        /* \"#utility.yul\":690:1019   */\n    tag_16:\n        /* \"#utility.yul\":749:755   */\n      0x00\n        /* \"#utility.yul\":798:800   */\n      0x20\n        /* \"#utility.yul\":786:795   */\n      dup3\n        /* \"#utility.yul\":777:784   */\n      dup5\n        /* \"#utility.yul\":773:796   */\n      sub\n        /* \"#utility.yul\":769:801   */\n      slt\n        /* \"#utility.yul\":766:885   */\n      iszero\n      tag_160\n      jumpi\n        /* \"#utility.yul\":804:883   */\n      tag_161\n      tag_111\n      jump\t// in\n    tag_161:\n        /* \"#utility.yul\":766:885   */\n    tag_160:\n        /* \"#utility.yul\":924:925   */\n      0x00\n        /* \"#utility.yul\":949:1002   */\n      tag_162\n        /* \"#utility.yul\":994:1001   */\n      dup5\n        /* \"#utility.yul\":985:991   */\n      dup3\n        /* \"#utility.yul\":974:983   */\n      dup6\n        /* \"#utility.yul\":970:992   */\n      add\n        /* \"#utility.yul\":949:1002   */\n      tag_115\n      jump\t// in\n    tag_162:\n        /* \"#utility.yul\":939:1002   */\n      swap2\n      pop\n        /* \"#utility.yul\":895:1012   */\n      pop\n        /* \"#utility.yul\":690:1019   */\n      swap3\n      swap2\n      pop\n      pop\n      jump\t// out\n        /* \"#utility.yul\":1025:1124   */\n    tag_116:\n        /* \"#utility.yul\":1077:1083   */\n      0x00\n        /* \"#utility.yul\":1111:1116   */\n      dup2\n        /* \"#utility.yul\":1105:1117   */\n      mload\n        /* \"#utility.yul\":1095:1117   */\n      swap1\n      pop\n        /* \"#utility.yul\":1025:1124   */\n      swap2\n      swap1\n      pop\n      jump\t// out\n        /* \"#utility.yul\":1130:1299   */\n    tag_117:\n        /* \"#utility.yul\":1214:1225   */\n      0x00\n        /* \"#utility.yul\":1248:1254   */\n      dup3\n        /* \"#utility.yul\":1243:1246   */\n      dup3\n        /* \"#utility.yul\":1236:1255   */\n      mstore\n        /* \"#utility.yul\":1288:1292   */\n      0x20\n        /* \"#utility.yul\":1283:1286   */\n      dup3\n        /* \"#utility.yul\":1279:1293   */\n      add\n        /* \"#utility.yul\":1264:1293   */\n      swap1\n      pop\n        /* \"#utility.yul\":1130:1299   */\n      swap3\n      swap2\n      pop\n      pop\n      jump\t// out\n        /* \"#utility.yul\":1305:1612   */\n    tag_118:\n        /* \"#utility.yul\":1373:1374   */\n      0x00\n        /* \"#utility.yul\":1383:1496   */\n    tag_166:\n        /* \"#utility.yul\":1397:1403   */\n      dup4\n        /* \"#utility.yul\":1394:1395   */\n      dup2\n        /* \"#utility.yul\":1391:1404   */\n      lt\n        /* \"#utility.yul\":1383:1496   */\n      iszero\n      tag_168\n      jumpi\n        /* \"#utility.yul\":1482:1483   */\n      dup1\n        /* \"#utility.yul\":1477:1480   */\n      dup3\n        /* \"#utility.yul\":1473:1484   */\n      add\n        /* \"#utility.yul\":1467:1485   */\n      mload\n        /* \"#utility.yul\":1463:1464   */\n      dup2\n        /* \"#utility.yul\":1458:1461   */\n      dup5\n        /* \"#utility.yul\":1454:1465   */\n      add\n        /* \"#utility.yul\":1447:1486   */\n      mstore\n        /* \"#utility.yul\":1419:1421   */\n      0x20\n        /* \"#utility.yul\":1416:1417   */\n      dup2\n        /* \"#utility.yul\":1412:1422   */\n      add\n        /* \"#utility.yul\":1407:1422   */\n      swap1\n      pop\n        /* \"#utility.yul\":1383:1496   */\n      jump(tag_166)\n    tag_168:\n        /* \"#utility.yul\":1514:1520   */\n      dup4\n        /* \"#utility.yul\":1511:1512   */\n      dup2\n        /* \"#utility.yul\":1508:1521   */\n      gt\n        /* \"#utility.yul\":1505:1606   */\n      iszero\n      tag_169\n      jumpi\n        /* \"#utility.yul\":1594:1595   */\n      0x00\n        /* \"#utility.yul\":1585:1591   */\n      dup5\n        /* \"#utility.yul\":1580:1583   */\n      dup5\n        /* \"#utility.yul\":1576:1592   */\n      add\n        /* \"#utility.yul\":1569:1596   */\n      mstore\n        /* \"#utility.yul\":1505:1606   */\n    tag_169:\n        /* \"#utility.yul\":1354:1612   */\n      pop\n        /* \"#utility.yul\":1305:1612   */\n      pop\n      pop\n      pop\n      jump\t// out\n        /* \"#utility.yul\":1618:1720   */\n    tag_119:\n        /* \"#utility.yul\":1659:1665   */\n      0x00\n        /* \"#utility.yul\":1710:1712   */\n      0x1f\n        /* \"#utility.yul\":1706:1713   */\n      not\n        /* \"#utility.yul\":1701:1703   */\n      0x1f\n        /* \"#utility.yul\":1694:1699   */\n      dup4\n        /* \"#utility.yul\":1690:1704   */\n      add\n        /* \"#utility.yul\":1686:1714   */\n      and\n        /* \"#utility.yul\":1676:1714   */\n      swap1\n      pop\n        /* \"#utility.yul\":1618:1720   */\n      swap2\n      swap1\n      pop\n      jump\t// out\n        /* \"#utility.yul\":1726:2090   */\n    tag_120:\n        /* \"#utility.yul\":1814:1817   */\n      0x00\n        /* \"#utility.yul\":1842:1881   */\n      tag_172\n        /* \"#utility.yul\":1875:1880   */\n      dup3\n        /* \"#utility.yul\":1842:1881   */\n      tag_116\n      jump\t// in\n    tag_172:\n        /* \"#utility.yul\":1897:1968   */\n      tag_173\n        /* \"#utility.yul\":1961:1967   */\n      dup2\n        /* \"#utility.yul\":1956:1959   */\n      dup6\n        /* \"#utility.yul\":1897:1968   */\n      tag_117\n      jump\t// in\n    tag_173:\n        /* \"#utility.yul\":1890:1968   */\n      swap4\n      pop\n        /* \"#utility.yul\":1977:2029   */\n      tag_174\n        /* \"#utility.yul\":2022:2028   */\n      dup2\n        /* \"#utility.yul\":2017:2020   */\n      dup6\n        /* \"#utility.yul\":2010:2014   */\n      0x20\n        /* \"#utility.yul\":2003:2008   */\n      dup7\n        /* \"#utility.yul\":1999:2015   */\n      add\n        /* \"#utility.yul\":1977:2029   */\n      tag_118\n      jump\t// in\n    tag_174:\n        /* \"#utility.yul\":2054:2083   */\n      tag_175\n        /* \"#utility.yul\":2076:2082   */\n      dup2\n        /* \"#utility.yul\":2054:2083   */\n      tag_119\n      jump\t// in\n    tag_175:\n        /* \"#utility.yul\":2049:2052   */\n      dup5\n        /* \"#utility.yul\":2045:2084   */\n      add\n        /* \"#utility.yul\":2038:2084   */\n      swap2\n      pop\n        /* \"#utility.yul\":1818:2090   */\n      pop\n        /* \"#utility.yul\":1726:2090   */\n      swap3\n      swap2\n      pop\n      pop\n      jump\t// out\n        /* \"#utility.yul\":2096:2214   */\n    tag_121:\n        /* \"#utility.yul\":2183:2207   */\n      tag_177\n        /* \"#utility.yul\":2201:2206   */\n      dup2\n        /* \"#utility.yul\":2183:2207   */\n      tag_113\n      jump\t// in\n    tag_177:\n        /* \"#utility.yul\":2178:2181   */\n      dup3\n        /* \"#utility.yul\":2171:2208   */\n      mstore\n        /* \"#utility.yul\":2096:2214   */\n      pop\n      pop\n      jump\t// out\n        /* \"#utility.yul\":2220:2346   */\n    tag_122:\n        /* \"#utility.yul\":2257:2264   */\n      0x00\n        /* \"#utility.yul\":2297:2339   */\n      0xffffffffffffffffffffffffffffffffffffffff\n        /* \"#utility.yul\":2290:2295   */\n      dup3\n        /* \"#utility.yul\":2286:2340   */\n      and\n        /* \"#utility.yul\":2275:2340   */\n      swap1\n      pop\n        /* \"#utility.yul\":2220:2346   */\n      swap2\n      swap1\n      pop\n      jump\t// out\n        /* \"#utility.yul\":2352:2448   */\n    tag_123:\n        /* \"#utility.yul\":2389:2396   */\n      0x00\n        /* \"#utility.yul\":2418:2442   */\n      tag_180\n        /* \"#utility.yul\":2436:2441   */\n      dup3\n        /* \"#utility.yul\":2418:2442   */\n      tag_122\n      jump\t// in\n    tag_180:\n        /* \"#utility.yul\":2407:2442   */\n      swap1\n      pop\n        /* \"#utility.yul\":2352:2448   */\n      swap2\n      swap1\n      pop\n      jump\t// out\n        /* \"#utility.yul\":2454:2572   */\n    tag_124:\n        /* \"#utility.yul\":2541:2565   */\n      tag_182\n        /* \"#utility.yul\":2559:2564   */\n      dup2\n        /* \"#utility.yul\":2541:2565   */\n      tag_123\n      jump\t// in\n    tag_182:\n        /* \"#utility.yul\":2536:2539   */\n      dup3\n        /* \"#utility.yul\":2529:2566   */\n      mstore\n        /* \"#utility.yul\":2454:2572   */\n      pop\n      pop\n      jump\t// out\n        /* \"#utility.yul\":2578:2668   */\n    tag_125:\n        /* \"#utility.yul\":2612:2619   */\n      0x00\n        /* \"#utility.yul\":2655:2660   */\n      dup2\n        /* \"#utility.yul\":2648:2661   */\n      iszero\n        /* \"#utility.yul\":2641:2662   */\n      iszero\n        /* \"#utility.yul\":2630:2662   */\n      swap1\n      pop\n        /* \"#utility.yul\":2578:2668   */\n      swap2\n      swap1\n      pop\n      jump\t// out\n        /* \"#utility.yul\":2674:2783   */\n    tag_126:\n        /* \"#utility.yul\":2755:2776   */\n      tag_185\n        /* \"#utility.yul\":2770:2775   */\n      dup2\n        /* \"#utility.yul\":2755:2776   */\n      tag_125\n      jump\t// in\n    tag_185:\n        /* \"#utility.yul\":2750:2753   */\n      dup3\n        /* \"#utility.yul\":2743:2777   */\n      mstore\n        /* \"#utility.yul\":2674:2783   */\n      pop\n      pop\n      jump\t// out\n        /* \"#utility.yul\":2789:3532   */\n    tag_19:\n        /* \"#utility.yul\":3008:3012   */\n      0x00\n        /* \"#utility.yul\":3046:3049   */\n      0xa0\n        /* \"#utility.yul\":3035:3044   */\n      dup3\n        /* \"#utility.yul\":3031:3050   */\n      add\n        /* \"#utility.yul\":3023:3050   */\n      swap1\n      pop\n        /* \"#utility.yul\":3096:3105   */\n      dup2\n        /* \"#utility.yul\":3090:3094   */\n      dup2\n        /* \"#utility.yul\":3086:3106   */\n      sub\n        /* \"#utility.yul\":3082:3083   */\n      0x00\n        /* \"#utility.yul\":3071:3080   */\n      dup4\n        /* \"#utility.yul\":3067:3084   */\n      add\n        /* \"#utility.yul\":3060:3107   */\n      mstore\n        /* \"#utility.yul\":3124:3202   */\n      tag_187\n        /* \"#utility.yul\":3197:3201   */\n      dup2\n        /* \"#utility.yul\":3188:3194   */\n      dup9\n        /* \"#utility.yul\":3124:3202   */\n      tag_120\n      jump\t// in\n    tag_187:\n        /* \"#utility.yul\":3116:3202   */\n      swap1\n      pop\n        /* \"#utility.yul\":3212:3284   */\n      tag_188\n        /* \"#utility.yul\":3280:3282   */\n      0x20\n        /* \"#utility.yul\":3269:3278   */\n      dup4\n        /* \"#utility.yul\":3265:3283   */\n      add\n        /* \"#utility.yul\":3256:3262   */\n      dup8\n        /* \"#utility.yul\":3212:3284   */\n      tag_121\n      jump\t// in\n    tag_188:\n        /* \"#utility.yul\":3294:3366   */\n      tag_189\n        /* \"#utility.yul\":3362:3364   */\n      0x40\n        /* \"#utility.yul\":3351:3360   */\n      dup4\n        /* \"#utility.yul\":3347:3365   */\n      add\n        /* \"#utility.yul\":3338:3344   */\n      dup7\n        /* \"#utility.yul\":3294:3366   */\n      tag_124\n      jump\t// in\n    tag_189:\n        /* \"#utility.yul\":3376:3442   */\n      tag_190\n        /* \"#utility.yul\":3438:3440   */\n      0x60\n        /* \"#utility.yul\":3427:3436   */\n      dup4\n        /* \"#utility.yul\":3423:3441   */\n      add\n        /* \"#utility.yul\":3414:3420   */\n      dup6\n        /* \"#utility.yul\":3376:3442   */\n      tag_126\n      jump\t// in\n    tag_190:\n        /* \"#utility.yul\":3452:3525   */\n      tag_191\n        /* \"#utility.yul\":3520:3523   */\n      0x80\n        /* \"#utility.yul\":3509:3518   */\n      dup4\n        /* \"#utility.yul\":3505:3524   */\n      add\n        /* \"#utility.yul\":3496:3502   */\n      dup5\n        /* \"#utility.yul\":3452:3525   */\n      tag_121\n      jump\t// in\n    tag_191:\n        /* \"#utility.yul\":2789:3532   */\n      swap7\n      swap6\n      pop\n      pop\n      pop\n      pop\n      pop\n      pop\n      jump\t// out\n        /* \"#utility.yul\":3538:3660   */\n    tag_127:\n        /* \"#utility.yul\":3611:3635   */\n      tag_193\n        /* \"#utility.yul\":3629:3634   */\n      dup2\n        /* \"#utility.yul\":3611:3635   */\n      tag_123\n      jump\t// in\n    tag_193:\n        /* \"#utility.yul\":3604:3609   */\n      dup2\n        /* \"#utility.yul\":3601:3636   */\n      eq\n        /* \"#utility.yul\":3591:3654   */\n      tag_194\n      jumpi\n        /* \"#utility.yul\":3650:3651   */\n      0x00\n        /* \"#utility.yul\":3647:3648   */\n      dup1\n        /* \"#utility.yul\":3640:3652   */\n      revert\n        /* \"#utility.yul\":3591:3654   */\n    tag_194:\n        /* \"#utility.yul\":3538:3660   */\n      pop\n      jump\t// out\n        /* \"#utility.yul\":3666:3805   */\n    tag_128:\n        /* \"#utility.yul\":3712:3717   */\n      0x00\n        /* \"#utility.yul\":3750:3756   */\n      dup2\n        /* \"#utility.yul\":3737:3757   */\n      calldataload\n        /* \"#utility.yul\":3728:3757   */\n      swap1\n      pop\n        /* \"#utility.yul\":3766:3799   */\n      tag_196\n        /* \"#utility.yul\":3793:3798   */\n      dup2\n        /* \"#utility.yul\":3766:3799   */\n      tag_127\n      jump\t// in\n    tag_196:\n        /* \"#utility.yul\":3666:3805   */\n      swap3\n      swap2\n      pop\n      pop\n      jump\t// out\n        /* \"#utility.yul\":3811:4140   */\n    tag_27:\n        /* \"#utility.yul\":3870:3876   */\n      0x00\n        /* \"#utility.yul\":3919:3921   */\n      0x20\n        /* \"#utility.yul\":3907:3916   */\n      dup3\n        /* \"#utility.yul\":3898:3905   */\n      dup5\n        /* \"#utility.yul\":3894:3917   */\n      sub\n        /* \"#utility.yul\":3890:3922   */\n      slt\n        /* \"#utility.yul\":3887:4006   */\n      iszero\n      tag_198\n      jumpi\n        /* \"#utility.yul\":3925:4004   */\n      tag_199\n      tag_111\n      jump\t// in\n    tag_199:\n        /* \"#utility.yul\":3887:4006   */\n    tag_198:\n        /* \"#utility.yul\":4045:4046   */\n      0x00\n        /* \"#utility.yul\":4070:4123   */\n      tag_200\n        /* \"#utility.yul\":4115:4122   */\n      dup5\n        /* \"#utility.yul\":4106:4112   */\n      dup3\n        /* \"#utility.yul\":4095:4104   */\n      dup6\n        /* \"#utility.yul\":4091:4113   */\n      add\n        /* \"#utility.yul\":4070:4123   */\n      tag_128\n      jump\t// in\n    tag_200:\n        /* \"#utility.yul\":4060:4123   */\n      swap2\n      pop\n        /* \"#utility.yul\":4016:4133   */\n      pop\n        /* \"#utility.yul\":3811:4140   */\n      swap3\n      swap2\n      pop\n      pop\n      jump\t// out\n        /* \"#utility.yul\":4146:4356   */\n    tag_30:\n        /* \"#utility.yul\":4233:4237   */\n      0x00\n        /* \"#utility.yul\":4271:4273   */\n      0x20\n        /* \"#utility.yul\":4260:4269   */\n      dup3\n        /* \"#utility.yul\":4256:4274   */\n      add\n        /* \"#utility.yul\":4248:4274   */\n      swap1\n      pop\n        /* \"#utility.yul\":4284:4349   */\n      tag_202\n        /* \"#utility.yul\":4346:4347   */\n      0x00\n        /* \"#utility.yul\":4335:4344   */\n      dup4\n        /* \"#utility.yul\":4331:4348   */\n      add\n        /* \"#utility.yul\":4322:4328   */\n      dup5\n        /* \"#utility.yul\":4284:4349   */\n      tag_126\n      jump\t// in\n    tag_202:\n        /* \"#utility.yul\":4146:4356   */\n      swap3\n      swap2\n      pop\n      pop\n      jump\t// out\n        /* \"#utility.yul\":4362:4479   */\n    tag_129:\n        /* \"#utility.yul\":4471:4472   */\n      0x00\n        /* \"#utility.yul\":4468:4469   */\n      dup1\n        /* \"#utility.yul\":4461:4473   */\n      revert\n        /* \"#utility.yul\":4485:4602   */\n    tag_130:\n        /* \"#utility.yul\":4594:4595   */\n      0x00\n        /* \"#utility.yul\":4591:4592   */\n      dup1\n        /* \"#utility.yul\":4584:4596   */\n      revert\n        /* \"#utility.yul\":4608:4788   */\n    tag_131:\n        /* \"#utility.yul\":4656:4733   */\n      0x4e487b7100000000000000000000000000000000000000000000000000000000\n        /* \"#utility.yul\":4653:4654   */\n      0x00\n        /* \"#utility.yul\":4646:4734   */\n      mstore\n        /* \"#utility.yul\":4753:4757   */\n      0x41\n        /* \"#utility.yul\":4750:4751   */\n      0x04\n        /* \"#utility.yul\":4743:4758   */\n      mstore\n        /* \"#utility.yul\":4777:4781   */\n      0x24\n        /* \"#utility.yul\":4774:4775   */\n      0x00\n        /* \"#utility.yul\":4767:4782   */\n      revert\n        /* \"#utility.yul\":4794:5075   */\n    tag_132:\n        /* \"#utility.yul\":4877:4904   */\n      tag_207\n        /* \"#utility.yul\":4899:4903   */\n      dup3\n        /* \"#utility.yul\":4877:4904   */\n      tag_119\n      jump\t// in\n    tag_207:\n        /* \"#utility.yul\":4869:4875   */\n      dup2\n        /* \"#utility.yul\":4865:4905   */\n      add\n        /* \"#utility.yul\":5007:5013   */\n      dup2\n        /* \"#utility.yul\":4995:5005   */\n      dup2\n        /* \"#utility.yul\":4992:5014   */\n      lt\n        /* \"#utility.yul\":4971:4989   */\n      0xffffffffffffffff\n        /* \"#utility.yul\":4959:4969   */\n      dup3\n        /* \"#utility.yul\":4956:4990   */\n      gt\n        /* \"#utility.yul\":4953:5015   */\n      or\n        /* \"#utility.yul\":4950:5038   */\n      iszero\n      tag_208\n      jumpi\n        /* \"#utility.yul\":5018:5036   */\n      tag_209\n      tag_131\n      jump\t// in\n    tag_209:\n        /* \"#utility.yul\":4950:5038   */\n    tag_208:\n        /* \"#utility.yul\":5058:5068   */\n      dup1\n        /* \"#utility.yul\":5054:5056   */\n      0x40\n        /* \"#utility.yul\":5047:5069   */\n      mstore\n        /* \"#utility.yul\":4837:5075   */\n      pop\n        /* \"#utility.yul\":4794:5075   */\n      pop\n      pop\n      jump\t// out\n        /* \"#utility.yul\":5081:5210   */\n    tag_133:\n        /* \"#utility.yul\":5115:5121   */\n      0x00\n        /* \"#utility.yul\":5142:5162   */\n      tag_211\n      tag_110\n      jump\t// in\n    tag_211:\n        /* \"#utility.yul\":5132:5162   */\n      swap1\n      pop\n        /* \"#utility.yul\":5171:5204   */\n      tag_212\n        /* \"#utility.yul\":5199:5203   */\n      dup3\n        /* \"#utility.yul\":5191:5197   */\n      dup3\n        /* \"#utility.yul\":5171:5204   */\n      tag_132\n      jump\t// in\n    tag_212:\n        /* \"#utility.yul\":5081:5210   */\n      swap2\n      swap1\n      pop\n      jump\t// out\n        /* \"#utility.yul\":5216:5524   */\n    tag_134:\n        /* \"#utility.yul\":5278:5282   */\n      0x00\n        /* \"#utility.yul\":5368:5386   */\n      0xffffffffffffffff\n        /* \"#utility.yul\":5360:5366   */\n      dup3\n        /* \"#utility.yul\":5357:5387   */\n      gt\n        /* \"#utility.yul\":5354:5410   */\n      iszero\n      tag_214\n      jumpi\n        /* \"#utility.yul\":5390:5408   */\n      tag_215\n      tag_131\n      jump\t// in\n    tag_215:\n        /* \"#utility.yul\":5354:5410   */\n    tag_214:\n        /* \"#utility.yul\":5428:5457   */\n      tag_216\n        /* \"#utility.yul\":5450:5456   */\n      dup3\n        /* \"#utility.yul\":5428:5457   */\n      tag_119\n      jump\t// in\n    tag_216:\n        /* \"#utility.yul\":5420:5457   */\n      swap1\n      pop\n        /* \"#utility.yul\":5512:5516   */\n      0x20\n        /* \"#utility.yul\":5506:5510   */\n      dup2\n        /* \"#utility.yul\":5502:5517   */\n      add\n        /* \"#utility.yul\":5494:5517   */\n      swap1\n      pop\n        /* \"#utility.yul\":5216:5524   */\n      swap2\n      swap1\n      pop\n      jump\t// out\n        /* \"#utility.yul\":5530:5684   */\n    tag_135:\n        /* \"#utility.yul\":5614:5620   */\n      dup3\n        /* \"#utility.yul\":5609:5612   */\n      dup2\n        /* \"#utility.yul\":5604:5607   */\n      dup4\n        /* \"#utility.yul\":5591:5621   */\n      calldatacopy\n        /* \"#utility.yul\":5676:5677   */\n      0x00\n        /* \"#utility.yul\":5667:5673   */\n      dup4\n        /* \"#utility.yul\":5662:5665   */\n      dup4\n        /* \"#utility.yul\":5658:5674   */\n      add\n        /* \"#utility.yul\":5651:5678   */\n      mstore\n        /* \"#utility.yul\":5530:5684   */\n      pop\n      pop\n      pop\n      jump\t// out\n        /* \"#utility.yul\":5690:6102   */\n    tag_136:\n        /* \"#utility.yul\":5768:5773   */\n      0x00\n        /* \"#utility.yul\":5793:5859   */\n      tag_219\n        /* \"#utility.yul\":5809:5858   */\n      tag_220\n        /* \"#utility.yul\":5851:5857   */\n      dup5\n        /* \"#utility.yul\":5809:5858   */\n      tag_134\n      jump\t// in\n    tag_220:\n        /* \"#utility.yul\":5793:5859   */\n      tag_133\n      jump\t// in\n    tag_219:\n        /* \"#utility.yul\":5784:5859   */\n      swap1\n      pop\n        /* \"#utility.yul\":5882:5888   */\n      dup3\n        /* \"#utility.yul\":5875:5880   */\n      dup2\n        /* \"#utility.yul\":5868:5889   */\n      mstore\n        /* \"#utility.yul\":5920:5924   */\n      0x20\n        /* \"#utility.yul\":5913:5918   */\n      dup2\n        /* \"#utility.yul\":5909:5925   */\n      add\n        /* \"#utility.yul\":5958:5961   */\n      dup5\n        /* \"#utility.yul\":5949:5955   */\n      dup5\n        /* \"#utility.yul\":5944:5947   */\n      dup5\n        /* \"#utility.yul\":5940:5956   */\n      add\n        /* \"#utility.yul\":5937:5962   */\n      gt\n        /* \"#utility.yul\":5934:6046   */\n      iszero\n      tag_221\n      jumpi\n        /* \"#utility.yul\":5965:6044   */\n      tag_222\n      tag_130\n      jump\t// in\n    tag_222:\n        /* \"#utility.yul\":5934:6046   */\n    tag_221:\n        /* \"#utility.yul\":6055:6096   */\n      tag_223\n        /* \"#utility.yul\":6089:6095   */\n      dup5\n        /* \"#utility.yul\":6084:6087   */\n      dup3\n        /* \"#utility.yul\":6079:6082   */\n      dup6\n        /* \"#utility.yul\":6055:6096   */\n      tag_135\n      jump\t// in\n    tag_223:\n        /* \"#utility.yul\":5774:6102   */\n      pop\n        /* \"#utility.yul\":5690:6102   */\n      swap4\n      swap3\n      pop\n      pop\n      pop\n      jump\t// out\n        /* \"#utility.yul\":6122:6462   */\n    tag_137:\n        /* \"#utility.yul\":6178:6183   */\n      0x00\n        /* \"#utility.yul\":6227:6230   */\n      dup3\n        /* \"#utility.yul\":6220:6224   */\n      0x1f\n        /* \"#utility.yul\":6212:6218   */\n      dup4\n        /* \"#utility.yul\":6208:6225   */\n      add\n        /* \"#utility.yul\":6204:6231   */\n      slt\n        /* \"#utility.yul\":6194:6316   */\n      tag_225\n      jumpi\n        /* \"#utility.yul\":6235:6314   */\n      tag_226\n      tag_129\n      jump\t// in\n    tag_226:\n        /* \"#utility.yul\":6194:6316   */\n    tag_225:\n        /* \"#utility.yul\":6352:6358   */\n      dup2\n        /* \"#utility.yul\":6339:6359   */\n      calldataload\n        /* \"#utility.yul\":6377:6456   */\n      tag_227\n        /* \"#utility.yul\":6452:6455   */\n      dup5\n        /* \"#utility.yul\":6444:6450   */\n      dup3\n        /* \"#utility.yul\":6437:6441   */\n      0x20\n        /* \"#utility.yul\":6429:6435   */\n      dup7\n        /* \"#utility.yul\":6425:6442   */\n      add\n        /* \"#utility.yul\":6377:6456   */\n      tag_136\n      jump\t// in\n    tag_227:\n        /* \"#utility.yul\":6368:6456   */\n      swap2\n      pop\n        /* \"#utility.yul\":6184:6462   */\n      pop\n        /* \"#utility.yul\":6122:6462   */\n      swap3\n      swap2\n      pop\n      pop\n      jump\t// out\n        /* \"#utility.yul\":6468:6584   */\n    tag_138:\n        /* \"#utility.yul\":6538:6559   */\n      tag_229\n        /* \"#utility.yul\":6553:6558   */\n      dup2\n        /* \"#utility.yul\":6538:6559   */\n      tag_125\n      jump\t// in\n    tag_229:\n        /* \"#utility.yul\":6531:6536   */\n      dup2\n        /* \"#utility.yul\":6528:6560   */\n      eq\n        /* \"#utility.yul\":6518:6578   */\n      tag_230\n      jumpi\n        /* \"#utility.yul\":6574:6575   */\n      0x00\n        /* \"#utility.yul\":6571:6572   */\n      dup1\n        /* \"#utility.yul\":6564:6576   */\n      revert\n        /* \"#utility.yul\":6518:6578   */\n    tag_230:\n        /* \"#utility.yul\":6468:6584   */\n      pop\n      jump\t// out\n        /* \"#utility.yul\":6590:6723   */\n    tag_139:\n        /* \"#utility.yul\":6633:6638   */\n      0x00\n        /* \"#utility.yul\":6671:6677   */\n      dup2\n        /* \"#utility.yul\":6658:6678   */\n      calldataload\n        /* \"#utility.yul\":6649:6678   */\n      swap1\n      pop\n        /* \"#utility.yul\":6687:6717   */\n      tag_232\n        /* \"#utility.yul\":6711:6716   */\n      dup2\n        /* \"#utility.yul\":6687:6717   */\n      tag_138\n      jump\t// in\n    tag_232:\n        /* \"#utility.yul\":6590:6723   */\n      swap3\n      swap2\n      pop\n      pop\n      jump\t// out\n        /* \"#utility.yul\":6729:7668   */\n    tag_34:\n        /* \"#utility.yul\":6822:6828   */\n      0x00\n        /* \"#utility.yul\":6830:6836   */\n      dup1\n        /* \"#utility.yul\":6838:6844   */\n      0x00\n        /* \"#utility.yul\":6846:6852   */\n      dup1\n        /* \"#utility.yul\":6895:6898   */\n      0x80\n        /* \"#utility.yul\":6883:6892   */\n      dup6\n        /* \"#utility.yul\":6874:6881   */\n      dup8\n        /* \"#utility.yul\":6870:6893   */\n      sub\n        /* \"#utility.yul\":6866:6899   */\n      slt\n        /* \"#utility.yul\":6863:6983   */\n      iszero\n      tag_234\n      jumpi\n        /* \"#utility.yul\":6902:6981   */\n      tag_235\n      tag_111\n      jump\t// in\n    tag_235:\n        /* \"#utility.yul\":6863:6983   */\n    tag_234:\n        /* \"#utility.yul\":7050:7051   */\n      0x00\n        /* \"#utility.yul\":7039:7048   */\n      dup6\n        /* \"#utility.yul\":7035:7052   */\n      add\n        /* \"#utility.yul\":7022:7053   */\n      calldataload\n        /* \"#utility.yul\":7080:7098   */\n      0xffffffffffffffff\n        /* \"#utility.yul\":7072:7078   */\n      dup2\n        /* \"#utility.yul\":7069:7099   */\n      gt\n        /* \"#utility.yul\":7066:7183   */\n      iszero\n      tag_236\n      jumpi\n        /* \"#utility.yul\":7102:7181   */\n      tag_237\n      tag_112\n      jump\t// in\n    tag_237:\n        /* \"#utility.yul\":7066:7183   */\n    tag_236:\n        /* \"#utility.yul\":7207:7270   */\n      tag_238\n        /* \"#utility.yul\":7262:7269   */\n      dup8\n        /* \"#utility.yul\":7253:7259   */\n      dup3\n        /* \"#utility.yul\":7242:7251   */\n      dup9\n        /* \"#utility.yul\":7238:7260   */\n      add\n        /* \"#utility.yul\":7207:7270   */\n      tag_137\n      jump\t// in\n    tag_238:\n        /* \"#utility.yul\":7197:7270   */\n      swap5\n      pop\n        /* \"#utility.yul\":6993:7280   */\n      pop\n        /* \"#utility.yul\":7319:7321   */\n      0x20\n        /* \"#utility.yul\":7345:7398   */\n      tag_239\n        /* \"#utility.yul\":7390:7397   */\n      dup8\n        /* \"#utility.yul\":7381:7387   */\n      dup3\n        /* \"#utility.yul\":7370:7379   */\n      dup9\n        /* \"#utility.yul\":7366:7388   */\n      add\n        /* \"#utility.yul\":7345:7398   */\n      tag_115\n      jump\t// in\n    tag_239:\n        /* \"#utility.yul\":7335:7398   */\n      swap4\n      pop\n        /* \"#utility.yul\":7290:7408   */\n      pop\n        /* \"#utility.yul\":7447:7449   */\n      0x40\n        /* \"#utility.yul\":7473:7526   */\n      tag_240\n        /* \"#utility.yul\":7518:7525   */\n      dup8\n        /* \"#utility.yul\":7509:7515   */\n      dup3\n        /* \"#utility.yul\":7498:7507   */\n      dup9\n        /* \"#utility.yul\":7494:7516   */\n      add\n        /* \"#utility.yul\":7473:7526   */\n      tag_128\n      jump\t// in\n    tag_240:\n        /* \"#utility.yul\":7463:7526   */\n      swap3\n      pop\n        /* \"#utility.yul\":7418:7536   */\n      pop\n        /* \"#utility.yul\":7575:7577   */\n      0x60\n        /* \"#utility.yul\":7601:7651   */\n      tag_241\n        /* \"#utility.yul\":7643:7650   */\n      dup8\n        /* \"#utility.yul\":7634:7640   */\n      dup3\n        /* \"#utility.yul\":7623:7632   */\n      dup9\n        /* \"#utility.yul\":7619:7641   */\n      add\n        /* \"#utility.yul\":7601:7651   */\n      tag_139\n      jump\t// in\n    tag_241:\n        /* \"#utility.yul\":7591:7651   */\n      swap2\n      pop\n        /* \"#utility.yul\":7546:7661   */\n      pop\n        /* \"#utility.yul\":6729:7668   */\n      swap3\n      swap6\n      swap2\n      swap5\n      pop\n      swap3\n      pop\n      jump\t// out\n        /* \"#utility.yul\":7674:7896   */\n    tag_40:\n        /* \"#utility.yul\":7767:7771   */\n      0x00\n        /* \"#utility.yul\":7805:7807   */\n      0x20\n        /* \"#utility.yul\":7794:7803   */\n      dup3\n        /* \"#utility.yul\":7790:7808   */\n      add\n        /* \"#utility.yul\":7782:7808   */\n      swap1\n      pop\n        /* \"#utility.yul\":7818:7889   */\n      tag_243\n        /* \"#utility.yul\":7886:7887   */\n      0x00\n        /* \"#utility.yul\":7875:7884   */\n      dup4\n        /* \"#utility.yul\":7871:7888   */\n      add\n        /* \"#utility.yul\":7862:7868   */\n      dup5\n        /* \"#utility.yul\":7818:7889   */\n      tag_124\n      jump\t// in\n    tag_243:\n        /* \"#utility.yul\":7674:7896   */\n      swap3\n      swap2\n      pop\n      pop\n      jump\t// out\n        /* \"#utility.yul\":7902:8124   */\n    tag_45:\n        /* \"#utility.yul\":7995:7999   */\n      0x00\n        /* \"#utility.yul\":8033:8035   */\n      0x20\n        /* \"#utility.yul\":8022:8031   */\n      dup3\n        /* \"#utility.yul\":8018:8036   */\n      add\n        /* \"#utility.yul\":8010:8036   */\n      swap1\n      pop\n        /* \"#utility.yul\":8046:8117   */\n      tag_245\n        /* \"#utility.yul\":8114:8115   */\n      0x00\n        /* \"#utility.yul\":8103:8112   */\n      dup4\n        /* \"#utility.yul\":8099:8116   */\n      add\n        /* \"#utility.yul\":8090:8096   */\n      dup5\n        /* \"#utility.yul\":8046:8117   */\n      tag_121\n      jump\t// in\n    tag_245:\n        /* \"#utility.yul\":7902:8124   */\n      swap3\n      swap2\n      pop\n      pop\n      jump\t// out\n        /* \"#utility.yul\":8130:8310   */\n    tag_140:\n        /* \"#utility.yul\":8178:8255   */\n      0x4e487b7100000000000000000000000000000000000000000000000000000000\n        /* \"#utility.yul\":8175:8176   */\n      0x00\n        /* \"#utility.yul\":8168:8256   */\n      mstore\n        /* \"#utility.yul\":8275:8279   */\n      0x22\n        /* \"#utility.yul\":8272:8273   */\n      0x04\n        /* \"#utility.yul\":8265:8280   */\n      mstore\n        /* \"#utility.yul\":8299:8303   */\n      0x24\n        /* \"#utility.yul\":8296:8297   */\n      0x00\n        /* \"#utility.yul\":8289:8304   */\n      revert\n        /* \"#utility.yul\":8316:8636   */\n    tag_61:\n        /* \"#utility.yul\":8360:8366   */\n      0x00\n        /* \"#utility.yul\":8397:8398   */\n      0x02\n        /* \"#utility.yul\":8391:8395   */\n      dup3\n        /* \"#utility.yul\":8387:8399   */\n      div\n        /* \"#utility.yul\":8377:8399   */\n      swap1\n      pop\n        /* \"#utility.yul\":8444:8445   */\n      0x01\n        /* \"#utility.yul\":8438:8442   */\n      dup3\n        /* \"#utility.yul\":8434:8446   */\n      and\n        /* \"#utility.yul\":8465:8483   */\n      dup1\n        /* \"#utility.yul\":8455:8536   */\n      tag_248\n      jumpi\n        /* \"#utility.yul\":8521:8525   */\n      0x7f\n        /* \"#utility.yul\":8513:8519   */\n      dup3\n        /* \"#utility.yul\":8509:8526   */\n      and\n        /* \"#utility.yul\":8499:8526   */\n      swap2\n      pop\n        /* \"#utility.yul\":8455:8536   */\n    tag_248:\n        /* \"#utility.yul\":8583:8585   */\n      0x20\n        /* \"#utility.yul\":8575:8581   */\n      dup3\n        /* \"#utility.yul\":8572:8586   */\n      lt\n        /* \"#utility.yul\":8552:8570   */\n      dup2\n        /* \"#utility.yul\":8549:8587   */\n      eq\n        /* \"#utility.yul\":8546:8630   */\n      iszero\n      tag_249\n      jumpi\n        /* \"#utility.yul\":8602:8620   */\n      tag_250\n      tag_140\n      jump\t// in\n    tag_250:\n        /* \"#utility.yul\":8546:8630   */\n    tag_249:\n        /* \"#utility.yul\":8367:8636   */\n      pop\n        /* \"#utility.yul\":8316:8636   */\n      swap2\n      swap1\n      pop\n      jump\t// out\n        /* \"#utility.yul\":8642:8875   */\n    tag_141:\n        /* \"#utility.yul\":8782:8816   */\n      0x596f7520617265206e6f7420617574686f697a656420746f2065786563757465\n        /* \"#utility.yul\":8778:8779   */\n      0x00\n        /* \"#utility.yul\":8770:8776   */\n      dup3\n        /* \"#utility.yul\":8766:8780   */\n      add\n        /* \"#utility.yul\":8759:8817   */\n      mstore\n        /* \"#utility.yul\":8851:8867   */\n      0x20746869732066756e6374696f6e000000000000000000000000000000000000\n        /* \"#utility.yul\":8846:8848   */\n      0x20\n        /* \"#utility.yul\":8838:8844   */\n      dup3\n        /* \"#utility.yul\":8834:8849   */\n      add\n        /* \"#utility.yul\":8827:8868   */\n      mstore\n        /* \"#utility.yul\":8642:8875   */\n      pop\n      jump\t// out\n        /* \"#utility.yul\":8881:9247   */\n    tag_142:\n        /* \"#utility.yul\":9023:9026   */\n      0x00\n        /* \"#utility.yul\":9044:9111   */\n      tag_253\n        /* \"#utility.yul\":9108:9110   */\n      0x2e\n        /* \"#utility.yul\":9103:9106   */\n      dup4\n        /* \"#utility.yul\":9044:9111   */\n      tag_117\n      jump\t// in\n    tag_253:\n        /* \"#utility.yul\":9037:9111   */\n      swap2\n      pop\n        /* \"#utility.yul\":9120:9213   */\n      tag_254\n        /* \"#utility.yul\":9209:9212   */\n      dup3\n        /* \"#utility.yul\":9120:9213   */\n      tag_141\n      jump\t// in\n    tag_254:\n        /* \"#utility.yul\":9238:9240   */\n      0x40\n        /* \"#utility.yul\":9233:9236   */\n      dup3\n        /* \"#utility.yul\":9229:9241   */\n      add\n        /* \"#utility.yul\":9222:9241   */\n      swap1\n      pop\n        /* \"#utility.yul\":8881:9247   */\n      swap2\n      swap1\n      pop\n      jump\t// out\n        /* \"#utility.yul\":9253:9672   */\n    tag_69:\n        /* \"#utility.yul\":9419:9423   */\n      0x00\n        /* \"#utility.yul\":9457:9459   */\n      0x20\n        /* \"#utility.yul\":9446:9455   */\n      dup3\n        /* \"#utility.yul\":9442:9460   */\n      add\n        /* \"#utility.yul\":9434:9460   */\n      swap1\n      pop\n        /* \"#utility.yul\":9506:9515   */\n      dup2\n        /* \"#utility.yul\":9500:9504   */\n      dup2\n        /* \"#utility.yul\":9496:9516   */\n      sub\n        /* \"#utility.yul\":9492:9493   */\n      0x00\n        /* \"#utility.yul\":9481:9490   */\n      dup4\n        /* \"#utility.yul\":9477:9494   */\n      add\n        /* \"#utility.yul\":9470:9517   */\n      mstore\n        /* \"#utility.yul\":9534:9665   */\n      tag_256\n        /* \"#utility.yul\":9660:9664   */\n      dup2\n        /* \"#utility.yul\":9534:9665   */\n      tag_142\n      jump\t// in\n    tag_256:\n        /* \"#utility.yul\":9526:9665   */\n      swap1\n      pop\n        /* \"#utility.yul\":9253:9672   */\n      swap2\n      swap1\n      pop\n      jump\t// out\n        /* \"#utility.yul\":9678:9858   */\n    tag_143:\n        /* \"#utility.yul\":9726:9803   */\n      0x4e487b7100000000000000000000000000000000000000000000000000000000\n        /* \"#utility.yul\":9723:9724   */\n      0x00\n        /* \"#utility.yul\":9716:9804   */\n      mstore\n        /* \"#utility.yul\":9823:9827   */\n      0x12\n        /* \"#utility.yul\":9820:9821   */\n      0x04\n        /* \"#utility.yul\":9813:9828   */\n      mstore\n        /* \"#utility.yul\":9847:9851   */\n      0x24\n        /* \"#utility.yul\":9844:9845   */\n      0x00\n        /* \"#utility.yul\":9837:9852   */\n      revert\n        /* \"#utility.yul\":9864:10044   */\n    tag_144:\n        /* \"#utility.yul\":9912:9989   */\n      0x4e487b7100000000000000000000000000000000000000000000000000000000\n        /* \"#utility.yul\":9909:9910   */\n      0x00\n        /* \"#utility.yul\":9902:9990   */\n      mstore\n        /* \"#utility.yul\":10009:10013   */\n      0x11\n        /* \"#utility.yul\":10006:10007   */\n      0x04\n        /* \"#utility.yul\":9999:10014   */\n      mstore\n        /* \"#utility.yul\":10033:10037   */\n      0x24\n        /* \"#utility.yul\":10030:10031   */\n      0x00\n        /* \"#utility.yul\":10023:10038   */\n      revert\n        /* \"#utility.yul\":10050:10235   */\n    tag_74:\n        /* \"#utility.yul\":10090:10091   */\n      0x00\n        /* \"#utility.yul\":10107:10127   */\n      tag_260\n        /* \"#utility.yul\":10125:10126   */\n      dup3\n        /* \"#utility.yul\":10107:10127   */\n      tag_113\n      jump\t// in\n    tag_260:\n        /* \"#utility.yul\":10102:10127   */\n      swap2\n      pop\n        /* \"#utility.yul\":10141:10161   */\n      tag_261\n        /* \"#utility.yul\":10159:10160   */\n      dup4\n        /* \"#utility.yul\":10141:10161   */\n      tag_113\n      jump\t// in\n    tag_261:\n        /* \"#utility.yul\":10136:10161   */\n      swap3\n      pop\n        /* \"#utility.yul\":10180:10181   */\n      dup3\n        /* \"#utility.yul\":10170:10205   */\n      tag_262\n      jumpi\n        /* \"#utility.yul\":10185:10203   */\n      tag_263\n      tag_143\n      jump\t// in\n    tag_263:\n        /* \"#utility.yul\":10170:10205   */\n    tag_262:\n        /* \"#utility.yul\":10227:10228   */\n      dup3\n        /* \"#utility.yul\":10224:10225   */\n      dup3\n        /* \"#utility.yul\":10220:10229   */\n      div\n        /* \"#utility.yul\":10215:10229   */\n      swap1\n      pop\n        /* \"#utility.yul\":10050:10235   */\n      swap3\n      swap2\n      pop\n      pop\n      jump\t// out\n        /* \"#utility.yul\":10241:10474   */\n    tag_86:\n        /* \"#utility.yul\":10280:10283   */\n      0x00\n        /* \"#utility.yul\":10303:10327   */\n      tag_265\n        /* \"#utility.yul\":10321:10326   */\n      dup3\n        /* \"#utility.yul\":10303:10327   */\n      tag_113\n      jump\t// in\n    tag_265:\n        /* \"#utility.yul\":10294:10327   */\n      swap2\n      pop\n        /* \"#utility.yul\":10349:10415   */\n      0xffffffffffffffffffffffffffffffffffffffffffffffffffffffffffffffff\n        /* \"#utility.yul\":10342:10347   */\n      dup3\n        /* \"#utility.yul\":10339:10416   */\n      eq\n        /* \"#utility.yul\":10336:10439   */\n      iszero\n      tag_266\n      jumpi\n        /* \"#utility.yul\":10419:10437   */\n      tag_267\n      tag_144\n      jump\t// in\n    tag_267:\n        /* \"#utility.yul\":10336:10439   */\n    tag_266:\n        /* \"#utility.yul\":10466:10467   */\n      0x01\n        /* \"#utility.yul\":10459:10464   */\n      dup3\n        /* \"#utility.yul\":10455:10468   */\n      add\n        /* \"#utility.yul\":10448:10468   */\n      swap1\n      pop\n        /* \"#utility.yul\":10241:10474   */\n      swap2\n      swap1\n      pop\n      jump\t// out\n        /* \"#utility.yul\":10480:10658   */\n    tag_145:\n        /* \"#utility.yul\":10620:10650   */\n      0x4e6577205265717565737420686173206265656e206372656174656400000000\n        /* \"#utility.yul\":10616:10617   */\n      0x00\n        /* \"#utility.yul\":10608:10614   */\n      dup3\n        /* \"#utility.yul\":10604:10618   */\n      add\n        /* \"#utility.yul\":10597:10651   */\n      mstore\n        /* \"#utility.yul\":10480:10658   */\n      pop\n      jump\t// out\n        /* \"#utility.yul\":10664:11030   */\n    tag_146:\n        /* \"#utility.yul\":10806:10809   */\n      0x00\n        /* \"#utility.yul\":10827:10894   */\n      tag_270\n        /* \"#utility.yul\":10891:10893   */\n      0x1c\n        /* \"#utility.yul\":10886:10889   */\n      dup4\n        /* \"#utility.yul\":10827:10894   */\n      tag_117\n      jump\t// in\n    tag_270:\n        /* \"#utility.yul\":10820:10894   */\n      swap2\n      pop\n        /* \"#utility.yul\":10903:10996   */\n      tag_271\n        /* \"#utility.yul\":10992:10995   */\n      dup3\n        /* \"#utility.yul\":10903:10996   */\n      tag_145\n      jump\t// in\n    tag_271:\n        /* \"#utility.yul\":11021:11023   */\n      0x20\n        /* \"#utility.yul\":11016:11019   */\n      dup3\n        /* \"#utility.yul\":11012:11024   */\n      add\n        /* \"#utility.yul\":11005:11024   */\n      swap1\n      pop\n        /* \"#utility.yul\":10664:11030   */\n      swap2\n      swap1\n      pop\n      jump\t// out\n        /* \"#utility.yul\":11036:11455   */\n    tag_88:\n        /* \"#utility.yul\":11202:11206   */\n      0x00\n        /* \"#utility.yul\":11240:11242   */\n      0x20\n        /* \"#utility.yul\":11229:11238   */\n      dup3\n        /* \"#utility.yul\":11225:11243   */\n      add\n        /* \"#utility.yul\":11217:11243   */\n      swap1\n      pop\n        /* \"#utility.yul\":11289:11298   */\n      dup2\n        /* \"#utility.yul\":11283:11287   */\n      dup2\n        /* \"#utility.yul\":11279:11299   */\n      sub\n        /* \"#utility.yul\":11275:11276   */\n      0x00\n        /* \"#utility.yul\":11264:11273   */\n      dup4\n        /* \"#utility.yul\":11260:11277   */\n      add\n        /* \"#utility.yul\":11253:11300   */\n      mstore\n        /* \"#utility.yul\":11317:11448   */\n      tag_273\n        /* \"#utility.yul\":11443:11447   */\n      dup2\n        /* \"#utility.yul\":11317:11448   */\n      tag_146\n      jump\t// in\n    tag_273:\n        /* \"#utility.yul\":11309:11448   */\n      swap1\n      pop\n        /* \"#utility.yul\":11036:11455   */\n      swap2\n      swap1\n      pop\n      jump\t// out\n        /* \"#utility.yul\":11461:11704   */\n    tag_147:\n        /* \"#utility.yul\":11601:11635   */\n      0x596f7520617265206e6f7420636f6e747269627574696e6720746865206d696e\n        /* \"#utility.yul\":11597:11598   */\n      0x00\n        /* \"#utility.yul\":11589:11595   */\n      dup3\n        /* \"#utility.yul\":11585:11599   */\n      add\n        /* \"#utility.yul\":11578:11636   */\n      mstore\n        /* \"#utility.yul\":11670:11696   */\n      0x696d756d20616d6f756e742072657175697265642e2e2e210000000000000000\n        /* \"#utility.yul\":11665:11667   */\n      0x20\n        /* \"#utility.yul\":11657:11663   */\n      dup3\n        /* \"#utility.yul\":11653:11668   */\n      add\n        /* \"#utility.yul\":11646:11697   */\n      mstore\n        /* \"#utility.yul\":11461:11704   */\n      pop\n      jump\t// out\n        /* \"#utility.yul\":11710:12076   */\n    tag_148:\n        /* \"#utility.yul\":11852:11855   */\n      0x00\n        /* \"#utility.yul\":11873:11940   */\n      tag_276\n        /* \"#utility.yul\":11937:11939   */\n      0x38\n        /* \"#utility.yul\":11932:11935   */\n      dup4\n        /* \"#utility.yul\":11873:11940   */\n      tag_117\n      jump\t// in\n    tag_276:\n        /* \"#utility.yul\":11866:11940   */\n      swap2\n      pop\n        /* \"#utility.yul\":11949:12042   */\n      tag_277\n        /* \"#utility.yul\":12038:12041   */\n      dup3\n        /* \"#utility.yul\":11949:12042   */\n      tag_147\n      jump\t// in\n    tag_277:\n        /* \"#utility.yul\":12067:12069   */\n      0x40\n        /* \"#utility.yul\":12062:12065   */\n      dup3\n        /* \"#utility.yul\":12058:12070   */\n      add\n        /* \"#utility.yul\":12051:12070   */\n      swap1\n      pop\n        /* \"#utility.yul\":11710:12076   */\n      swap2\n      swap1\n      pop\n      jump\t// out\n        /* \"#utility.yul\":12082:12501   */\n    tag_92:\n        /* \"#utility.yul\":12248:12252   */\n      0x00\n        /* \"#utility.yul\":12286:12288   */\n      0x20\n        /* \"#utility.yul\":12275:12284   */\n      dup3\n        /* \"#utility.yul\":12271:12289   */\n      add\n        /* \"#utility.yul\":12263:12289   */\n      swap1\n      pop\n        /* \"#utility.yul\":12335:12344   */\n      dup2\n        /* \"#utility.yul\":12329:12333   */\n      dup2\n        /* \"#utility.yul\":12325:12345   */\n      sub\n        /* \"#utility.yul\":12321:12322   */\n      0x00\n        /* \"#utility.yul\":12310:12319   */\n      dup4\n        /* \"#utility.yul\":12306:12323   */\n      add\n        /* \"#utility.yul\":12299:12346   */\n      mstore\n        /* \"#utility.yul\":12363:12494   */\n      tag_279\n        /* \"#utility.yul\":12489:12493   */\n      dup2\n        /* \"#utility.yul\":12363:12494   */\n      tag_148\n      jump\t// in\n    tag_279:\n        /* \"#utility.yul\":12355:12494   */\n      swap1\n      pop\n        /* \"#utility.yul\":12082:12501   */\n      swap2\n      swap1\n      pop\n      jump\t// out\n\n    auxdata: 0xa26469706673582212207cfbede8d5ffcddf961dd90d9a46db843386d4e79f2a4657c93a7172d24c538a64736f6c634300080b0033\n}\n","bytecode":{"linkReferences":{},"object":"60806040523480156200001157600080fd5b50604051620011f7380380620011f783398181016040528101906200003791906200012b565b806000806101000a81548173ffffffffffffffffffffffffffffffffffffffff021916908373ffffffffffffffffffffffffffffffffffffffff16021790555081600181905550505062000172565b600080fd5b6000819050919050565b620000a0816200008b565b8114620000ac57600080fd5b50565b600081519050620000c08162000095565b92915050565b600073ffffffffffffffffffffffffffffffffffffffff82169050919050565b6000620000f382620000c6565b9050919050565b6200010581620000e6565b81146200011157600080fd5b50565b6000815190506200012581620000fa565b92915050565b6000806040838503121562000145576200014462000086565b5b60006200015585828601620000af565b9250506020620001688582860162000114565b9150509250929050565b61107580620001826000396000f3fe6080604052600436106100915760003560e01c806382fde0931161005957806382fde09314610191578063937e09b1146101bc578063cf569977146101e7578063d7bb99ba14610212578063d7d1bbdb1461021c57610091565b806302e9d43b1461009657806303441006146100d75780630a14439114610100578063156964cb1461013d578063481c6a7514610166575b600080fd5b3480156100a257600080fd5b506100bd60048036038101906100b8919061095d565b610245565b6040516100ce959493929190610a8e565b60405180910390f35b3480156100e357600080fd5b506100fe60048036038101906100f9919061095d565b610330565b005b34801561010c57600080fd5b5061012760048036038101906101229190610b14565b61049f565b6040516101349190610b41565b60405180910390f35b34801561014957600080fd5b50610164600480360381019061015f9190610cbd565b6104bf565b005b34801561017257600080fd5b5061017b610645565b6040516101889190610d40565b60405180910390f35b34801561019d57600080fd5b506101a6610669565b6040516101b39190610d5b565b60405180910390f35b3480156101c857600080fd5b506101d161066f565b6040516101de9190610d5b565b60405180910390f35b3480156101f357600080fd5b506101fc610675565b6040516102099190610d5b565b60405180910390f35b61021a61067b565b005b34801561022857600080fd5b50610243600480360381019061023e919061095d565b610732565b005b600560205280600052604060002060009150905080600001805461026890610da5565b80601f016020809104026020016040519081016040528092919081815260200182805461029490610da5565b80156102e15780601f106102b6576101008083540402835291602001916102e1565b820191906000526020600020905b8154815290600101906020018083116102c457829003601f168201915b5050505050908060010154908060020160009054906101000a900473ffffffffffffffffffffffffffffffffffffffff16908060020160149054906101000a900460ff16908060030154905085565b60008054906101000a900473ffffffffffffffffffffffffffffffffffffffff1673ffffffffffffffffffffffffffffffffffffffff163373ffffffffffffffffffffffffffffffffffffffff16146103bd577fefc58067a22b5fc63c92f0d342a3ee86c200480e4a6601e495b7850cc5035dae6040516103b090610e49565b60405180910390a161049c565b60006005600083815260200190815260200160002090508060020160149054906101000a900460ff16156103f057600080fd5b60026003546103ff9190610ec7565b81600301541161040e57600080fd5b8060020160009054906101000a900473ffffffffffffffffffffffffffffffffffffffff1673ffffffffffffffffffffffffffffffffffffffff166108fc82600101549081150290604051600060405180830381858888f1935050505015801561047c573d6000803e3d6000fd5b5060018160020160146101000a81548160ff021916908315150217905550505b50565b60026020528060005260406000206000915054906101000a900460ff1681565b60008054906101000a900473ffffffffffffffffffffffffffffffffffffffff1673ffffffffffffffffffffffffffffffffffffffff163373ffffffffffffffffffffffffffffffffffffffff161461054c577fefc58067a22b5fc63c92f0d342a3ee86c200480e4a6601e495b7850cc5035dae60405161053f90610e49565b60405180910390a161063f565b600060056000600454815260200190815260200160002090508481600001908051906020019061057d929190610870565b50838160010181905550818160020160146101000a81548160ff021916908315150217905550828160020160006101000a81548173ffffffffffffffffffffffffffffffffffffffff021916908373ffffffffffffffffffffffffffffffffffffffff160217905550600081600301819055506004600081548092919061060390610ef8565b91905055507facfc64a01d363381b525be237b18171ca85cf20c6f60cd29f0e89872747a389060405161063590610f8d565b60405180910390a1505b50505050565b60008054906101000a900473ffffffffffffffffffffffffffffffffffffffff1681565b60035481565b60015481565b60045481565b6001543410156106bf577f14658362240bcbb2e554554a7365f37e8d4bbb376e8680a24fe02aeede504a956040516106b29061101f565b60405180910390a1610730565b6001600260003373ffffffffffffffffffffffffffffffffffffffff1673ffffffffffffffffffffffffffffffffffffffff16815260200190815260200160002060006101000a81548160ff0219169083151502179055506003600081548092919061072a90610ef8565b91905055505b565b6000600560008381526020019081526020016000209050600260003373ffffffffffffffffffffffffffffffffffffffff1673ffffffffffffffffffffffffffffffffffffffff16815260200190815260200160002060009054906101000a900460ff1661079f57600080fd5b8060040160003373ffffffffffffffffffffffffffffffffffffffff1673ffffffffffffffffffffffffffffffffffffffff16815260200190815260200160002060009054906101000a900460ff16156107f857600080fd5b60018160040160003373ffffffffffffffffffffffffffffffffffffffff1673ffffffffffffffffffffffffffffffffffffffff16815260200190815260200160002060006101000a81548160ff02191690831515021790555080600301600081548092919061086790610ef8565b91905055505050565b82805461087c90610da5565b90600052602060002090601f01602090048101928261089e57600085556108e5565b82601f106108b757805160ff19168380011785556108e5565b828001600101855582156108e5579182015b828111156108e45782518255916020019190600101906108c9565b5b5090506108f291906108f6565b5090565b5b8082111561090f5760008160009055506001016108f7565b5090565b6000604051905090565b600080fd5b600080fd5b6000819050919050565b61093a81610927565b811461094557600080fd5b50565b60008135905061095781610931565b92915050565b6000602082840312156109735761097261091d565b5b600061098184828501610948565b91505092915050565b600081519050919050565b600082825260208201905092915050565b60005b838110156109c45780820151818401526020810190506109a9565b838111156109d3576000848401525b50505050565b6000601f19601f8301169050919050565b60006109f58261098a565b6109ff8185610995565b9350610a0f8185602086016109a6565b610a18816109d9565b840191505092915050565b610a2c81610927565b82525050565b600073ffffffffffffffffffffffffffffffffffffffff82169050919050565b6000610a5d82610a32565b9050919050565b610a6d81610a52565b82525050565b60008115159050919050565b610a8881610a73565b82525050565b600060a0820190508181036000830152610aa881886109ea565b9050610ab76020830187610a23565b610ac46040830186610a64565b610ad16060830185610a7f565b610ade6080830184610a23565b9695505050505050565b610af181610a52565b8114610afc57600080fd5b50565b600081359050610b0e81610ae8565b92915050565b600060208284031215610b2a57610b2961091d565b5b6000610b3884828501610aff565b91505092915050565b6000602082019050610b566000830184610a7f565b92915050565b600080fd5b600080fd5b7f4e487b7100000000000000000000000000000000000000000000000000000000600052604160045260246000fd5b610b9e826109d9565b810181811067ffffffffffffffff82111715610bbd57610bbc610b66565b5b80604052505050565b6000610bd0610913565b9050610bdc8282610b95565b919050565b600067ffffffffffffffff821115610bfc57610bfb610b66565b5b610c05826109d9565b9050602081019050919050565b82818337600083830152505050565b6000610c34610c2f84610be1565b610bc6565b905082815260208101848484011115610c5057610c4f610b61565b5b610c5b848285610c12565b509392505050565b600082601f830112610c7857610c77610b5c565b5b8135610c88848260208601610c21565b91505092915050565b610c9a81610a73565b8114610ca557600080fd5b50565b600081359050610cb781610c91565b92915050565b60008060008060808587031215610cd757610cd661091d565b5b600085013567ffffffffffffffff811115610cf557610cf4610922565b5b610d0187828801610c63565b9450506020610d1287828801610948565b9350506040610d2387828801610aff565b9250506060610d3487828801610ca8565b91505092959194509250565b6000602082019050610d556000830184610a64565b92915050565b6000602082019050610d706000830184610a23565b92915050565b7f4e487b7100000000000000000000000000000000000000000000000000000000600052602260045260246000fd5b60006002820490506001821680610dbd57607f821691505b60208210811415610dd157610dd0610d76565b5b50919050565b7f596f7520617265206e6f7420617574686f697a656420746f206578656375746560008201527f20746869732066756e6374696f6e000000000000000000000000000000000000602082015250565b6000610e33602e83610995565b9150610e3e82610dd7565b604082019050919050565b60006020820190508181036000830152610e6281610e26565b9050919050565b7f4e487b7100000000000000000000000000000000000000000000000000000000600052601260045260246000fd5b7f4e487b7100000000000000000000000000000000000000000000000000000000600052601160045260246000fd5b6000610ed282610927565b9150610edd83610927565b925082610eed57610eec610e69565b5b828204905092915050565b6000610f0382610927565b91507fffffffffffffffffffffffffffffffffffffffffffffffffffffffffffffffff821415610f3657610f35610e98565b5b600182019050919050565b7f4e6577205265717565737420686173206265656e206372656174656400000000600082015250565b6000610f77601c83610995565b9150610f8282610f41565b602082019050919050565b60006020820190508181036000830152610fa681610f6a565b9050919050565b7f596f7520617265206e6f7420636f6e747269627574696e6720746865206d696e60008201527f696d756d20616d6f756e742072657175697265642e2e2e210000000000000000602082015250565b6000611009603883610995565b915061101482610fad565b604082019050919050565b6000602082019050818103600083015261103881610ffc565b905091905056fea26469706673582212207cfbede8d5ffcddf961dd90d9a46db843386d4e79f2a4657c93a7172d24c538a64736f6c634300080b0033","opcodes":"PUSH1 0x80 PUSH1 0x40 MSTORE CALLVALUE DUP1 ISZERO PUSH3 0x11 JUMPI PUSH1 0x0 DUP1 REVERT JUMPDEST POP PUSH1 0x40 MLOAD PUSH3 0x11F7 CODESIZE SUB DUP1 PUSH3 0x11F7 DUP4 CODECOPY DUP2 DUP2 ADD PUSH1 0x40 MSTORE DUP2 ADD SWAP1 PUSH3 0x37 SWAP2 SWAP1 PUSH3 0x12B JUMP JUMPDEST DUP1 PUSH1 0x0 DUP1 PUSH2 0x100 EXP DUP2 SLOAD DUP2 PUSH20 0xFFFFFFFFFFFFFFFFFFFFFFFFFFFFFFFFFFFFFFFF MUL NOT AND SWAP1 DUP4 PUSH20 0xFFFFFFFFFFFFFFFFFFFFFFFFFFFFFFFFFFFFFFFF AND MUL OR SWAP1 SSTORE POP DUP2 PUSH1 0x1 DUP2 SWAP1 SSTORE POP POP POP PUSH3 0x172 JUMP JUMPDEST PUSH1 0x0 DUP1 REVERT JUMPDEST PUSH1 0x0 DUP2 SWAP1 POP SWAP2 SWAP1 POP JUMP JUMPDEST PUSH3 0xA0 DUP2 PUSH3 0x8B JUMP JUMPDEST DUP2 EQ PUSH3 0xAC JUMPI PUSH1 0x0 DUP1 REVERT JUMPDEST POP JUMP JUMPDEST PUSH1 0x0 DUP2 MLOAD SWAP1 POP PUSH3 0xC0 DUP2 PUSH3 0x95 JUMP JUMPDEST SWAP3 SWAP2 POP POP JUMP JUMPDEST PUSH1 0x0 PUSH20 0xFFFFFFFFFFFFFFFFFFFFFFFFFFFFFFFFFFFFFFFF DUP3 AND SWAP1 POP SWAP2 SWAP1 POP JUMP JUMPDEST PUSH1 0x0 PUSH3 0xF3 DUP3 PUSH3 0xC6 JUMP JUMPDEST SWAP1 POP SWAP2 SWAP1 POP JUMP JUMPDEST PUSH3 0x105 DUP2 PUSH3 0xE6 JUMP JUMPDEST DUP2 EQ PUSH3 0x111 JUMPI PUSH1 0x0 DUP1 REVERT JUMPDEST POP JUMP JUMPDEST PUSH1 0x0 DUP2 MLOAD SWAP1 POP PUSH3 0x125 DUP2 PUSH3 0xFA JUMP JUMPDEST SWAP3 SWAP2 POP POP JUMP JUMPDEST PUSH1 0x0 DUP1 PUSH1 0x40 DUP4 DUP6 SUB SLT ISZERO PUSH3 0x145 JUMPI PUSH3 0x144 PUSH3 0x86 JUMP JUMPDEST JUMPDEST PUSH1 0x0 PUSH3 0x155 DUP6 DUP3 DUP7 ADD PUSH3 0xAF JUMP JUMPDEST SWAP3 POP POP PUSH1 0x20 PUSH3 0x168 DUP6 DUP3 DUP7 ADD PUSH3 0x114 JUMP JUMPDEST SWAP2 POP POP SWAP3 POP SWAP3 SWAP1 POP JUMP JUMPDEST PUSH2 0x1075 DUP1 PUSH3 0x182 PUSH1 0x0 CODECOPY PUSH1 0x0 RETURN INVALID PUSH1 0x80 PUSH1 0x40 MSTORE PUSH1 0x4 CALLDATASIZE LT PUSH2 0x91 JUMPI PUSH1 0x0 CALLDATALOAD PUSH1 0xE0 SHR DUP1 PUSH4 0x82FDE093 GT PUSH2 0x59 JUMPI DUP1 PUSH4 0x82FDE093 EQ PUSH2 0x191 JUMPI DUP1 PUSH4 0x937E09B1 EQ PUSH2 0x1BC JUMPI DUP1 PUSH4 0xCF569977 EQ PUSH2 0x1E7 JUMPI DUP1 PUSH4 0xD7BB99BA EQ PUSH2 0x212 JUMPI DUP1 PUSH4 0xD7D1BBDB EQ PUSH2 0x21C JUMPI PUSH2 0x91 JUMP JUMPDEST DUP1 PUSH4 0x2E9D43B EQ PUSH2 0x96 JUMPI DUP1 PUSH4 0x3441006 EQ PUSH2 0xD7 JUMPI DUP1 PUSH4 0xA144391 EQ PUSH2 0x100 JUMPI DUP1 PUSH4 0x156964CB EQ PUSH2 0x13D JUMPI DUP1 PUSH4 0x481C6A75 EQ PUSH2 0x166 JUMPI JUMPDEST PUSH1 0x0 DUP1 REVERT JUMPDEST CALLVALUE DUP1 ISZERO PUSH2 0xA2 JUMPI PUSH1 0x0 DUP1 REVERT JUMPDEST POP PUSH2 0xBD PUSH1 0x4 DUP1 CALLDATASIZE SUB DUP2 ADD SWAP1 PUSH2 0xB8 SWAP2 SWAP1 PUSH2 0x95D JUMP JUMPDEST PUSH2 0x245 JUMP JUMPDEST PUSH1 0x40 MLOAD PUSH2 0xCE SWAP6 SWAP5 SWAP4 SWAP3 SWAP2 SWAP1 PUSH2 0xA8E JUMP JUMPDEST PUSH1 0x40 MLOAD DUP1 SWAP2 SUB SWAP1 RETURN JUMPDEST CALLVALUE DUP1 ISZERO PUSH2 0xE3 JUMPI PUSH1 0x0 DUP1 REVERT JUMPDEST POP PUSH2 0xFE PUSH1 0x4 DUP1 CALLDATASIZE SUB DUP2 ADD SWAP1 PUSH2 0xF9 SWAP2 SWAP1 PUSH2 0x95D JUMP JUMPDEST PUSH2 0x330 JUMP JUMPDEST STOP JUMPDEST CALLVALUE DUP1 ISZERO PUSH2 0x10C JUMPI PUSH1 0x0 DUP1 REVERT JUMPDEST POP PUSH2 0x127 PUSH1 0x4 DUP1 CALLDATASIZE SUB DUP2 ADD SWAP1 PUSH2 0x122 SWAP2 SWAP1 PUSH2 0xB14 JUMP JUMPDEST PUSH2 0x49F JUMP JUMPDEST PUSH1 0x40 MLOAD PUSH2 0x134 SWAP2 SWAP1 PUSH2 0xB41 JUMP JUMPDEST PUSH1 0x40 MLOAD DUP1 SWAP2 SUB SWAP1 RETURN JUMPDEST CALLVALUE DUP1 ISZERO PUSH2 0x149 JUMPI PUSH1 0x0 DUP1 REVERT JUMPDEST POP PUSH2 0x164 PUSH1 0x4 DUP1 CALLDATASIZE SUB DUP2 ADD SWAP1 PUSH2 0x15F SWAP2 SWAP1 PUSH2 0xCBD JUMP JUMPDEST PUSH2 0x4BF JUMP JUMPDEST STOP JUMPDEST CALLVALUE DUP1 ISZERO PUSH2 0x172 JUMPI PUSH1 0x0 DUP1 REVERT JUMPDEST POP PUSH2 0x17B PUSH2 0x645 JUMP JUMPDEST PUSH1 0x40 MLOAD PUSH2 0x188 SWAP2 SWAP1 PUSH2 0xD40 JUMP JUMPDEST PUSH1 0x40 MLOAD DUP1 SWAP2 SUB SWAP1 RETURN JUMPDEST CALLVALUE DUP1 ISZERO PUSH2 0x19D JUMPI PUSH1 0x0 DUP1 REVERT JUMPDEST POP PUSH2 0x1A6 PUSH2 0x669 JUMP JUMPDEST PUSH1 0x40 MLOAD PUSH2 0x1B3 SWAP2 SWAP1 PUSH2 0xD5B JUMP JUMPDEST PUSH1 0x40 MLOAD DUP1 SWAP2 SUB SWAP1 RETURN JUMPDEST CALLVALUE DUP1 ISZERO PUSH2 0x1C8 JUMPI PUSH1 0x0 DUP1 REVERT JUMPDEST POP PUSH2 0x1D1 PUSH2 0x66F JUMP JUMPDEST PUSH1 0x40 MLOAD PUSH2 0x1DE SWAP2 SWAP1 PUSH2 0xD5B JUMP JUMPDEST PUSH1 0x40 MLOAD DUP1 SWAP2 SUB SWAP1 RETURN JUMPDEST CALLVALUE DUP1 ISZERO PUSH2 0x1F3 JUMPI PUSH1 0x0 DUP1 REVERT JUMPDEST POP PUSH2 0x1FC PUSH2 0x675 JUMP JUMPDEST PUSH1 0x40 MLOAD PUSH2 0x209 SWAP2 SWAP1 PUSH2 0xD5B JUMP JUMPDEST PUSH1 0x40 MLOAD DUP1 SWAP2 SUB SWAP1 RETURN JUMPDEST PUSH2 0x21A PUSH2 0x67B JUMP JUMPDEST STOP JUMPDEST CALLVALUE DUP1 ISZERO PUSH2 0x228 JUMPI PUSH1 0x0 DUP1 REVERT JUMPDEST POP PUSH2 0x243 PUSH1 0x4 DUP1 CALLDATASIZE SUB DUP2 ADD SWAP1 PUSH2 0x23E SWAP2 SWAP1 PUSH2 0x95D JUMP JUMPDEST PUSH2 0x732 JUMP JUMPDEST STOP JUMPDEST PUSH1 0x5 PUSH1 0x20 MSTORE DUP1 PUSH1 0x0 MSTORE PUSH1 0x40 PUSH1 0x0 KECCAK256 PUSH1 0x0 SWAP2 POP SWAP1 POP DUP1 PUSH1 0x0 ADD DUP1 SLOAD PUSH2 0x268 SWAP1 PUSH2 0xDA5 JUMP JUMPDEST DUP1 PUSH1 0x1F ADD PUSH1 0x20 DUP1 SWAP2 DIV MUL PUSH1 0x20 ADD PUSH1 0x40 MLOAD SWAP1 DUP2 ADD PUSH1 0x40 MSTORE DUP1 SWAP3 SWAP2 SWAP1 DUP2 DUP2 MSTORE PUSH1 0x20 ADD DUP3 DUP1 SLOAD PUSH2 0x294 SWAP1 PUSH2 0xDA5 JUMP JUMPDEST DUP1 ISZERO PUSH2 0x2E1 JUMPI DUP1 PUSH1 0x1F LT PUSH2 0x2B6 JUMPI PUSH2 0x100 DUP1 DUP4 SLOAD DIV MUL DUP4 MSTORE SWAP2 PUSH1 0x20 ADD SWAP2 PUSH2 0x2E1 JUMP JUMPDEST DUP3 ADD SWAP2 SWAP1 PUSH1 0x0 MSTORE PUSH1 0x20 PUSH1 0x0 KECCAK256 SWAP1 JUMPDEST DUP2 SLOAD DUP2 MSTORE SWAP1 PUSH1 0x1 ADD SWAP1 PUSH1 0x20 ADD DUP1 DUP4 GT PUSH2 0x2C4 JUMPI DUP3 SWAP1 SUB PUSH1 0x1F AND DUP3 ADD SWAP2 JUMPDEST POP POP POP POP POP SWAP1 DUP1 PUSH1 0x1 ADD SLOAD SWAP1 DUP1 PUSH1 0x2 ADD PUSH1 0x0 SWAP1 SLOAD SWAP1 PUSH2 0x100 EXP SWAP1 DIV PUSH20 0xFFFFFFFFFFFFFFFFFFFFFFFFFFFFFFFFFFFFFFFF AND SWAP1 DUP1 PUSH1 0x2 ADD PUSH1 0x14 SWAP1 SLOAD SWAP1 PUSH2 0x100 EXP SWAP1 DIV PUSH1 0xFF AND SWAP1 DUP1 PUSH1 0x3 ADD SLOAD SWAP1 POP DUP6 JUMP JUMPDEST PUSH1 0x0 DUP1 SLOAD SWAP1 PUSH2 0x100 EXP SWAP1 DIV PUSH20 0xFFFFFFFFFFFFFFFFFFFFFFFFFFFFFFFFFFFFFFFF AND PUSH20 0xFFFFFFFFFFFFFFFFFFFFFFFFFFFFFFFFFFFFFFFF AND CALLER PUSH20 0xFFFFFFFFFFFFFFFFFFFFFFFFFFFFFFFFFFFFFFFF AND EQ PUSH2 0x3BD JUMPI PUSH32 0xEFC58067A22B5FC63C92F0D342A3EE86C200480E4A6601E495B7850CC5035DAE PUSH1 0x40 MLOAD PUSH2 0x3B0 SWAP1 PUSH2 0xE49 JUMP JUMPDEST PUSH1 0x40 MLOAD DUP1 SWAP2 SUB SWAP1 LOG1 PUSH2 0x49C JUMP JUMPDEST PUSH1 0x0 PUSH1 0x5 PUSH1 0x0 DUP4 DUP2 MSTORE PUSH1 0x20 ADD SWAP1 DUP2 MSTORE PUSH1 0x20 ADD PUSH1 0x0 KECCAK256 SWAP1 POP DUP1 PUSH1 0x2 ADD PUSH1 0x14 SWAP1 SLOAD SWAP1 PUSH2 0x100 EXP SWAP1 DIV PUSH1 0xFF AND ISZERO PUSH2 0x3F0 JUMPI PUSH1 0x0 DUP1 REVERT JUMPDEST PUSH1 0x2 PUSH1 0x3 SLOAD PUSH2 0x3FF SWAP2 SWAP1 PUSH2 0xEC7 JUMP JUMPDEST DUP2 PUSH1 0x3 ADD SLOAD GT PUSH2 0x40E JUMPI PUSH1 0x0 DUP1 REVERT JUMPDEST DUP1 PUSH1 0x2 ADD PUSH1 0x0 SWAP1 SLOAD SWAP1 PUSH2 0x100 EXP SWAP1 DIV PUSH20 0xFFFFFFFFFFFFFFFFFFFFFFFFFFFFFFFFFFFFFFFF AND PUSH20 0xFFFFFFFFFFFFFFFFFFFFFFFFFFFFFFFFFFFFFFFF AND PUSH2 0x8FC DUP3 PUSH1 0x1 ADD SLOAD SWAP1 DUP2 ISZERO MUL SWAP1 PUSH1 0x40 MLOAD PUSH1 0x0 PUSH1 0x40 MLOAD DUP1 DUP4 SUB DUP2 DUP6 DUP9 DUP9 CALL SWAP4 POP POP POP POP ISZERO DUP1 ISZERO PUSH2 0x47C JUMPI RETURNDATASIZE PUSH1 0x0 DUP1 RETURNDATACOPY RETURNDATASIZE PUSH1 0x0 REVERT JUMPDEST POP PUSH1 0x1 DUP2 PUSH1 0x2 ADD PUSH1 0x14 PUSH2 0x100 EXP DUP2 SLOAD DUP2 PUSH1 0xFF MUL NOT AND SWAP1 DUP4 ISZERO ISZERO MUL OR SWAP1 SSTORE POP POP JUMPDEST POP JUMP JUMPDEST PUSH1 0x2 PUSH1 0x20 MSTORE DUP1 PUSH1 0x0 MSTORE PUSH1 0x40 PUSH1 0x0 KECCAK256 PUSH1 0x0 SWAP2 POP SLOAD SWAP1 PUSH2 0x100 EXP SWAP1 DIV PUSH1 0xFF AND DUP2 JUMP JUMPDEST PUSH1 0x0 DUP1 SLOAD SWAP1 PUSH2 0x100 EXP SWAP1 DIV PUSH20 0xFFFFFFFFFFFFFFFFFFFFFFFFFFFFFFFFFFFFFFFF AND PUSH20 0xFFFFFFFFFFFFFFFFFFFFFFFFFFFFFFFFFFFFFFFF AND CALLER PUSH20 0xFFFFFFFFFFFFFFFFFFFFFFFFFFFFFFFFFFFFFFFF AND EQ PUSH2 0x54C JUMPI PUSH32 0xEFC58067A22B5FC63C92F0D342A3EE86C200480E4A6601E495B7850CC5035DAE PUSH1 0x40 MLOAD PUSH2 0x53F SWAP1 PUSH2 0xE49 JUMP JUMPDEST PUSH1 0x40 MLOAD DUP1 SWAP2 SUB SWAP1 LOG1 PUSH2 0x63F JUMP JUMPDEST PUSH1 0x0 PUSH1 0x5 PUSH1 0x0 PUSH1 0x4 SLOAD DUP2 MSTORE PUSH1 0x20 ADD SWAP1 DUP2 MSTORE PUSH1 0x20 ADD PUSH1 0x0 KECCAK256 SWAP1 POP DUP5 DUP2 PUSH1 0x0 ADD SWAP1 DUP1 MLOAD SWAP1 PUSH1 0x20 ADD SWAP1 PUSH2 0x57D SWAP3 SWAP2 SWAP1 PUSH2 0x870 JUMP JUMPDEST POP DUP4 DUP2 PUSH1 0x1 ADD DUP2 SWAP1 SSTORE POP DUP2 DUP2 PUSH1 0x2 ADD PUSH1 0x14 PUSH2 0x100 EXP DUP2 SLOAD DUP2 PUSH1 0xFF MUL NOT AND SWAP1 DUP4 ISZERO ISZERO MUL OR SWAP1 SSTORE POP DUP3 DUP2 PUSH1 0x2 ADD PUSH1 0x0 PUSH2 0x100 EXP DUP2 SLOAD DUP2 PUSH20 0xFFFFFFFFFFFFFFFFFFFFFFFFFFFFFFFFFFFFFFFF MUL NOT AND SWAP1 DUP4 PUSH20 0xFFFFFFFFFFFFFFFFFFFFFFFFFFFFFFFFFFFFFFFF AND MUL OR SWAP1 SSTORE POP PUSH1 0x0 DUP2 PUSH1 0x3 ADD DUP2 SWAP1 SSTORE POP PUSH1 0x4 PUSH1 0x0 DUP2 SLOAD DUP1 SWAP3 SWAP2 SWAP1 PUSH2 0x603 SWAP1 PUSH2 0xEF8 JUMP JUMPDEST SWAP2 SWAP1 POP SSTORE POP PUSH32 0xACFC64A01D363381B525BE237B18171CA85CF20C6F60CD29F0E89872747A3890 PUSH1 0x40 MLOAD PUSH2 0x635 SWAP1 PUSH2 0xF8D JUMP JUMPDEST PUSH1 0x40 MLOAD DUP1 SWAP2 SUB SWAP1 LOG1 POP JUMPDEST POP POP POP POP JUMP JUMPDEST PUSH1 0x0 DUP1 SLOAD SWAP1 PUSH2 0x100 EXP SWAP1 DIV PUSH20 0xFFFFFFFFFFFFFFFFFFFFFFFFFFFFFFFFFFFFFFFF AND DUP2 JUMP JUMPDEST PUSH1 0x3 SLOAD DUP2 JUMP JUMPDEST PUSH1 0x1 SLOAD DUP2 JUMP JUMPDEST PUSH1 0x4 SLOAD DUP2 JUMP JUMPDEST PUSH1 0x1 SLOAD CALLVALUE LT ISZERO PUSH2 0x6BF JUMPI PUSH32 0x14658362240BCBB2E554554A7365F37E8D4BBB376E8680A24FE02AEEDE504A95 PUSH1 0x40 MLOAD PUSH2 0x6B2 SWAP1 PUSH2 0x101F JUMP JUMPDEST PUSH1 0x40 MLOAD DUP1 SWAP2 SUB SWAP1 LOG1 PUSH2 0x730 JUMP JUMPDEST PUSH1 0x1 PUSH1 0x2 PUSH1 0x0 CALLER PUSH20 0xFFFFFFFFFFFFFFFFFFFFFFFFFFFFFFFFFFFFFFFF AND PUSH20 0xFFFFFFFFFFFFFFFFFFFFFFFFFFFFFFFFFFFFFFFF AND DUP2 MSTORE PUSH1 0x20 ADD SWAP1 DUP2 MSTORE PUSH1 0x20 ADD PUSH1 0x0 KECCAK256 PUSH1 0x0 PUSH2 0x100 EXP DUP2 SLOAD DUP2 PUSH1 0xFF MUL NOT AND SWAP1 DUP4 ISZERO ISZERO MUL OR SWAP1 SSTORE POP PUSH1 0x3 PUSH1 0x0 DUP2 SLOAD DUP1 SWAP3 SWAP2 SWAP1 PUSH2 0x72A SWAP1 PUSH2 0xEF8 JUMP JUMPDEST SWAP2 SWAP1 POP SSTORE POP JUMPDEST JUMP JUMPDEST PUSH1 0x0 PUSH1 0x5 PUSH1 0x0 DUP4 DUP2 MSTORE PUSH1 0x20 ADD SWAP1 DUP2 MSTORE PUSH1 0x20 ADD PUSH1 0x0 KECCAK256 SWAP1 POP PUSH1 0x2 PUSH1 0x0 CALLER PUSH20 0xFFFFFFFFFFFFFFFFFFFFFFFFFFFFFFFFFFFFFFFF AND PUSH20 0xFFFFFFFFFFFFFFFFFFFFFFFFFFFFFFFFFFFFFFFF AND DUP2 MSTORE PUSH1 0x20 ADD SWAP1 DUP2 MSTORE PUSH1 0x20 ADD PUSH1 0x0 KECCAK256 PUSH1 0x0 SWAP1 SLOAD SWAP1 PUSH2 0x100 EXP SWAP1 DIV PUSH1 0xFF AND PUSH2 0x79F JUMPI PUSH1 0x0 DUP1 REVERT JUMPDEST DUP1 PUSH1 0x4 ADD PUSH1 0x0 CALLER PUSH20 0xFFFFFFFFFFFFFFFFFFFFFFFFFFFFFFFFFFFFFFFF AND PUSH20 0xFFFFFFFFFFFFFFFFFFFFFFFFFFFFFFFFFFFFFFFF AND DUP2 MSTORE PUSH1 0x20 ADD SWAP1 DUP2 MSTORE PUSH1 0x20 ADD PUSH1 0x0 KECCAK256 PUSH1 0x0 SWAP1 SLOAD SWAP1 PUSH2 0x100 EXP SWAP1 DIV PUSH1 0xFF AND ISZERO PUSH2 0x7F8 JUMPI PUSH1 0x0 DUP1 REVERT JUMPDEST PUSH1 0x1 DUP2 PUSH1 0x4 ADD PUSH1 0x0 CALLER PUSH20 0xFFFFFFFFFFFFFFFFFFFFFFFFFFFFFFFFFFFFFFFF AND PUSH20 0xFFFFFFFFFFFFFFFFFFFFFFFFFFFFFFFFFFFFFFFF AND DUP2 MSTORE PUSH1 0x20 ADD SWAP1 DUP2 MSTORE PUSH1 0x20 ADD PUSH1 0x0 KECCAK256 PUSH1 0x0 PUSH2 0x100 EXP DUP2 SLOAD DUP2 PUSH1 0xFF MUL NOT AND SWAP1 DUP4 ISZERO ISZERO MUL OR SWAP1 SSTORE POP DUP1 PUSH1 0x3 ADD PUSH1 0x0 DUP2 SLOAD DUP1 SWAP3 SWAP2 SWAP1 PUSH2 0x867 SWAP1 PUSH2 0xEF8 JUMP JUMPDEST SWAP2 SWAP1 POP SSTORE POP POP POP JUMP JUMPDEST DUP3 DUP1 SLOAD PUSH2 0x87C SWAP1 PUSH2 0xDA5 JUMP JUMPDEST SWAP1 PUSH1 0x0 MSTORE PUSH1 0x20 PUSH1 0x0 KECCAK256 SWAP1 PUSH1 0x1F ADD PUSH1 0x20 SWAP1 DIV DUP2 ADD SWAP3 DUP3 PUSH2 0x89E JUMPI PUSH1 0x0 DUP6 SSTORE PUSH2 0x8E5 JUMP JUMPDEST DUP3 PUSH1 0x1F LT PUSH2 0x8B7 JUMPI DUP1 MLOAD PUSH1 0xFF NOT AND DUP4 DUP1 ADD OR DUP6 SSTORE PUSH2 0x8E5 JUMP JUMPDEST DUP3 DUP1 ADD PUSH1 0x1 ADD DUP6 SSTORE DUP3 ISZERO PUSH2 0x8E5 JUMPI SWAP2 DUP3 ADD JUMPDEST DUP3 DUP2 GT ISZERO PUSH2 0x8E4 JUMPI DUP3 MLOAD DUP3 SSTORE SWAP2 PUSH1 0x20 ADD SWAP2 SWAP1 PUSH1 0x1 ADD SWAP1 PUSH2 0x8C9 JUMP JUMPDEST JUMPDEST POP SWAP1 POP PUSH2 0x8F2 SWAP2 SWAP1 PUSH2 0x8F6 JUMP JUMPDEST POP SWAP1 JUMP JUMPDEST JUMPDEST DUP1 DUP3 GT ISZERO PUSH2 0x90F JUMPI PUSH1 0x0 DUP2 PUSH1 0x0 SWAP1 SSTORE POP PUSH1 0x1 ADD PUSH2 0x8F7 JUMP JUMPDEST POP SWAP1 JUMP JUMPDEST PUSH1 0x0 PUSH1 0x40 MLOAD SWAP1 POP SWAP1 JUMP JUMPDEST PUSH1 0x0 DUP1 REVERT JUMPDEST PUSH1 0x0 DUP1 REVERT JUMPDEST PUSH1 0x0 DUP2 SWAP1 POP SWAP2 SWAP1 POP JUMP JUMPDEST PUSH2 0x93A DUP2 PUSH2 0x927 JUMP JUMPDEST DUP2 EQ PUSH2 0x945 JUMPI PUSH1 0x0 DUP1 REVERT JUMPDEST POP JUMP JUMPDEST PUSH1 0x0 DUP2 CALLDATALOAD SWAP1 POP PUSH2 0x957 DUP2 PUSH2 0x931 JUMP JUMPDEST SWAP3 SWAP2 POP POP JUMP JUMPDEST PUSH1 0x0 PUSH1 0x20 DUP3 DUP5 SUB SLT ISZERO PUSH2 0x973 JUMPI PUSH2 0x972 PUSH2 0x91D JUMP JUMPDEST JUMPDEST PUSH1 0x0 PUSH2 0x981 DUP5 DUP3 DUP6 ADD PUSH2 0x948 JUMP JUMPDEST SWAP2 POP POP SWAP3 SWAP2 POP POP JUMP JUMPDEST PUSH1 0x0 DUP2 MLOAD SWAP1 POP SWAP2 SWAP1 POP JUMP JUMPDEST PUSH1 0x0 DUP3 DUP3 MSTORE PUSH1 0x20 DUP3 ADD SWAP1 POP SWAP3 SWAP2 POP POP JUMP JUMPDEST PUSH1 0x0 JUMPDEST DUP4 DUP2 LT ISZERO PUSH2 0x9C4 JUMPI DUP1 DUP3 ADD MLOAD DUP2 DUP5 ADD MSTORE PUSH1 0x20 DUP2 ADD SWAP1 POP PUSH2 0x9A9 JUMP JUMPDEST DUP4 DUP2 GT ISZERO PUSH2 0x9D3 JUMPI PUSH1 0x0 DUP5 DUP5 ADD MSTORE JUMPDEST POP POP POP POP JUMP JUMPDEST PUSH1 0x0 PUSH1 0x1F NOT PUSH1 0x1F DUP4 ADD AND SWAP1 POP SWAP2 SWAP1 POP JUMP JUMPDEST PUSH1 0x0 PUSH2 0x9F5 DUP3 PUSH2 0x98A JUMP JUMPDEST PUSH2 0x9FF DUP2 DUP6 PUSH2 0x995 JUMP JUMPDEST SWAP4 POP PUSH2 0xA0F DUP2 DUP6 PUSH1 0x20 DUP7 ADD PUSH2 0x9A6 JUMP JUMPDEST PUSH2 0xA18 DUP2 PUSH2 0x9D9 JUMP JUMPDEST DUP5 ADD SWAP2 POP POP SWAP3 SWAP2 POP POP JUMP JUMPDEST PUSH2 0xA2C DUP2 PUSH2 0x927 JUMP JUMPDEST DUP3 MSTORE POP POP JUMP JUMPDEST PUSH1 0x0 PUSH20 0xFFFFFFFFFFFFFFFFFFFFFFFFFFFFFFFFFFFFFFFF DUP3 AND SWAP1 POP SWAP2 SWAP1 POP JUMP JUMPDEST PUSH1 0x0 PUSH2 0xA5D DUP3 PUSH2 0xA32 JUMP JUMPDEST SWAP1 POP SWAP2 SWAP1 POP JUMP JUMPDEST PUSH2 0xA6D DUP2 PUSH2 0xA52 JUMP JUMPDEST DUP3 MSTORE POP POP JUMP JUMPDEST PUSH1 0x0 DUP2 ISZERO ISZERO SWAP1 POP SWAP2 SWAP1 POP JUMP JUMPDEST PUSH2 0xA88 DUP2 PUSH2 0xA73 JUMP JUMPDEST DUP3 MSTORE POP POP JUMP JUMPDEST PUSH1 0x0 PUSH1 0xA0 DUP3 ADD SWAP1 POP DUP2 DUP2 SUB PUSH1 0x0 DUP4 ADD MSTORE PUSH2 0xAA8 DUP2 DUP9 PUSH2 0x9EA JUMP JUMPDEST SWAP1 POP PUSH2 0xAB7 PUSH1 0x20 DUP4 ADD DUP8 PUSH2 0xA23 JUMP JUMPDEST PUSH2 0xAC4 PUSH1 0x40 DUP4 ADD DUP7 PUSH2 0xA64 JUMP JUMPDEST PUSH2 0xAD1 PUSH1 0x60 DUP4 ADD DUP6 PUSH2 0xA7F JUMP JUMPDEST PUSH2 0xADE PUSH1 0x80 DUP4 ADD DUP5 PUSH2 0xA23 JUMP JUMPDEST SWAP7 SWAP6 POP POP POP POP POP POP JUMP JUMPDEST PUSH2 0xAF1 DUP2 PUSH2 0xA52 JUMP JUMPDEST DUP2 EQ PUSH2 0xAFC JUMPI PUSH1 0x0 DUP1 REVERT JUMPDEST POP JUMP JUMPDEST PUSH1 0x0 DUP2 CALLDATALOAD SWAP1 POP PUSH2 0xB0E DUP2 PUSH2 0xAE8 JUMP JUMPDEST SWAP3 SWAP2 POP POP JUMP JUMPDEST PUSH1 0x0 PUSH1 0x20 DUP3 DUP5 SUB SLT ISZERO PUSH2 0xB2A JUMPI PUSH2 0xB29 PUSH2 0x91D JUMP JUMPDEST JUMPDEST PUSH1 0x0 PUSH2 0xB38 DUP5 DUP3 DUP6 ADD PUSH2 0xAFF JUMP JUMPDEST SWAP2 POP POP SWAP3 SWAP2 POP POP JUMP JUMPDEST PUSH1 0x0 PUSH1 0x20 DUP3 ADD SWAP1 POP PUSH2 0xB56 PUSH1 0x0 DUP4 ADD DUP5 PUSH2 0xA7F JUMP JUMPDEST SWAP3 SWAP2 POP POP JUMP JUMPDEST PUSH1 0x0 DUP1 REVERT JUMPDEST PUSH1 0x0 DUP1 REVERT JUMPDEST PUSH32 0x4E487B7100000000000000000000000000000000000000000000000000000000 PUSH1 0x0 MSTORE PUSH1 0x41 PUSH1 0x4 MSTORE PUSH1 0x24 PUSH1 0x0 REVERT JUMPDEST PUSH2 0xB9E DUP3 PUSH2 0x9D9 JUMP JUMPDEST DUP2 ADD DUP2 DUP2 LT PUSH8 0xFFFFFFFFFFFFFFFF DUP3 GT OR ISZERO PUSH2 0xBBD JUMPI PUSH2 0xBBC PUSH2 0xB66 JUMP JUMPDEST JUMPDEST DUP1 PUSH1 0x40 MSTORE POP POP POP JUMP JUMPDEST PUSH1 0x0 PUSH2 0xBD0 PUSH2 0x913 JUMP JUMPDEST SWAP1 POP PUSH2 0xBDC DUP3 DUP3 PUSH2 0xB95 JUMP JUMPDEST SWAP2 SWAP1 POP JUMP JUMPDEST PUSH1 0x0 PUSH8 0xFFFFFFFFFFFFFFFF DUP3 GT ISZERO PUSH2 0xBFC JUMPI PUSH2 0xBFB PUSH2 0xB66 JUMP JUMPDEST JUMPDEST PUSH2 0xC05 DUP3 PUSH2 0x9D9 JUMP JUMPDEST SWAP1 POP PUSH1 0x20 DUP2 ADD SWAP1 POP SWAP2 SWAP1 POP JUMP JUMPDEST DUP3 DUP2 DUP4 CALLDATACOPY PUSH1 0x0 DUP4 DUP4 ADD MSTORE POP POP POP JUMP JUMPDEST PUSH1 0x0 PUSH2 0xC34 PUSH2 0xC2F DUP5 PUSH2 0xBE1 JUMP JUMPDEST PUSH2 0xBC6 JUMP JUMPDEST SWAP1 POP DUP3 DUP2 MSTORE PUSH1 0x20 DUP2 ADD DUP5 DUP5 DUP5 ADD GT ISZERO PUSH2 0xC50 JUMPI PUSH2 0xC4F PUSH2 0xB61 JUMP JUMPDEST JUMPDEST PUSH2 0xC5B DUP5 DUP3 DUP6 PUSH2 0xC12 JUMP JUMPDEST POP SWAP4 SWAP3 POP POP POP JUMP JUMPDEST PUSH1 0x0 DUP3 PUSH1 0x1F DUP4 ADD SLT PUSH2 0xC78 JUMPI PUSH2 0xC77 PUSH2 0xB5C JUMP JUMPDEST JUMPDEST DUP2 CALLDATALOAD PUSH2 0xC88 DUP5 DUP3 PUSH1 0x20 DUP7 ADD PUSH2 0xC21 JUMP JUMPDEST SWAP2 POP POP SWAP3 SWAP2 POP POP JUMP JUMPDEST PUSH2 0xC9A DUP2 PUSH2 0xA73 JUMP JUMPDEST DUP2 EQ PUSH2 0xCA5 JUMPI PUSH1 0x0 DUP1 REVERT JUMPDEST POP JUMP JUMPDEST PUSH1 0x0 DUP2 CALLDATALOAD SWAP1 POP PUSH2 0xCB7 DUP2 PUSH2 0xC91 JUMP JUMPDEST SWAP3 SWAP2 POP POP JUMP JUMPDEST PUSH1 0x0 DUP1 PUSH1 0x0 DUP1 PUSH1 0x80 DUP6 DUP8 SUB SLT ISZERO PUSH2 0xCD7 JUMPI PUSH2 0xCD6 PUSH2 0x91D JUMP JUMPDEST JUMPDEST PUSH1 0x0 DUP6 ADD CALLDATALOAD PUSH8 0xFFFFFFFFFFFFFFFF DUP2 GT ISZERO PUSH2 0xCF5 JUMPI PUSH2 0xCF4 PUSH2 0x922 JUMP JUMPDEST JUMPDEST PUSH2 0xD01 DUP8 DUP3 DUP9 ADD PUSH2 0xC63 JUMP JUMPDEST SWAP5 POP POP PUSH1 0x20 PUSH2 0xD12 DUP8 DUP3 DUP9 ADD PUSH2 0x948 JUMP JUMPDEST SWAP4 POP POP PUSH1 0x40 PUSH2 0xD23 DUP8 DUP3 DUP9 ADD PUSH2 0xAFF JUMP JUMPDEST SWAP3 POP POP PUSH1 0x60 PUSH2 0xD34 DUP8 DUP3 DUP9 ADD PUSH2 0xCA8 JUMP JUMPDEST SWAP2 POP POP SWAP3 SWAP6 SWAP2 SWAP5 POP SWAP3 POP JUMP JUMPDEST PUSH1 0x0 PUSH1 0x20 DUP3 ADD SWAP1 POP PUSH2 0xD55 PUSH1 0x0 DUP4 ADD DUP5 PUSH2 0xA64 JUMP JUMPDEST SWAP3 SWAP2 POP POP JUMP JUMPDEST PUSH1 0x0 PUSH1 0x20 DUP3 ADD SWAP1 POP PUSH2 0xD70 PUSH1 0x0 DUP4 ADD DUP5 PUSH2 0xA23 JUMP JUMPDEST SWAP3 SWAP2 POP POP JUMP JUMPDEST PUSH32 0x4E487B7100000000000000000000000000000000000000000000000000000000 PUSH1 0x0 MSTORE PUSH1 0x22 PUSH1 0x4 MSTORE PUSH1 0x24 PUSH1 0x0 REVERT JUMPDEST PUSH1 0x0 PUSH1 0x2 DUP3 DIV SWAP1 POP PUSH1 0x1 DUP3 AND DUP1 PUSH2 0xDBD JUMPI PUSH1 0x7F DUP3 AND SWAP2 POP JUMPDEST PUSH1 0x20 DUP3 LT DUP2 EQ ISZERO PUSH2 0xDD1 JUMPI PUSH2 0xDD0 PUSH2 0xD76 JUMP JUMPDEST JUMPDEST POP SWAP2 SWAP1 POP JUMP JUMPDEST PUSH32 0x596F7520617265206E6F7420617574686F697A656420746F2065786563757465 PUSH1 0x0 DUP3 ADD MSTORE PUSH32 0x20746869732066756E6374696F6E000000000000000000000000000000000000 PUSH1 0x20 DUP3 ADD MSTORE POP JUMP JUMPDEST PUSH1 0x0 PUSH2 0xE33 PUSH1 0x2E DUP4 PUSH2 0x995 JUMP JUMPDEST SWAP2 POP PUSH2 0xE3E DUP3 PUSH2 0xDD7 JUMP JUMPDEST PUSH1 0x40 DUP3 ADD SWAP1 POP SWAP2 SWAP1 POP JUMP JUMPDEST PUSH1 0x0 PUSH1 0x20 DUP3 ADD SWAP1 POP DUP2 DUP2 SUB PUSH1 0x0 DUP4 ADD MSTORE PUSH2 0xE62 DUP2 PUSH2 0xE26 JUMP JUMPDEST SWAP1 POP SWAP2 SWAP1 POP JUMP JUMPDEST PUSH32 0x4E487B7100000000000000000000000000000000000000000000000000000000 PUSH1 0x0 MSTORE PUSH1 0x12 PUSH1 0x4 MSTORE PUSH1 0x24 PUSH1 0x0 REVERT JUMPDEST PUSH32 0x4E487B7100000000000000000000000000000000000000000000000000000000 PUSH1 0x0 MSTORE PUSH1 0x11 PUSH1 0x4 MSTORE PUSH1 0x24 PUSH1 0x0 REVERT JUMPDEST PUSH1 0x0 PUSH2 0xED2 DUP3 PUSH2 0x927 JUMP JUMPDEST SWAP2 POP PUSH2 0xEDD DUP4 PUSH2 0x927 JUMP JUMPDEST SWAP3 POP DUP3 PUSH2 0xEED JUMPI PUSH2 0xEEC PUSH2 0xE69 JUMP JUMPDEST JUMPDEST DUP3 DUP3 DIV SWAP1 POP SWAP3 SWAP2 POP POP JUMP JUMPDEST PUSH1 0x0 PUSH2 0xF03 DUP3 PUSH2 0x927 JUMP JUMPDEST SWAP2 POP PUSH32 0xFFFFFFFFFFFFFFFFFFFFFFFFFFFFFFFFFFFFFFFFFFFFFFFFFFFFFFFFFFFFFFFF DUP3 EQ ISZERO PUSH2 0xF36 JUMPI PUSH2 0xF35 PUSH2 0xE98 JUMP JUMPDEST JUMPDEST PUSH1 0x1 DUP3 ADD SWAP1 POP SWAP2 SWAP1 POP JUMP JUMPDEST PUSH32 0x4E6577205265717565737420686173206265656E206372656174656400000000 PUSH1 0x0 DUP3 ADD MSTORE POP JUMP JUMPDEST PUSH1 0x0 PUSH2 0xF77 PUSH1 0x1C DUP4 PUSH2 0x995 JUMP JUMPDEST SWAP2 POP PUSH2 0xF82 DUP3 PUSH2 0xF41 JUMP JUMPDEST PUSH1 0x20 DUP3 ADD SWAP1 POP SWAP2 SWAP1 POP JUMP JUMPDEST PUSH1 0x0 PUSH1 0x20 DUP3 ADD SWAP1 POP DUP2 DUP2 SUB PUSH1 0x0 DUP4 ADD MSTORE PUSH2 0xFA6 DUP2 PUSH2 0xF6A JUMP JUMPDEST SWAP1 POP SWAP2 SWAP1 POP JUMP JUMPDEST PUSH32 0x596F7520617265206E6F7420636F6E747269627574696E6720746865206D696E PUSH1 0x0 DUP3 ADD MSTORE PUSH32 0x696D756D20616D6F756E742072657175697265642E2E2E210000000000000000 PUSH1 0x20 DUP3 ADD MSTORE POP JUMP JUMPDEST PUSH1 0x0 PUSH2 0x1009 PUSH1 0x38 DUP4 PUSH2 0x995 JUMP JUMPDEST SWAP2 POP PUSH2 0x1014 DUP3 PUSH2 0xFAD JUMP JUMPDEST PUSH1 0x40 DUP3 ADD SWAP1 POP SWAP2 SWAP1 POP JUMP JUMPDEST PUSH1 0x0 PUSH1 0x20 DUP3 ADD SWAP1 POP DUP2 DUP2 SUB PUSH1 0x0 DUP4 ADD MSTORE PUSH2 0x1038 DUP2 PUSH2 0xFFC JUMP JUMPDEST SWAP1 POP SWAP2 SWAP1 POP JUMP INVALID LOG2 PUSH5 0x6970667358 0x22 SLT KECCAK256 PUSH29 0xFBEDE8D5FFCDDF961DD90D9A46DB843386D4E79F2A4657C93A7172D24C MSTORE8 DUP11 PUSH5 0x736F6C6343 STOP ADDMOD SIGNEXTEND STOP CALLER "},"gasEstimates":{"creation":{"codeDepositCost":"842600","executionCost":"infinite","totalCost":"infinite"},"external":{"approveRequest(uint256)":"infinite","approvers(address)":"2890","approversCount()":"2429","contribute()":"51028","createRequest(string,uint256,address,bool)":"infinite","finalizeRequest(uint256)":"infinite","manager()":"2600","minimumContribution()":"2451","numberOfRequests()":"2473","requestList(uint256)":"infinite"}},"methodIdentifiers":{"approveRequest(uint256)":"d7d1bbdb","approvers(address)":"0a144391","approversCount()":"82fde093","contribute()":"d7bb99ba","createRequest(string,uint256,address,bool)":"156964cb","finalizeRequest(uint256)":"03441006","manager()":"481c6a75","minimumContribution()":"937e09b1","numberOfRequests()":"cf569977","requestList(uint256)":"02e9d43b"}},"storageLayout":{"storage":[{"astId":3,"contract":"campaign.sol:Campaign","label":"manager","offset":0,"slot":"0","type":"t_address"},{"astId":5,"contract":"campaign.sol:Campaign","label":"minimumContribution","offset":0,"slot":"1","type":"t_uint256"},{"astId":9,"contract":"campaign.sol:Campaign","label":"approvers","offset":0,"slot":"2","type":"t_mapping(t_address,t_bool)"},{"astId":11,"contract":"campaign.sol:Campaign","label":"approversCount","offset":0,"slot":"3","type":"t_uint256"},{"astId":40,"contract":"campaign.sol:Campaign","label":"numberOfRequests","offset":0,"slot":"4","type":"t_uint256"},{"astId":45,"contract":"campaign.sol:Campaign","label":"requestList","offset":0,"slot":"5","type":"t_mapping(t_uint256,t_struct(Request)38_storage)"}],"types":{"t_address":{"encoding":"inplace","label":"address","numberOfBytes":"20"},"t_bool":{"encoding":"inplace","label":"bool","numberOfBytes":"1"},"t_mapping(t_address,t_bool)":{"encoding":"mapping","key":"t_address","label":"mapping(address => bool)","numberOfBytes":"32","value":"t_bool"},"t_mapping(t_uint256,t_struct(Request)38_storage)":{"encoding":"mapping","key":"t_uint256","label":"mapping(uint256 => struct Utility.Request)","numberOfBytes":"32","value":"t_struct(Request)38_storage"},"t_string_storage":{"encoding":"bytes","label":"string","numberOfBytes":"32"},"t_struct(Request)38_storage":{"encoding":"inplace","label":"struct Utility.Request","members":[{"astId":25,"contract":"campaign.sol:Campaign","label":"description","offset":0,"slot":"0","type":"t_string_storage"},{"astId":27,"contract":"campaign.sol:Campaign","label":"value","offset":0,"slot":"1","type":"t_uint256"},{"astId":29,"contract":"campaign.sol:Campaign","label":"recipient","offset":0,"slot":"2","type":"t_address"},{"astId":31,"contract":"campaign.sol:Campaign","label":"complete","offset":20,"slot":"2","type":"t_bool"},{"astId":33,"contract":"campaign.sol:Campaign","label":"approvalCount","offset":0,"slot":"3","type":"t_uint256"},{"astId":37,"contract":"campaign.sol:Campaign","label":"approvals","offset":0,"slot":"4","type":"t_mapping(t_address,t_bool)"}],"numberOfBytes":"160"},"t_uint256":{"encoding":"inplace","label":"uint256","numberOfBytes":"32"}}},"userdoc":{"kind":"user","methods":{},"version":1}}