{"abi":[{"anonymous":false,"inputs":[{"indexed":false,"internalType":"string","name":"erroText","type":"string"}],"name":"authorizationErrot","type":"event"},{"anonymous":false,"inputs":[{"indexed":false,"internalType":"string","name":"errorText","type":"string"}],"name":"minimumContributionError","type":"event"},{"anonymous":false,"inputs":[{"indexed":false,"internalType":"string","name":"messageText","type":"string"}],"name":"requestCreated","type":"event"},{"inputs":[{"internalType":"address","name":"","type":"address"}],"name":"approvers","outputs":[{"internalType":"bool","name":"","type":"bool"}],"stateMutability":"view","type":"function"},{"inputs":[],"name":"approversCount","outputs":[{"internalType":"uint256","name":"","type":"uint256"}],"stateMutability":"view","type":"function"},{"inputs":[],"name":"manager","outputs":[{"internalType":"address","name":"","type":"address"}],"stateMutability":"view","type":"function"},{"inputs":[],"name":"minimumContribution","outputs":[{"internalType":"uint256","name":"","type":"uint256"}],"stateMutability":"view","type":"function"},{"inputs":[],"name":"numberOfRequests","outputs":[{"internalType":"uint256","name":"","type":"uint256"}],"stateMutability":"view","type":"function"},{"inputs":[{"internalType":"uint256","name":"","type":"uint256"}],"name":"requestList","outputs":[{"internalType":"string","name":"description","type":"string"},{"internalType":"uint256","name":"value","type":"uint256"},{"internalType":"address","name":"recipient","type":"address"},{"internalType":"bool","name":"complete","type":"bool"},{"internalType":"uint256","name":"approvalCount","type":"uint256"}],"stateMutability":"view","type":"function"}],"devdoc":{"kind":"dev","methods":{},"version":1},"evm":{"assembly":"    /* \"campaign.sol\":60:1168  contract Utility{... */\n  mstore(0x40, 0x80)\n  callvalue\n  dup1\n  iszero\n  tag_1\n  jumpi\n  0x00\n  dup1\n  revert\ntag_1:\n  pop\n  dataSize(sub_0)\n  dup1\n  dataOffset(sub_0)\n  0x00\n  codecopy\n  0x00\n  return\nstop\n\nsub_0: assembly {\n        /* \"campaign.sol\":60:1168  contract Utility{... */\n      mstore(0x40, 0x80)\n      callvalue\n      dup1\n      iszero\n      tag_1\n      jumpi\n      0x00\n      dup1\n      revert\n    tag_1:\n      pop\n      jumpi(tag_2, lt(calldatasize, 0x04))\n      shr(0xe0, calldataload(0x00))\n      dup1\n      0x02e9d43b\n      eq\n      tag_3\n      jumpi\n      dup1\n      0x0a144391\n      eq\n      tag_4\n      jumpi\n      dup1\n      0x481c6a75\n      eq\n      tag_5\n      jumpi\n      dup1\n      0x82fde093\n      eq\n      tag_6\n      jumpi\n      dup1\n      0x937e09b1\n      eq\n      tag_7\n      jumpi\n      dup1\n      0xcf569977\n      eq\n      tag_8\n      jumpi\n    tag_2:\n      0x00\n      dup1\n      revert\n        /* \"campaign.sol\":666:707  mapping(uint=>Request) public requestList */\n    tag_3:\n      tag_9\n      0x04\n      dup1\n      calldatasize\n      sub\n      dup2\n      add\n      swap1\n      tag_10\n      swap2\n      swap1\n      tag_11\n      jump\t// in\n    tag_10:\n      tag_12\n      jump\t// in\n    tag_9:\n      mload(0x40)\n      tag_13\n      swap6\n      swap5\n      swap4\n      swap3\n      swap2\n      swap1\n      tag_14\n      jump\t// in\n    tag_13:\n      mload(0x40)\n      dup1\n      swap2\n      sub\n      swap1\n      return\n        /* \"campaign.sol\":156:195  mapping(address=>bool) public approvers */\n    tag_4:\n      tag_15\n      0x04\n      dup1\n      calldatasize\n      sub\n      dup2\n      add\n      swap1\n      tag_16\n      swap2\n      swap1\n      tag_17\n      jump\t// in\n    tag_16:\n      tag_18\n      jump\t// in\n    tag_15:\n      mload(0x40)\n      tag_19\n      swap2\n      swap1\n      tag_20\n      jump\t// in\n    tag_19:\n      mload(0x40)\n      dup1\n      swap2\n      sub\n      swap1\n      return\n        /* \"campaign.sol\":89:111  address public manager */\n    tag_5:\n      tag_21\n      tag_22\n      jump\t// in\n    tag_21:\n      mload(0x40)\n      tag_23\n      swap2\n      swap1\n      tag_24\n      jump\t// in\n    tag_23:\n      mload(0x40)\n      dup1\n      swap2\n      sub\n      swap1\n      return\n        /* \"campaign.sol\":202:228  uint public approversCount */\n    tag_6:\n      tag_25\n      tag_26\n      jump\t// in\n    tag_25:\n      mload(0x40)\n      tag_27\n      swap2\n      swap1\n      tag_28\n      jump\t// in\n    tag_27:\n      mload(0x40)\n      dup1\n      swap2\n      sub\n      swap1\n      return\n        /* \"campaign.sol\":118:149  uint public minimumContribution */\n    tag_7:\n      tag_29\n      tag_30\n      jump\t// in\n    tag_29:\n      mload(0x40)\n      tag_31\n      swap2\n      swap1\n      tag_28\n      jump\t// in\n    tag_31:\n      mload(0x40)\n      dup1\n      swap2\n      sub\n      swap1\n      return\n        /* \"campaign.sol\":594:622  uint public numberOfRequests */\n    tag_8:\n      tag_32\n      tag_33\n      jump\t// in\n    tag_32:\n      mload(0x40)\n      tag_34\n      swap2\n      swap1\n      tag_28\n      jump\t// in\n    tag_34:\n      mload(0x40)\n      dup1\n      swap2\n      sub\n      swap1\n      return\n        /* \"campaign.sol\":666:707  mapping(uint=>Request) public requestList */\n    tag_12:\n      mstore(0x20, 0x05)\n      dup1\n      0x00\n      mstore\n      keccak256(0x00, 0x40)\n      0x00\n      swap2\n      pop\n      swap1\n      pop\n      dup1\n      0x00\n      add\n      dup1\n      sload\n      tag_35\n      swap1\n      tag_36\n      jump\t// in\n    tag_35:\n      dup1\n      0x1f\n      add\n      0x20\n      dup1\n      swap2\n      div\n      mul\n      0x20\n      add\n      mload(0x40)\n      swap1\n      dup2\n      add\n      0x40\n      mstore\n      dup1\n      swap3\n      swap2\n      swap1\n      dup2\n      dup2\n      mstore\n      0x20\n      add\n      dup3\n      dup1\n      sload\n      tag_37\n      swap1\n      tag_36\n      jump\t// in\n    tag_37:\n      dup1\n      iszero\n      tag_38\n      jumpi\n      dup1\n      0x1f\n      lt\n      tag_39\n      jumpi\n      0x0100\n      dup1\n      dup4\n      sload\n      div\n      mul\n      dup4\n      mstore\n      swap2\n      0x20\n      add\n      swap2\n      jump(tag_38)\n    tag_39:\n      dup3\n      add\n      swap2\n      swap1\n      0x00\n      mstore\n      keccak256(0x00, 0x20)\n      swap1\n    tag_40:\n      dup2\n      sload\n      dup2\n      mstore\n      swap1\n      0x01\n      add\n      swap1\n      0x20\n      add\n      dup1\n      dup4\n      gt\n      tag_40\n      jumpi\n      dup3\n      swap1\n      sub\n      0x1f\n      and\n      dup3\n      add\n      swap2\n    tag_38:\n      pop\n      pop\n      pop\n      pop\n      pop\n      swap1\n      dup1\n      0x01\n      add\n      sload\n      swap1\n      dup1\n      0x02\n      add\n      0x00\n      swap1\n      sload\n      swap1\n      0x0100\n      exp\n      swap1\n      div\n      0xffffffffffffffffffffffffffffffffffffffff\n      and\n      swap1\n      dup1\n      0x02\n      add\n      0x14\n      swap1\n      sload\n      swap1\n      0x0100\n      exp\n      swap1\n      div\n      0xff\n      and\n      swap1\n      dup1\n      0x03\n      add\n      sload\n      swap1\n      pop\n      dup6\n      jump\t// out\n        /* \"campaign.sol\":156:195  mapping(address=>bool) public approvers */\n    tag_18:\n      mstore(0x20, 0x02)\n      dup1\n      0x00\n      mstore\n      keccak256(0x00, 0x40)\n      0x00\n      swap2\n      pop\n      sload\n      swap1\n      0x0100\n      exp\n      swap1\n      div\n      0xff\n      and\n      dup2\n      jump\t// out\n        /* \"campaign.sol\":89:111  address public manager */\n    tag_22:\n      0x00\n      dup1\n      sload\n      swap1\n      0x0100\n      exp\n      swap1\n      div\n      0xffffffffffffffffffffffffffffffffffffffff\n      and\n      dup2\n      jump\t// out\n        /* \"campaign.sol\":202:228  uint public approversCount */\n    tag_26:\n      sload(0x03)\n      dup2\n      jump\t// out\n        /* \"campaign.sol\":118:149  uint public minimumContribution */\n    tag_30:\n      sload(0x01)\n      dup2\n      jump\t// out\n        /* \"campaign.sol\":594:622  uint public numberOfRequests */\n    tag_33:\n      sload(0x04)\n      dup2\n      jump\t// out\n        /* \"#utility.yul\":88:205   */\n    tag_42:\n        /* \"#utility.yul\":197:198   */\n      0x00\n        /* \"#utility.yul\":194:195   */\n      dup1\n        /* \"#utility.yul\":187:199   */\n      revert\n        /* \"#utility.yul\":334:411   */\n    tag_44:\n        /* \"#utility.yul\":371:378   */\n      0x00\n        /* \"#utility.yul\":400:405   */\n      dup2\n        /* \"#utility.yul\":389:405   */\n      swap1\n      pop\n        /* \"#utility.yul\":334:411   */\n      swap2\n      swap1\n      pop\n      jump\t// out\n        /* \"#utility.yul\":417:539   */\n    tag_45:\n        /* \"#utility.yul\":490:514   */\n      tag_67\n        /* \"#utility.yul\":508:513   */\n      dup2\n        /* \"#utility.yul\":490:514   */\n      tag_44\n      jump\t// in\n    tag_67:\n        /* \"#utility.yul\":483:488   */\n      dup2\n        /* \"#utility.yul\":480:515   */\n      eq\n        /* \"#utility.yul\":470:533   */\n      tag_68\n      jumpi\n        /* \"#utility.yul\":529:530   */\n      0x00\n        /* \"#utility.yul\":526:527   */\n      dup1\n        /* \"#utility.yul\":519:531   */\n      revert\n        /* \"#utility.yul\":470:533   */\n    tag_68:\n        /* \"#utility.yul\":417:539   */\n      pop\n      jump\t// out\n        /* \"#utility.yul\":545:684   */\n    tag_46:\n        /* \"#utility.yul\":591:596   */\n      0x00\n        /* \"#utility.yul\":629:635   */\n      dup2\n        /* \"#utility.yul\":616:636   */\n      calldataload\n        /* \"#utility.yul\":607:636   */\n      swap1\n      pop\n        /* \"#utility.yul\":645:678   */\n      tag_70\n        /* \"#utility.yul\":672:677   */\n      dup2\n        /* \"#utility.yul\":645:678   */\n      tag_45\n      jump\t// in\n    tag_70:\n        /* \"#utility.yul\":545:684   */\n      swap3\n      swap2\n      pop\n      pop\n      jump\t// out\n        /* \"#utility.yul\":690:1019   */\n    tag_11:\n        /* \"#utility.yul\":749:755   */\n      0x00\n        /* \"#utility.yul\":798:800   */\n      0x20\n        /* \"#utility.yul\":786:795   */\n      dup3\n        /* \"#utility.yul\":777:784   */\n      dup5\n        /* \"#utility.yul\":773:796   */\n      sub\n        /* \"#utility.yul\":769:801   */\n      slt\n        /* \"#utility.yul\":766:885   */\n      iszero\n      tag_72\n      jumpi\n        /* \"#utility.yul\":804:883   */\n      tag_73\n      tag_42\n      jump\t// in\n    tag_73:\n        /* \"#utility.yul\":766:885   */\n    tag_72:\n        /* \"#utility.yul\":924:925   */\n      0x00\n        /* \"#utility.yul\":949:1002   */\n      tag_74\n        /* \"#utility.yul\":994:1001   */\n      dup5\n        /* \"#utility.yul\":985:991   */\n      dup3\n        /* \"#utility.yul\":974:983   */\n      dup6\n        /* \"#utility.yul\":970:992   */\n      add\n        /* \"#utility.yul\":949:1002   */\n      tag_46\n      jump\t// in\n    tag_74:\n        /* \"#utility.yul\":939:1002   */\n      swap2\n      pop\n        /* \"#utility.yul\":895:1012   */\n      pop\n        /* \"#utility.yul\":690:1019   */\n      swap3\n      swap2\n      pop\n      pop\n      jump\t// out\n        /* \"#utility.yul\":1025:1124   */\n    tag_47:\n        /* \"#utility.yul\":1077:1083   */\n      0x00\n        /* \"#utility.yul\":1111:1116   */\n      dup2\n        /* \"#utility.yul\":1105:1117   */\n      mload\n        /* \"#utility.yul\":1095:1117   */\n      swap1\n      pop\n        /* \"#utility.yul\":1025:1124   */\n      swap2\n      swap1\n      pop\n      jump\t// out\n        /* \"#utility.yul\":1130:1299   */\n    tag_48:\n        /* \"#utility.yul\":1214:1225   */\n      0x00\n        /* \"#utility.yul\":1248:1254   */\n      dup3\n        /* \"#utility.yul\":1243:1246   */\n      dup3\n        /* \"#utility.yul\":1236:1255   */\n      mstore\n        /* \"#utility.yul\":1288:1292   */\n      0x20\n        /* \"#utility.yul\":1283:1286   */\n      dup3\n        /* \"#utility.yul\":1279:1293   */\n      add\n        /* \"#utility.yul\":1264:1293   */\n      swap1\n      pop\n        /* \"#utility.yul\":1130:1299   */\n      swap3\n      swap2\n      pop\n      pop\n      jump\t// out\n        /* \"#utility.yul\":1305:1612   */\n    tag_49:\n        /* \"#utility.yul\":1373:1374   */\n      0x00\n        /* \"#utility.yul\":1383:1496   */\n    tag_78:\n        /* \"#utility.yul\":1397:1403   */\n      dup4\n        /* \"#utility.yul\":1394:1395   */\n      dup2\n        /* \"#utility.yul\":1391:1404   */\n      lt\n        /* \"#utility.yul\":1383:1496   */\n      iszero\n      tag_80\n      jumpi\n        /* \"#utility.yul\":1482:1483   */\n      dup1\n        /* \"#utility.yul\":1477:1480   */\n      dup3\n        /* \"#utility.yul\":1473:1484   */\n      add\n        /* \"#utility.yul\":1467:1485   */\n      mload\n        /* \"#utility.yul\":1463:1464   */\n      dup2\n        /* \"#utility.yul\":1458:1461   */\n      dup5\n        /* \"#utility.yul\":1454:1465   */\n      add\n        /* \"#utility.yul\":1447:1486   */\n      mstore\n        /* \"#utility.yul\":1419:1421   */\n      0x20\n        /* \"#utility.yul\":1416:1417   */\n      dup2\n        /* \"#utility.yul\":1412:1422   */\n      add\n        /* \"#utility.yul\":1407:1422   */\n      swap1\n      pop\n        /* \"#utility.yul\":1383:1496   */\n      jump(tag_78)\n    tag_80:\n        /* \"#utility.yul\":1514:1520   */\n      dup4\n        /* \"#utility.yul\":1511:1512   */\n      dup2\n        /* \"#utility.yul\":1508:1521   */\n      gt\n        /* \"#utility.yul\":1505:1606   */\n      iszero\n      tag_81\n      jumpi\n        /* \"#utility.yul\":1594:1595   */\n      0x00\n        /* \"#utility.yul\":1585:1591   */\n      dup5\n        /* \"#utility.yul\":1580:1583   */\n      dup5\n        /* \"#utility.yul\":1576:1592   */\n      add\n        /* \"#utility.yul\":1569:1596   */\n      mstore\n        /* \"#utility.yul\":1505:1606   */\n    tag_81:\n        /* \"#utility.yul\":1354:1612   */\n      pop\n        /* \"#utility.yul\":1305:1612   */\n      pop\n      pop\n      pop\n      jump\t// out\n        /* \"#utility.yul\":1618:1720   */\n    tag_50:\n        /* \"#utility.yul\":1659:1665   */\n      0x00\n        /* \"#utility.yul\":1710:1712   */\n      0x1f\n        /* \"#utility.yul\":1706:1713   */\n      not\n        /* \"#utility.yul\":1701:1703   */\n      0x1f\n        /* \"#utility.yul\":1694:1699   */\n      dup4\n        /* \"#utility.yul\":1690:1704   */\n      add\n        /* \"#utility.yul\":1686:1714   */\n      and\n        /* \"#utility.yul\":1676:1714   */\n      swap1\n      pop\n        /* \"#utility.yul\":1618:1720   */\n      swap2\n      swap1\n      pop\n      jump\t// out\n        /* \"#utility.yul\":1726:2090   */\n    tag_51:\n        /* \"#utility.yul\":1814:1817   */\n      0x00\n        /* \"#utility.yul\":1842:1881   */\n      tag_84\n        /* \"#utility.yul\":1875:1880   */\n      dup3\n        /* \"#utility.yul\":1842:1881   */\n      tag_47\n      jump\t// in\n    tag_84:\n        /* \"#utility.yul\":1897:1968   */\n      tag_85\n        /* \"#utility.yul\":1961:1967   */\n      dup2\n        /* \"#utility.yul\":1956:1959   */\n      dup6\n        /* \"#utility.yul\":1897:1968   */\n      tag_48\n      jump\t// in\n    tag_85:\n        /* \"#utility.yul\":1890:1968   */\n      swap4\n      pop\n        /* \"#utility.yul\":1977:2029   */\n      tag_86\n        /* \"#utility.yul\":2022:2028   */\n      dup2\n        /* \"#utility.yul\":2017:2020   */\n      dup6\n        /* \"#utility.yul\":2010:2014   */\n      0x20\n        /* \"#utility.yul\":2003:2008   */\n      dup7\n        /* \"#utility.yul\":1999:2015   */\n      add\n        /* \"#utility.yul\":1977:2029   */\n      tag_49\n      jump\t// in\n    tag_86:\n        /* \"#utility.yul\":2054:2083   */\n      tag_87\n        /* \"#utility.yul\":2076:2082   */\n      dup2\n        /* \"#utility.yul\":2054:2083   */\n      tag_50\n      jump\t// in\n    tag_87:\n        /* \"#utility.yul\":2049:2052   */\n      dup5\n        /* \"#utility.yul\":2045:2084   */\n      add\n        /* \"#utility.yul\":2038:2084   */\n      swap2\n      pop\n        /* \"#utility.yul\":1818:2090   */\n      pop\n        /* \"#utility.yul\":1726:2090   */\n      swap3\n      swap2\n      pop\n      pop\n      jump\t// out\n        /* \"#utility.yul\":2096:2214   */\n    tag_52:\n        /* \"#utility.yul\":2183:2207   */\n      tag_89\n        /* \"#utility.yul\":2201:2206   */\n      dup2\n        /* \"#utility.yul\":2183:2207   */\n      tag_44\n      jump\t// in\n    tag_89:\n        /* \"#utility.yul\":2178:2181   */\n      dup3\n        /* \"#utility.yul\":2171:2208   */\n      mstore\n        /* \"#utility.yul\":2096:2214   */\n      pop\n      pop\n      jump\t// out\n        /* \"#utility.yul\":2220:2346   */\n    tag_53:\n        /* \"#utility.yul\":2257:2264   */\n      0x00\n        /* \"#utility.yul\":2297:2339   */\n      0xffffffffffffffffffffffffffffffffffffffff\n        /* \"#utility.yul\":2290:2295   */\n      dup3\n        /* \"#utility.yul\":2286:2340   */\n      and\n        /* \"#utility.yul\":2275:2340   */\n      swap1\n      pop\n        /* \"#utility.yul\":2220:2346   */\n      swap2\n      swap1\n      pop\n      jump\t// out\n        /* \"#utility.yul\":2352:2448   */\n    tag_54:\n        /* \"#utility.yul\":2389:2396   */\n      0x00\n        /* \"#utility.yul\":2418:2442   */\n      tag_92\n        /* \"#utility.yul\":2436:2441   */\n      dup3\n        /* \"#utility.yul\":2418:2442   */\n      tag_53\n      jump\t// in\n    tag_92:\n        /* \"#utility.yul\":2407:2442   */\n      swap1\n      pop\n        /* \"#utility.yul\":2352:2448   */\n      swap2\n      swap1\n      pop\n      jump\t// out\n        /* \"#utility.yul\":2454:2572   */\n    tag_55:\n        /* \"#utility.yul\":2541:2565   */\n      tag_94\n        /* \"#utility.yul\":2559:2564   */\n      dup2\n        /* \"#utility.yul\":2541:2565   */\n      tag_54\n      jump\t// in\n    tag_94:\n        /* \"#utility.yul\":2536:2539   */\n      dup3\n        /* \"#utility.yul\":2529:2566   */\n      mstore\n        /* \"#utility.yul\":2454:2572   */\n      pop\n      pop\n      jump\t// out\n        /* \"#utility.yul\":2578:2668   */\n    tag_56:\n        /* \"#utility.yul\":2612:2619   */\n      0x00\n        /* \"#utility.yul\":2655:2660   */\n      dup2\n        /* \"#utility.yul\":2648:2661   */\n      iszero\n        /* \"#utility.yul\":2641:2662   */\n      iszero\n        /* \"#utility.yul\":2630:2662   */\n      swap1\n      pop\n        /* \"#utility.yul\":2578:2668   */\n      swap2\n      swap1\n      pop\n      jump\t// out\n        /* \"#utility.yul\":2674:2783   */\n    tag_57:\n        /* \"#utility.yul\":2755:2776   */\n      tag_97\n        /* \"#utility.yul\":2770:2775   */\n      dup2\n        /* \"#utility.yul\":2755:2776   */\n      tag_56\n      jump\t// in\n    tag_97:\n        /* \"#utility.yul\":2750:2753   */\n      dup3\n        /* \"#utility.yul\":2743:2777   */\n      mstore\n        /* \"#utility.yul\":2674:2783   */\n      pop\n      pop\n      jump\t// out\n        /* \"#utility.yul\":2789:3532   */\n    tag_14:\n        /* \"#utility.yul\":3008:3012   */\n      0x00\n        /* \"#utility.yul\":3046:3049   */\n      0xa0\n        /* \"#utility.yul\":3035:3044   */\n      dup3\n        /* \"#utility.yul\":3031:3050   */\n      add\n        /* \"#utility.yul\":3023:3050   */\n      swap1\n      pop\n        /* \"#utility.yul\":3096:3105   */\n      dup2\n        /* \"#utility.yul\":3090:3094   */\n      dup2\n        /* \"#utility.yul\":3086:3106   */\n      sub\n        /* \"#utility.yul\":3082:3083   */\n      0x00\n        /* \"#utility.yul\":3071:3080   */\n      dup4\n        /* \"#utility.yul\":3067:3084   */\n      add\n        /* \"#utility.yul\":3060:3107   */\n      mstore\n        /* \"#utility.yul\":3124:3202   */\n      tag_99\n        /* \"#utility.yul\":3197:3201   */\n      dup2\n        /* \"#utility.yul\":3188:3194   */\n      dup9\n        /* \"#utility.yul\":3124:3202   */\n      tag_51\n      jump\t// in\n    tag_99:\n        /* \"#utility.yul\":3116:3202   */\n      swap1\n      pop\n        /* \"#utility.yul\":3212:3284   */\n      tag_100\n        /* \"#utility.yul\":3280:3282   */\n      0x20\n        /* \"#utility.yul\":3269:3278   */\n      dup4\n        /* \"#utility.yul\":3265:3283   */\n      add\n        /* \"#utility.yul\":3256:3262   */\n      dup8\n        /* \"#utility.yul\":3212:3284   */\n      tag_52\n      jump\t// in\n    tag_100:\n        /* \"#utility.yul\":3294:3366   */\n      tag_101\n        /* \"#utility.yul\":3362:3364   */\n      0x40\n        /* \"#utility.yul\":3351:3360   */\n      dup4\n        /* \"#utility.yul\":3347:3365   */\n      add\n        /* \"#utility.yul\":3338:3344   */\n      dup7\n        /* \"#utility.yul\":3294:3366   */\n      tag_55\n      jump\t// in\n    tag_101:\n        /* \"#utility.yul\":3376:3442   */\n      tag_102\n        /* \"#utility.yul\":3438:3440   */\n      0x60\n        /* \"#utility.yul\":3427:3436   */\n      dup4\n        /* \"#utility.yul\":3423:3441   */\n      add\n        /* \"#utility.yul\":3414:3420   */\n      dup6\n        /* \"#utility.yul\":3376:3442   */\n      tag_57\n      jump\t// in\n    tag_102:\n        /* \"#utility.yul\":3452:3525   */\n      tag_103\n        /* \"#utility.yul\":3520:3523   */\n      0x80\n        /* \"#utility.yul\":3509:3518   */\n      dup4\n        /* \"#utility.yul\":3505:3524   */\n      add\n        /* \"#utility.yul\":3496:3502   */\n      dup5\n        /* \"#utility.yul\":3452:3525   */\n      tag_52\n      jump\t// in\n    tag_103:\n        /* \"#utility.yul\":2789:3532   */\n      swap7\n      swap6\n      pop\n      pop\n      pop\n      pop\n      pop\n      pop\n      jump\t// out\n        /* \"#utility.yul\":3538:3660   */\n    tag_58:\n        /* \"#utility.yul\":3611:3635   */\n      tag_105\n        /* \"#utility.yul\":3629:3634   */\n      dup2\n        /* \"#utility.yul\":3611:3635   */\n      tag_54\n      jump\t// in\n    tag_105:\n        /* \"#utility.yul\":3604:3609   */\n      dup2\n        /* \"#utility.yul\":3601:3636   */\n      eq\n        /* \"#utility.yul\":3591:3654   */\n      tag_106\n      jumpi\n        /* \"#utility.yul\":3650:3651   */\n      0x00\n        /* \"#utility.yul\":3647:3648   */\n      dup1\n        /* \"#utility.yul\":3640:3652   */\n      revert\n        /* \"#utility.yul\":3591:3654   */\n    tag_106:\n        /* \"#utility.yul\":3538:3660   */\n      pop\n      jump\t// out\n        /* \"#utility.yul\":3666:3805   */\n    tag_59:\n        /* \"#utility.yul\":3712:3717   */\n      0x00\n        /* \"#utility.yul\":3750:3756   */\n      dup2\n        /* \"#utility.yul\":3737:3757   */\n      calldataload\n        /* \"#utility.yul\":3728:3757   */\n      swap1\n      pop\n        /* \"#utility.yul\":3766:3799   */\n      tag_108\n        /* \"#utility.yul\":3793:3798   */\n      dup2\n        /* \"#utility.yul\":3766:3799   */\n      tag_58\n      jump\t// in\n    tag_108:\n        /* \"#utility.yul\":3666:3805   */\n      swap3\n      swap2\n      pop\n      pop\n      jump\t// out\n        /* \"#utility.yul\":3811:4140   */\n    tag_17:\n        /* \"#utility.yul\":3870:3876   */\n      0x00\n        /* \"#utility.yul\":3919:3921   */\n      0x20\n        /* \"#utility.yul\":3907:3916   */\n      dup3\n        /* \"#utility.yul\":3898:3905   */\n      dup5\n        /* \"#utility.yul\":3894:3917   */\n      sub\n        /* \"#utility.yul\":3890:3922   */\n      slt\n        /* \"#utility.yul\":3887:4006   */\n      iszero\n      tag_110\n      jumpi\n        /* \"#utility.yul\":3925:4004   */\n      tag_111\n      tag_42\n      jump\t// in\n    tag_111:\n        /* \"#utility.yul\":3887:4006   */\n    tag_110:\n        /* \"#utility.yul\":4045:4046   */\n      0x00\n        /* \"#utility.yul\":4070:4123   */\n      tag_112\n        /* \"#utility.yul\":4115:4122   */\n      dup5\n        /* \"#utility.yul\":4106:4112   */\n      dup3\n        /* \"#utility.yul\":4095:4104   */\n      dup6\n        /* \"#utility.yul\":4091:4113   */\n      add\n        /* \"#utility.yul\":4070:4123   */\n      tag_59\n      jump\t// in\n    tag_112:\n        /* \"#utility.yul\":4060:4123   */\n      swap2\n      pop\n        /* \"#utility.yul\":4016:4133   */\n      pop\n        /* \"#utility.yul\":3811:4140   */\n      swap3\n      swap2\n      pop\n      pop\n      jump\t// out\n        /* \"#utility.yul\":4146:4356   */\n    tag_20:\n        /* \"#utility.yul\":4233:4237   */\n      0x00\n        /* \"#utility.yul\":4271:4273   */\n      0x20\n        /* \"#utility.yul\":4260:4269   */\n      dup3\n        /* \"#utility.yul\":4256:4274   */\n      add\n        /* \"#utility.yul\":4248:4274   */\n      swap1\n      pop\n        /* \"#utility.yul\":4284:4349   */\n      tag_114\n        /* \"#utility.yul\":4346:4347   */\n      0x00\n        /* \"#utility.yul\":4335:4344   */\n      dup4\n        /* \"#utility.yul\":4331:4348   */\n      add\n        /* \"#utility.yul\":4322:4328   */\n      dup5\n        /* \"#utility.yul\":4284:4349   */\n      tag_57\n      jump\t// in\n    tag_114:\n        /* \"#utility.yul\":4146:4356   */\n      swap3\n      swap2\n      pop\n      pop\n      jump\t// out\n        /* \"#utility.yul\":4362:4584   */\n    tag_24:\n        /* \"#utility.yul\":4455:4459   */\n      0x00\n        /* \"#utility.yul\":4493:4495   */\n      0x20\n        /* \"#utility.yul\":4482:4491   */\n      dup3\n        /* \"#utility.yul\":4478:4496   */\n      add\n        /* \"#utility.yul\":4470:4496   */\n      swap1\n      pop\n        /* \"#utility.yul\":4506:4577   */\n      tag_116\n        /* \"#utility.yul\":4574:4575   */\n      0x00\n        /* \"#utility.yul\":4563:4572   */\n      dup4\n        /* \"#utility.yul\":4559:4576   */\n      add\n        /* \"#utility.yul\":4550:4556   */\n      dup5\n        /* \"#utility.yul\":4506:4577   */\n      tag_55\n      jump\t// in\n    tag_116:\n        /* \"#utility.yul\":4362:4584   */\n      swap3\n      swap2\n      pop\n      pop\n      jump\t// out\n        /* \"#utility.yul\":4590:4812   */\n    tag_28:\n        /* \"#utility.yul\":4683:4687   */\n      0x00\n        /* \"#utility.yul\":4721:4723   */\n      0x20\n        /* \"#utility.yul\":4710:4719   */\n      dup3\n        /* \"#utility.yul\":4706:4724   */\n      add\n        /* \"#utility.yul\":4698:4724   */\n      swap1\n      pop\n        /* \"#utility.yul\":4734:4805   */\n      tag_118\n        /* \"#utility.yul\":4802:4803   */\n      0x00\n        /* \"#utility.yul\":4791:4800   */\n      dup4\n        /* \"#utility.yul\":4787:4804   */\n      add\n        /* \"#utility.yul\":4778:4784   */\n      dup5\n        /* \"#utility.yul\":4734:4805   */\n      tag_52\n      jump\t// in\n    tag_118:\n        /* \"#utility.yul\":4590:4812   */\n      swap3\n      swap2\n      pop\n      pop\n      jump\t// out\n        /* \"#utility.yul\":4818:4998   */\n    tag_60:\n        /* \"#utility.yul\":4866:4943   */\n      0x4e487b7100000000000000000000000000000000000000000000000000000000\n        /* \"#utility.yul\":4863:4864   */\n      0x00\n        /* \"#utility.yul\":4856:4944   */\n      mstore\n        /* \"#utility.yul\":4963:4967   */\n      0x22\n        /* \"#utility.yul\":4960:4961   */\n      0x04\n        /* \"#utility.yul\":4953:4968   */\n      mstore\n        /* \"#utility.yul\":4987:4991   */\n      0x24\n        /* \"#utility.yul\":4984:4985   */\n      0x00\n        /* \"#utility.yul\":4977:4992   */\n      revert\n        /* \"#utility.yul\":5004:5324   */\n    tag_36:\n        /* \"#utility.yul\":5048:5054   */\n      0x00\n        /* \"#utility.yul\":5085:5086   */\n      0x02\n        /* \"#utility.yul\":5079:5083   */\n      dup3\n        /* \"#utility.yul\":5075:5087   */\n      div\n        /* \"#utility.yul\":5065:5087   */\n      swap1\n      pop\n        /* \"#utility.yul\":5132:5133   */\n      0x01\n        /* \"#utility.yul\":5126:5130   */\n      dup3\n        /* \"#utility.yul\":5122:5134   */\n      and\n        /* \"#utility.yul\":5153:5171   */\n      dup1\n        /* \"#utility.yul\":5143:5224   */\n      tag_121\n      jumpi\n        /* \"#utility.yul\":5209:5213   */\n      0x7f\n        /* \"#utility.yul\":5201:5207   */\n      dup3\n        /* \"#utility.yul\":5197:5214   */\n      and\n        /* \"#utility.yul\":5187:5214   */\n      swap2\n      pop\n        /* \"#utility.yul\":5143:5224   */\n    tag_121:\n        /* \"#utility.yul\":5271:5273   */\n      0x20\n        /* \"#utility.yul\":5263:5269   */\n      dup3\n        /* \"#utility.yul\":5260:5274   */\n      lt\n        /* \"#utility.yul\":5240:5258   */\n      dup2\n        /* \"#utility.yul\":5237:5275   */\n      eq\n        /* \"#utility.yul\":5234:5318   */\n      iszero\n      tag_122\n      jumpi\n        /* \"#utility.yul\":5290:5308   */\n      tag_123\n      tag_60\n      jump\t// in\n    tag_123:\n        /* \"#utility.yul\":5234:5318   */\n    tag_122:\n        /* \"#utility.yul\":5055:5324   */\n      pop\n        /* \"#utility.yul\":5004:5324   */\n      swap2\n      swap1\n      pop\n      jump\t// out\n\n    auxdata: 0xa26469706673582212208d1294b1e7b763e18407299c45686df090f2607b34b04b75536102243b94f7ae64736f6c634300080b0033\n}\n","bytecode":{"linkReferences":{},"object":"608060405234801561001057600080fd5b5061058b806100206000396000f3fe608060405234801561001057600080fd5b50600436106100625760003560e01c806302e9d43b146100675780630a1443911461009b578063481c6a75146100cb57806382fde093146100e9578063937e09b114610107578063cf56997714610125575b600080fd5b610081600480360381019061007c91906102bf565b610143565b6040516100929594939291906103f0565b60405180910390f35b6100b560048036038101906100b09190610476565b61022e565b6040516100c291906104a3565b60405180910390f35b6100d361024e565b6040516100e091906104be565b60405180910390f35b6100f1610272565b6040516100fe91906104d9565b60405180910390f35b61010f610278565b60405161011c91906104d9565b60405180910390f35b61012d61027e565b60405161013a91906104d9565b60405180910390f35b600560205280600052604060002060009150905080600001805461016690610523565b80601f016020809104026020016040519081016040528092919081815260200182805461019290610523565b80156101df5780601f106101b4576101008083540402835291602001916101df565b820191906000526020600020905b8154815290600101906020018083116101c257829003601f168201915b5050505050908060010154908060020160009054906101000a900473ffffffffffffffffffffffffffffffffffffffff16908060020160149054906101000a900460ff16908060030154905085565b60026020528060005260406000206000915054906101000a900460ff1681565b60008054906101000a900473ffffffffffffffffffffffffffffffffffffffff1681565b60035481565b60015481565b60045481565b600080fd5b6000819050919050565b61029c81610289565b81146102a757600080fd5b50565b6000813590506102b981610293565b92915050565b6000602082840312156102d5576102d4610284565b5b60006102e3848285016102aa565b91505092915050565b600081519050919050565b600082825260208201905092915050565b60005b8381101561032657808201518184015260208101905061030b565b83811115610335576000848401525b50505050565b6000601f19601f8301169050919050565b6000610357826102ec565b61036181856102f7565b9350610371818560208601610308565b61037a8161033b565b840191505092915050565b61038e81610289565b82525050565b600073ffffffffffffffffffffffffffffffffffffffff82169050919050565b60006103bf82610394565b9050919050565b6103cf816103b4565b82525050565b60008115159050919050565b6103ea816103d5565b82525050565b600060a082019050818103600083015261040a818861034c565b90506104196020830187610385565b61042660408301866103c6565b61043360608301856103e1565b6104406080830184610385565b9695505050505050565b610453816103b4565b811461045e57600080fd5b50565b6000813590506104708161044a565b92915050565b60006020828403121561048c5761048b610284565b5b600061049a84828501610461565b91505092915050565b60006020820190506104b860008301846103e1565b92915050565b60006020820190506104d360008301846103c6565b92915050565b60006020820190506104ee6000830184610385565b92915050565b7f4e487b7100000000000000000000000000000000000000000000000000000000600052602260045260246000fd5b6000600282049050600182168061053b57607f821691505b6020821081141561054f5761054e6104f4565b5b5091905056fea26469706673582212208d1294b1e7b763e18407299c45686df090f2607b34b04b75536102243b94f7ae64736f6c634300080b0033","opcodes":"PUSH1 0x80 PUSH1 0x40 MSTORE CALLVALUE DUP1 ISZERO PUSH2 0x10 JUMPI PUSH1 0x0 DUP1 REVERT JUMPDEST POP PUSH2 0x58B DUP1 PUSH2 0x20 PUSH1 0x0 CODECOPY PUSH1 0x0 RETURN INVALID PUSH1 0x80 PUSH1 0x40 MSTORE CALLVALUE DUP1 ISZERO PUSH2 0x10 JUMPI PUSH1 0x0 DUP1 REVERT JUMPDEST POP PUSH1 0x4 CALLDATASIZE LT PUSH2 0x62 JUMPI PUSH1 0x0 CALLDATALOAD PUSH1 0xE0 SHR DUP1 PUSH4 0x2E9D43B EQ PUSH2 0x67 JUMPI DUP1 PUSH4 0xA144391 EQ PUSH2 0x9B JUMPI DUP1 PUSH4 0x481C6A75 EQ PUSH2 0xCB JUMPI DUP1 PUSH4 0x82FDE093 EQ PUSH2 0xE9 JUMPI DUP1 PUSH4 0x937E09B1 EQ PUSH2 0x107 JUMPI DUP1 PUSH4 0xCF569977 EQ PUSH2 0x125 JUMPI JUMPDEST PUSH1 0x0 DUP1 REVERT JUMPDEST PUSH2 0x81 PUSH1 0x4 DUP1 CALLDATASIZE SUB DUP2 ADD SWAP1 PUSH2 0x7C SWAP2 SWAP1 PUSH2 0x2BF JUMP JUMPDEST PUSH2 0x143 JUMP JUMPDEST PUSH1 0x40 MLOAD PUSH2 0x92 SWAP6 SWAP5 SWAP4 SWAP3 SWAP2 SWAP1 PUSH2 0x3F0 JUMP JUMPDEST PUSH1 0x40 MLOAD DUP1 SWAP2 SUB SWAP1 RETURN JUMPDEST PUSH2 0xB5 PUSH1 0x4 DUP1 CALLDATASIZE SUB DUP2 ADD SWAP1 PUSH2 0xB0 SWAP2 SWAP1 PUSH2 0x476 JUMP JUMPDEST PUSH2 0x22E JUMP JUMPDEST PUSH1 0x40 MLOAD PUSH2 0xC2 SWAP2 SWAP1 PUSH2 0x4A3 JUMP JUMPDEST PUSH1 0x40 MLOAD DUP1 SWAP2 SUB SWAP1 RETURN JUMPDEST PUSH2 0xD3 PUSH2 0x24E JUMP JUMPDEST PUSH1 0x40 MLOAD PUSH2 0xE0 SWAP2 SWAP1 PUSH2 0x4BE JUMP JUMPDEST PUSH1 0x40 MLOAD DUP1 SWAP2 SUB SWAP1 RETURN JUMPDEST PUSH2 0xF1 PUSH2 0x272 JUMP JUMPDEST PUSH1 0x40 MLOAD PUSH2 0xFE SWAP2 SWAP1 PUSH2 0x4D9 JUMP JUMPDEST PUSH1 0x40 MLOAD DUP1 SWAP2 SUB SWAP1 RETURN JUMPDEST PUSH2 0x10F PUSH2 0x278 JUMP JUMPDEST PUSH1 0x40 MLOAD PUSH2 0x11C SWAP2 SWAP1 PUSH2 0x4D9 JUMP JUMPDEST PUSH1 0x40 MLOAD DUP1 SWAP2 SUB SWAP1 RETURN JUMPDEST PUSH2 0x12D PUSH2 0x27E JUMP JUMPDEST PUSH1 0x40 MLOAD PUSH2 0x13A SWAP2 SWAP1 PUSH2 0x4D9 JUMP JUMPDEST PUSH1 0x40 MLOAD DUP1 SWAP2 SUB SWAP1 RETURN JUMPDEST PUSH1 0x5 PUSH1 0x20 MSTORE DUP1 PUSH1 0x0 MSTORE PUSH1 0x40 PUSH1 0x0 KECCAK256 PUSH1 0x0 SWAP2 POP SWAP1 POP DUP1 PUSH1 0x0 ADD DUP1 SLOAD PUSH2 0x166 SWAP1 PUSH2 0x523 JUMP JUMPDEST DUP1 PUSH1 0x1F ADD PUSH1 0x20 DUP1 SWAP2 DIV MUL PUSH1 0x20 ADD PUSH1 0x40 MLOAD SWAP1 DUP2 ADD PUSH1 0x40 MSTORE DUP1 SWAP3 SWAP2 SWAP1 DUP2 DUP2 MSTORE PUSH1 0x20 ADD DUP3 DUP1 SLOAD PUSH2 0x192 SWAP1 PUSH2 0x523 JUMP JUMPDEST DUP1 ISZERO PUSH2 0x1DF JUMPI DUP1 PUSH1 0x1F LT PUSH2 0x1B4 JUMPI PUSH2 0x100 DUP1 DUP4 SLOAD DIV MUL DUP4 MSTORE SWAP2 PUSH1 0x20 ADD SWAP2 PUSH2 0x1DF JUMP JUMPDEST DUP3 ADD SWAP2 SWAP1 PUSH1 0x0 MSTORE PUSH1 0x20 PUSH1 0x0 KECCAK256 SWAP1 JUMPDEST DUP2 SLOAD DUP2 MSTORE SWAP1 PUSH1 0x1 ADD SWAP1 PUSH1 0x20 ADD DUP1 DUP4 GT PUSH2 0x1C2 JUMPI DUP3 SWAP1 SUB PUSH1 0x1F AND DUP3 ADD SWAP2 JUMPDEST POP POP POP POP POP SWAP1 DUP1 PUSH1 0x1 ADD SLOAD SWAP1 DUP1 PUSH1 0x2 ADD PUSH1 0x0 SWAP1 SLOAD SWAP1 PUSH2 0x100 EXP SWAP1 DIV PUSH20 0xFFFFFFFFFFFFFFFFFFFFFFFFFFFFFFFFFFFFFFFF AND SWAP1 DUP1 PUSH1 0x2 ADD PUSH1 0x14 SWAP1 SLOAD SWAP1 PUSH2 0x100 EXP SWAP1 DIV PUSH1 0xFF AND SWAP1 DUP1 PUSH1 0x3 ADD SLOAD SWAP1 POP DUP6 JUMP JUMPDEST PUSH1 0x2 PUSH1 0x20 MSTORE DUP1 PUSH1 0x0 MSTORE PUSH1 0x40 PUSH1 0x0 KECCAK256 PUSH1 0x0 SWAP2 POP SLOAD SWAP1 PUSH2 0x100 EXP SWAP1 DIV PUSH1 0xFF AND DUP2 JUMP JUMPDEST PUSH1 0x0 DUP1 SLOAD SWAP1 PUSH2 0x100 EXP SWAP1 DIV PUSH20 0xFFFFFFFFFFFFFFFFFFFFFFFFFFFFFFFFFFFFFFFF AND DUP2 JUMP JUMPDEST PUSH1 0x3 SLOAD DUP2 JUMP JUMPDEST PUSH1 0x1 SLOAD DUP2 JUMP JUMPDEST PUSH1 0x4 SLOAD DUP2 JUMP JUMPDEST PUSH1 0x0 DUP1 REVERT JUMPDEST PUSH1 0x0 DUP2 SWAP1 POP SWAP2 SWAP1 POP JUMP JUMPDEST PUSH2 0x29C DUP2 PUSH2 0x289 JUMP JUMPDEST DUP2 EQ PUSH2 0x2A7 JUMPI PUSH1 0x0 DUP1 REVERT JUMPDEST POP JUMP JUMPDEST PUSH1 0x0 DUP2 CALLDATALOAD SWAP1 POP PUSH2 0x2B9 DUP2 PUSH2 0x293 JUMP JUMPDEST SWAP3 SWAP2 POP POP JUMP JUMPDEST PUSH1 0x0 PUSH1 0x20 DUP3 DUP5 SUB SLT ISZERO PUSH2 0x2D5 JUMPI PUSH2 0x2D4 PUSH2 0x284 JUMP JUMPDEST JUMPDEST PUSH1 0x0 PUSH2 0x2E3 DUP5 DUP3 DUP6 ADD PUSH2 0x2AA JUMP JUMPDEST SWAP2 POP POP SWAP3 SWAP2 POP POP JUMP JUMPDEST PUSH1 0x0 DUP2 MLOAD SWAP1 POP SWAP2 SWAP1 POP JUMP JUMPDEST PUSH1 0x0 DUP3 DUP3 MSTORE PUSH1 0x20 DUP3 ADD SWAP1 POP SWAP3 SWAP2 POP POP JUMP JUMPDEST PUSH1 0x0 JUMPDEST DUP4 DUP2 LT ISZERO PUSH2 0x326 JUMPI DUP1 DUP3 ADD MLOAD DUP2 DUP5 ADD MSTORE PUSH1 0x20 DUP2 ADD SWAP1 POP PUSH2 0x30B JUMP JUMPDEST DUP4 DUP2 GT ISZERO PUSH2 0x335 JUMPI PUSH1 0x0 DUP5 DUP5 ADD MSTORE JUMPDEST POP POP POP POP JUMP JUMPDEST PUSH1 0x0 PUSH1 0x1F NOT PUSH1 0x1F DUP4 ADD AND SWAP1 POP SWAP2 SWAP1 POP JUMP JUMPDEST PUSH1 0x0 PUSH2 0x357 DUP3 PUSH2 0x2EC JUMP JUMPDEST PUSH2 0x361 DUP2 DUP6 PUSH2 0x2F7 JUMP JUMPDEST SWAP4 POP PUSH2 0x371 DUP2 DUP6 PUSH1 0x20 DUP7 ADD PUSH2 0x308 JUMP JUMPDEST PUSH2 0x37A DUP2 PUSH2 0x33B JUMP JUMPDEST DUP5 ADD SWAP2 POP POP SWAP3 SWAP2 POP POP JUMP JUMPDEST PUSH2 0x38E DUP2 PUSH2 0x289 JUMP JUMPDEST DUP3 MSTORE POP POP JUMP JUMPDEST PUSH1 0x0 PUSH20 0xFFFFFFFFFFFFFFFFFFFFFFFFFFFFFFFFFFFFFFFF DUP3 AND SWAP1 POP SWAP2 SWAP1 POP JUMP JUMPDEST PUSH1 0x0 PUSH2 0x3BF DUP3 PUSH2 0x394 JUMP JUMPDEST SWAP1 POP SWAP2 SWAP1 POP JUMP JUMPDEST PUSH2 0x3CF DUP2 PUSH2 0x3B4 JUMP JUMPDEST DUP3 MSTORE POP POP JUMP JUMPDEST PUSH1 0x0 DUP2 ISZERO ISZERO SWAP1 POP SWAP2 SWAP1 POP JUMP JUMPDEST PUSH2 0x3EA DUP2 PUSH2 0x3D5 JUMP JUMPDEST DUP3 MSTORE POP POP JUMP JUMPDEST PUSH1 0x0 PUSH1 0xA0 DUP3 ADD SWAP1 POP DUP2 DUP2 SUB PUSH1 0x0 DUP4 ADD MSTORE PUSH2 0x40A DUP2 DUP9 PUSH2 0x34C JUMP JUMPDEST SWAP1 POP PUSH2 0x419 PUSH1 0x20 DUP4 ADD DUP8 PUSH2 0x385 JUMP JUMPDEST PUSH2 0x426 PUSH1 0x40 DUP4 ADD DUP7 PUSH2 0x3C6 JUMP JUMPDEST PUSH2 0x433 PUSH1 0x60 DUP4 ADD DUP6 PUSH2 0x3E1 JUMP JUMPDEST PUSH2 0x440 PUSH1 0x80 DUP4 ADD DUP5 PUSH2 0x385 JUMP JUMPDEST SWAP7 SWAP6 POP POP POP POP POP POP JUMP JUMPDEST PUSH2 0x453 DUP2 PUSH2 0x3B4 JUMP JUMPDEST DUP2 EQ PUSH2 0x45E JUMPI PUSH1 0x0 DUP1 REVERT JUMPDEST POP JUMP JUMPDEST PUSH1 0x0 DUP2 CALLDATALOAD SWAP1 POP PUSH2 0x470 DUP2 PUSH2 0x44A JUMP JUMPDEST SWAP3 SWAP2 POP POP JUMP JUMPDEST PUSH1 0x0 PUSH1 0x20 DUP3 DUP5 SUB SLT ISZERO PUSH2 0x48C JUMPI PUSH2 0x48B PUSH2 0x284 JUMP JUMPDEST JUMPDEST PUSH1 0x0 PUSH2 0x49A DUP5 DUP3 DUP6 ADD PUSH2 0x461 JUMP JUMPDEST SWAP2 POP POP SWAP3 SWAP2 POP POP JUMP JUMPDEST PUSH1 0x0 PUSH1 0x20 DUP3 ADD SWAP1 POP PUSH2 0x4B8 PUSH1 0x0 DUP4 ADD DUP5 PUSH2 0x3E1 JUMP JUMPDEST SWAP3 SWAP2 POP POP JUMP JUMPDEST PUSH1 0x0 PUSH1 0x20 DUP3 ADD SWAP1 POP PUSH2 0x4D3 PUSH1 0x0 DUP4 ADD DUP5 PUSH2 0x3C6 JUMP JUMPDEST SWAP3 SWAP2 POP POP JUMP JUMPDEST PUSH1 0x0 PUSH1 0x20 DUP3 ADD SWAP1 POP PUSH2 0x4EE PUSH1 0x0 DUP4 ADD DUP5 PUSH2 0x385 JUMP JUMPDEST SWAP3 SWAP2 POP POP JUMP JUMPDEST PUSH32 0x4E487B7100000000000000000000000000000000000000000000000000000000 PUSH1 0x0 MSTORE PUSH1 0x22 PUSH1 0x4 MSTORE PUSH1 0x24 PUSH1 0x0 REVERT JUMPDEST PUSH1 0x0 PUSH1 0x2 DUP3 DIV SWAP1 POP PUSH1 0x1 DUP3 AND DUP1 PUSH2 0x53B JUMPI PUSH1 0x7F DUP3 AND SWAP2 POP JUMPDEST PUSH1 0x20 DUP3 LT DUP2 EQ ISZERO PUSH2 0x54F JUMPI PUSH2 0x54E PUSH2 0x4F4 JUMP JUMPDEST JUMPDEST POP SWAP2 SWAP1 POP JUMP INVALID LOG2 PUSH5 0x6970667358 0x22 SLT KECCAK256 DUP14 SLT SWAP5 0xB1 0xE7 0xB7 PUSH4 0xE1840729 SWAP13 GASLIMIT PUSH9 0x6DF090F2607B34B04B PUSH22 0x536102243B94F7AE64736F6C634300080B0033000000 "},"gasEstimates":{"creation":{"codeDepositCost":"283800","executionCost":"324","totalCost":"284124"},"external":{"approvers(address)":"2845","approversCount()":"2473","manager()":"2533","minimumContribution()":"2495","numberOfRequests()":"2517","requestList(uint256)":"infinite"}},"methodIdentifiers":{"approvers(address)":"0a144391","approversCount()":"82fde093","manager()":"481c6a75","minimumContribution()":"937e09b1","numberOfRequests()":"cf569977","requestList(uint256)":"02e9d43b"}},"storageLayout":{"storage":[{"astId":3,"contract":"campaign.sol:Utility","label":"manager","offset":0,"slot":"0","type":"t_address"},{"astId":5,"contract":"campaign.sol:Utility","label":"minimumContribution","offset":0,"slot":"1","type":"t_uint256"},{"astId":9,"contract":"campaign.sol:Utility","label":"approvers","offset":0,"slot":"2","type":"t_mapping(t_address,t_bool)"},{"astId":11,"contract":"campaign.sol:Utility","label":"approversCount","offset":0,"slot":"3","type":"t_uint256"},{"astId":40,"contract":"campaign.sol:Utility","label":"numberOfRequests","offset":0,"slot":"4","type":"t_uint256"},{"astId":45,"contract":"campaign.sol:Utility","label":"requestList","offset":0,"slot":"5","type":"t_mapping(t_uint256,t_struct(Request)38_storage)"}],"types":{"t_address":{"encoding":"inplace","label":"address","numberOfBytes":"20"},"t_bool":{"encoding":"inplace","label":"bool","numberOfBytes":"1"},"t_mapping(t_address,t_bool)":{"encoding":"mapping","key":"t_address","label":"mapping(address => bool)","numberOfBytes":"32","value":"t_bool"},"t_mapping(t_uint256,t_struct(Request)38_storage)":{"encoding":"mapping","key":"t_uint256","label":"mapping(uint256 => struct Utility.Request)","numberOfBytes":"32","value":"t_struct(Request)38_storage"},"t_string_storage":{"encoding":"bytes","label":"string","numberOfBytes":"32"},"t_struct(Request)38_storage":{"encoding":"inplace","label":"struct Utility.Request","members":[{"astId":25,"contract":"campaign.sol:Utility","label":"description","offset":0,"slot":"0","type":"t_string_storage"},{"astId":27,"contract":"campaign.sol:Utility","label":"value","offset":0,"slot":"1","type":"t_uint256"},{"astId":29,"contract":"campaign.sol:Utility","label":"recipient","offset":0,"slot":"2","type":"t_address"},{"astId":31,"contract":"campaign.sol:Utility","label":"complete","offset":20,"slot":"2","type":"t_bool"},{"astId":33,"contract":"campaign.sol:Utility","label":"approvalCount","offset":0,"slot":"3","type":"t_uint256"},{"astId":37,"contract":"campaign.sol:Utility","label":"approvals","offset":0,"slot":"4","type":"t_mapping(t_address,t_bool)"}],"numberOfBytes":"160"},"t_uint256":{"encoding":"inplace","label":"uint256","numberOfBytes":"32"}}},"userdoc":{"kind":"user","methods":{},"version":1}}